{
	"contracts/FundMe.sol": {
		"FundMe": {
			"abi": [
				{
					"inputs": [
						{
							"internalType": "address",
							"name": "",
							"type": "address"
						}
					],
					"name": "addressToAmountFunded",
					"outputs": [
						{
							"internalType": "uint256",
							"name": "",
							"type": "uint256"
						}
					],
					"stateMutability": "view",
					"type": "function"
				},
				{
					"inputs": [],
					"name": "fund",
					"outputs": [],
					"stateMutability": "payable",
					"type": "function"
				},
				{
					"inputs": [
						{
							"internalType": "uint256",
							"name": "",
							"type": "uint256"
						}
					],
					"name": "funders",
					"outputs": [
						{
							"internalType": "address",
							"name": "",
							"type": "address"
						}
					],
					"stateMutability": "view",
					"type": "function"
				},
				{
					"inputs": [],
					"name": "minimumUsd",
					"outputs": [
						{
							"internalType": "uint256",
							"name": "",
							"type": "uint256"
						}
					],
					"stateMutability": "view",
					"type": "function"
				},
				{
					"inputs": [],
					"name": "withdraw",
					"outputs": [],
					"stateMutability": "nonpayable",
					"type": "function"
				}
			],
			"devdoc": {
				"kind": "dev",
				"methods": {},
				"version": 1
			},
			"evm": {
				"assembly": "    /* \"contracts/FundMe.sol\":179:1190  contract FundMe {... */\n  mstore(0x40, 0x80)\n    /* \"contracts/FundMe.sol\":271:280  50 * 1e18 */\n  0x02b5e3af16b1880000\n    /* \"contracts/FundMe.sol\":243:280  uint256 public minimumUsd = 50 * 1e18 */\n  0x00\n  sstore\n    /* \"contracts/FundMe.sol\":179:1190  contract FundMe {... */\n  callvalue\n  dup1\n  iszero\n  tag_1\n  jumpi\n  0x00\n  dup1\n  revert\ntag_1:\n  pop\n  dataSize(sub_0)\n  dup1\n  dataOffset(sub_0)\n  0x00\n  codecopy\n  0x00\n  return\nstop\n\nsub_0: assembly {\n        /* \"contracts/FundMe.sol\":179:1190  contract FundMe {... */\n      mstore(0x40, 0x80)\n      jumpi(tag_1, lt(calldatasize, 0x04))\n      shr(0xe0, calldataload(0x00))\n      dup1\n      0x098de820\n      eq\n      tag_2\n      jumpi\n      dup1\n      0x3ccfd60b\n      eq\n      tag_3\n      jumpi\n      dup1\n      0x3e47d6f3\n      eq\n      tag_4\n      jumpi\n      dup1\n      0xb60d4288\n      eq\n      tag_5\n      jumpi\n      dup1\n      0xdc0d3dff\n      eq\n      tag_6\n      jumpi\n    tag_1:\n      0x00\n      dup1\n      revert\n        /* \"contracts/FundMe.sol\":243:280  uint256 public minimumUsd = 50 * 1e18 */\n    tag_2:\n      callvalue\n      dup1\n      iszero\n      tag_7\n      jumpi\n      0x00\n      dup1\n      revert\n    tag_7:\n      pop\n      tag_8\n      tag_9\n      jump\t// in\n    tag_8:\n      mload(0x40)\n      tag_10\n      swap2\n      swap1\n      tag_11\n      jump\t// in\n    tag_10:\n      mload(0x40)\n      dup1\n      swap2\n      sub\n      swap1\n      return\n        /* \"contracts/FundMe.sol\":950:1185  function withdraw() public {... */\n    tag_3:\n      callvalue\n      dup1\n      iszero\n      tag_12\n      jumpi\n      0x00\n      dup1\n      revert\n    tag_12:\n      pop\n      tag_13\n      tag_14\n      jump\t// in\n    tag_13:\n      stop\n        /* \"contracts/FundMe.sol\":321:377  mapping(address => uint256) public addressToAmountFunded */\n    tag_4:\n      callvalue\n      dup1\n      iszero\n      tag_15\n      jumpi\n      0x00\n      dup1\n      revert\n    tag_15:\n      pop\n      tag_16\n      0x04\n      dup1\n      calldatasize\n      sub\n      dup2\n      add\n      swap1\n      tag_17\n      swap2\n      swap1\n      tag_18\n      jump\t// in\n    tag_17:\n      tag_19\n      jump\t// in\n    tag_16:\n      mload(0x40)\n      tag_20\n      swap2\n      swap1\n      tag_11\n      jump\t// in\n    tag_20:\n      mload(0x40)\n      dup1\n      swap2\n      sub\n      swap1\n      return\n        /* \"contracts/FundMe.sol\":386:939  function fund() public payable { // in order to send smth with a function you need payable... */\n    tag_5:\n      tag_21\n      tag_22\n      jump\t// in\n    tag_21:\n      stop\n        /* \"contracts/FundMe.sol\":290:314  address[] public funders */\n    tag_6:\n      callvalue\n      dup1\n      iszero\n      tag_23\n      jumpi\n      0x00\n      dup1\n      revert\n    tag_23:\n      pop\n      tag_24\n      0x04\n      dup1\n      calldatasize\n      sub\n      dup2\n      add\n      swap1\n      tag_25\n      swap2\n      swap1\n      tag_26\n      jump\t// in\n    tag_25:\n      tag_27\n      jump\t// in\n    tag_24:\n      mload(0x40)\n      tag_28\n      swap2\n      swap1\n      tag_29\n      jump\t// in\n    tag_28:\n      mload(0x40)\n      dup1\n      swap2\n      sub\n      swap1\n      return\n        /* \"contracts/FundMe.sol\":243:280  uint256 public minimumUsd = 50 * 1e18 */\n    tag_9:\n      sload(0x00)\n      dup2\n      jump\t// out\n        /* \"contracts/FundMe.sol\":950:1185  function withdraw() public {... */\n    tag_14:\n        /* \"contracts/FundMe.sol\":993:1012  uint256 funderIndex */\n      0x00\n        /* \"contracts/FundMe.sol\":989:1177  for(uint256 funderIndex = 0; funderIndex < funders.length; funderIndex++){... */\n    tag_31:\n        /* \"contracts/FundMe.sol\":1032:1039  funders */\n      0x01\n        /* \"contracts/FundMe.sol\":1032:1046  funders.length */\n      dup1\n      sload\n      swap1\n      pop\n        /* \"contracts/FundMe.sol\":1018:1029  funderIndex */\n      dup2\n        /* \"contracts/FundMe.sol\":1018:1046  funderIndex < funders.length */\n      lt\n        /* \"contracts/FundMe.sol\":989:1177  for(uint256 funderIndex = 0; funderIndex < funders.length; funderIndex++){... */\n      iszero\n      tag_32\n      jumpi\n        /* \"contracts/FundMe.sol\":1078:1092  address funder */\n      0x00\n        /* \"contracts/FundMe.sol\":1095:1102  funders */\n      0x01\n        /* \"contracts/FundMe.sol\":1103:1114  funderIndex */\n      dup3\n        /* \"contracts/FundMe.sol\":1095:1115  funders[funderIndex] */\n      dup2\n      sload\n      dup2\n      lt\n      tag_34\n      jumpi\n      tag_35\n      tag_36\n      jump\t// in\n    tag_35:\n    tag_34:\n      swap1\n      0x00\n      mstore\n      keccak256(0x00, 0x20)\n      add\n      0x00\n      swap1\n      sload\n      swap1\n      0x0100\n      exp\n      swap1\n      div\n      0xffffffffffffffffffffffffffffffffffffffff\n      and\n        /* \"contracts/FundMe.sol\":1078:1115  address funder = funders[funderIndex] */\n      swap1\n      pop\n        /* \"contracts/FundMe.sol\":1163:1164  0 */\n      0x00\n        /* \"contracts/FundMe.sol\":1131:1152  addressToAmountFunded */\n      0x02\n        /* \"contracts/FundMe.sol\":1131:1160  addressToAmountFunded[funder] */\n      0x00\n        /* \"contracts/FundMe.sol\":1153:1159  funder */\n      dup4\n        /* \"contracts/FundMe.sol\":1131:1160  addressToAmountFunded[funder] */\n      0xffffffffffffffffffffffffffffffffffffffff\n      and\n      0xffffffffffffffffffffffffffffffffffffffff\n      and\n      dup2\n      mstore\n      0x20\n      add\n      swap1\n      dup2\n      mstore\n      0x20\n      add\n      0x00\n      keccak256\n        /* \"contracts/FundMe.sol\":1131:1164  addressToAmountFunded[funder] = 0 */\n      dup2\n      swap1\n      sstore\n      pop\n        /* \"contracts/FundMe.sol\":1062:1177  {... */\n      pop\n        /* \"contracts/FundMe.sol\":1048:1061  funderIndex++ */\n      dup1\n      dup1\n      tag_38\n      swap1\n      tag_39\n      jump\t// in\n    tag_38:\n      swap2\n      pop\n      pop\n        /* \"contracts/FundMe.sol\":989:1177  for(uint256 funderIndex = 0; funderIndex < funders.length; funderIndex++){... */\n      jump(tag_31)\n    tag_32:\n      pop\n        /* \"contracts/FundMe.sol\":950:1185  function withdraw() public {... */\n      jump\t// out\n        /* \"contracts/FundMe.sol\":321:377  mapping(address => uint256) public addressToAmountFunded */\n    tag_19:\n      mstore(0x20, 0x02)\n      dup1\n      0x00\n      mstore\n      keccak256(0x00, 0x40)\n      0x00\n      swap2\n      pop\n      swap1\n      pop\n      sload\n      dup2\n      jump\t// out\n        /* \"contracts/FundMe.sol\":386:939  function fund() public payable { // in order to send smth with a function you need payable... */\n    tag_22:\n        /* \"contracts/FundMe.sol\":655:665  minimumUsd */\n      sload(0x00)\n        /* \"contracts/FundMe.sol\":622:651  msg.value.getConversionRate() */\n      tag_41\n        /* \"contracts/FundMe.sol\":622:631  msg.value */\n      callvalue\n        /* \"contracts/FundMe.sol\":622:649  msg.value.getConversionRate */\n      tag_42\n        /* \"contracts/FundMe.sol\":622:651  msg.value.getConversionRate() */\n      jump\t// in\n    tag_41:\n        /* \"contracts/FundMe.sol\":622:665  msg.value.getConversionRate() >= minimumUsd */\n      lt\n      iszero\n        /* \"contracts/FundMe.sol\":614:689  require(msg.value.getConversionRate() >= minimumUsd, \"Didn't send enough!\") */\n      tag_43\n      jumpi\n      mload(0x40)\n      0x08c379a000000000000000000000000000000000000000000000000000000000\n      dup2\n      mstore\n      0x04\n      add\n      tag_44\n      swap1\n      tag_45\n      jump\t// in\n    tag_44:\n      mload(0x40)\n      dup1\n      swap2\n      sub\n      swap1\n      revert\n    tag_43:\n        /* \"contracts/FundMe.sol\":851:858  funders */\n      0x01\n        /* \"contracts/FundMe.sol\":864:874  msg.sender */\n      caller\n        /* \"contracts/FundMe.sol\":851:875  funders.push(msg.sender) */\n      swap1\n      dup1\n      0x01\n      dup2\n      sload\n      add\n      dup1\n      dup3\n      sstore\n      dup1\n      swap2\n      pop\n      pop\n      0x01\n      swap1\n      sub\n      swap1\n      0x00\n      mstore\n      keccak256(0x00, 0x20)\n      add\n      0x00\n      swap1\n      swap2\n      swap1\n      swap2\n      swap1\n      swap2\n      0x0100\n      exp\n      dup2\n      sload\n      dup2\n      0xffffffffffffffffffffffffffffffffffffffff\n      mul\n      not\n      and\n      swap1\n      dup4\n      0xffffffffffffffffffffffffffffffffffffffff\n      and\n      mul\n      or\n      swap1\n      sstore\n      pop\n        /* \"contracts/FundMe.sol\":922:931  msg.value */\n      callvalue\n        /* \"contracts/FundMe.sol\":886:907  addressToAmountFunded */\n      0x02\n        /* \"contracts/FundMe.sol\":886:919  addressToAmountFunded[msg.sender] */\n      0x00\n        /* \"contracts/FundMe.sol\":908:918  msg.sender */\n      caller\n        /* \"contracts/FundMe.sol\":886:919  addressToAmountFunded[msg.sender] */\n      0xffffffffffffffffffffffffffffffffffffffff\n      and\n      0xffffffffffffffffffffffffffffffffffffffff\n      and\n      dup2\n      mstore\n      0x20\n      add\n      swap1\n      dup2\n      mstore\n      0x20\n      add\n      0x00\n      keccak256\n        /* \"contracts/FundMe.sol\":886:931  addressToAmountFunded[msg.sender] = msg.value */\n      dup2\n      swap1\n      sstore\n      pop\n        /* \"contracts/FundMe.sol\":386:939  function fund() public payable { // in order to send smth with a function you need payable... */\n      jump\t// out\n        /* \"contracts/FundMe.sol\":290:314  address[] public funders */\n    tag_27:\n      0x01\n      dup2\n      dup2\n      sload\n      dup2\n      lt\n      tag_47\n      jumpi\n      0x00\n      dup1\n      revert\n    tag_47:\n      swap1\n      0x00\n      mstore\n      keccak256(0x00, 0x20)\n      add\n      0x00\n      swap2\n      pop\n      sload\n      swap1\n      0x0100\n      exp\n      swap1\n      div\n      0xffffffffffffffffffffffffffffffffffffffff\n      and\n      dup2\n      jump\t// out\n        /* \"contracts/PriceConverter.sol\":847:1175  function getConversionRate(uint256 ethAmount) internal view returns (uint256) {... */\n    tag_42:\n        /* \"contracts/PriceConverter.sol\":916:923  uint256 */\n      0x00\n        /* \"contracts/PriceConverter.sol\":936:952  uint256 ethPrice */\n      dup1\n        /* \"contracts/PriceConverter.sol\":955:965  getPrice() */\n      tag_50\n        /* \"contracts/PriceConverter.sol\":955:963  getPrice */\n      tag_51\n        /* \"contracts/PriceConverter.sol\":955:965  getPrice() */\n      jump\t// in\n    tag_50:\n        /* \"contracts/PriceConverter.sol\":936:965  uint256 ethPrice = getPrice() */\n      swap1\n      pop\n        /* \"contracts/PriceConverter.sol\":1063:1085  uint256 ethAmountInUsd */\n      0x00\n        /* \"contracts/PriceConverter.sol\":1113:1117  1e18 */\n      0x0de0b6b3a7640000\n        /* \"contracts/PriceConverter.sol\":1100:1109  ethAmount */\n      dup5\n        /* \"contracts/PriceConverter.sol\":1089:1097  ethPrice */\n      dup4\n        /* \"contracts/PriceConverter.sol\":1089:1109  ethPrice * ethAmount */\n      tag_52\n      swap2\n      swap1\n      tag_53\n      jump\t// in\n    tag_52:\n        /* \"contracts/PriceConverter.sol\":1088:1117  (ethPrice * ethAmount) / 1e18 */\n      tag_54\n      swap2\n      swap1\n      tag_55\n      jump\t// in\n    tag_54:\n        /* \"contracts/PriceConverter.sol\":1063:1117  uint256 ethAmountInUsd = (ethPrice * ethAmount) / 1e18 */\n      swap1\n      pop\n        /* \"contracts/PriceConverter.sol\":1152:1166  ethAmountInUsd */\n      dup1\n        /* \"contracts/PriceConverter.sol\":1145:1166  return ethAmountInUsd */\n      swap3\n      pop\n      pop\n      pop\n        /* \"contracts/PriceConverter.sol\":847:1175  function getConversionRate(uint256 ethAmount) internal view returns (uint256) {... */\n      swap2\n      swap1\n      pop\n      jump\t// out\n        /* \"contracts/PriceConverter.sol\":214:622  function getPrice() internal view returns(uint256) {... */\n    tag_51:\n        /* \"contracts/PriceConverter.sol\":256:263  uint256 */\n      0x00\n        /* \"contracts/PriceConverter.sol\":355:386  AggregatorV3Interface priceFeed */\n      dup1\n        /* \"contracts/PriceConverter.sol\":411:453  0xD4a33860578De61DBAbDc8BFdb98FD742fA7028e */\n      0xd4a33860578de61dbabdc8bfdb98fd742fa7028e\n        /* \"contracts/PriceConverter.sol\":355:454  AggregatorV3Interface priceFeed = AggregatorV3Interface(0xD4a33860578De61DBAbDc8BFdb98FD742fA7028e) */\n      swap1\n      pop\n        /* \"contracts/PriceConverter.sol\":468:480  int256 price */\n      0x00\n        /* \"contracts/PriceConverter.sol\":490:499  priceFeed */\n      dup2\n        /* \"contracts/PriceConverter.sol\":490:515  priceFeed.latestRoundData */\n      0xffffffffffffffffffffffffffffffffffffffff\n      and\n      0xfeaf968c\n        /* \"contracts/PriceConverter.sol\":490:517  priceFeed.latestRoundData() */\n      mload(0x40)\n      dup2\n      0xffffffff\n      and\n      0xe0\n      shl\n      dup2\n      mstore\n      0x04\n      add\n      0xa0\n      mload(0x40)\n      dup1\n      dup4\n      sub\n      dup2\n      dup7\n      dup1\n      extcodesize\n      iszero\n      dup1\n      iszero\n      tag_57\n      jumpi\n      0x00\n      dup1\n      revert\n    tag_57:\n      pop\n      gas\n      staticcall\n      iszero\n      dup1\n      iszero\n      tag_59\n      jumpi\n      returndatasize\n      0x00\n      dup1\n      returndatacopy\n      revert(0x00, returndatasize)\n    tag_59:\n      pop\n      pop\n      pop\n      pop\n      mload(0x40)\n      returndatasize\n      not(0x1f)\n      0x1f\n      dup3\n      add\n      and\n      dup3\n      add\n      dup1\n      0x40\n      mstore\n      pop\n      dup2\n      add\n      swap1\n      tag_60\n      swap2\n      swap1\n      tag_61\n      jump\t// in\n    tag_60:\n        /* \"contracts/PriceConverter.sol\":465:517  (, int256 price, , , ) = priceFeed.latestRoundData() */\n      pop\n      pop\n      pop\n      swap2\n      pop\n      pop\n        /* \"contracts/PriceConverter.sol\":609:613  1e10 */\n      0x02540be400\n        /* \"contracts/PriceConverter.sol\":601:606  price */\n      dup2\n        /* \"contracts/PriceConverter.sol\":601:613  price * 1e10 */\n      tag_62\n      swap2\n      swap1\n      tag_63\n      jump\t// in\n    tag_62:\n        /* \"contracts/PriceConverter.sol\":586:614  return uint256(price * 1e10) */\n      swap3\n      pop\n      pop\n      pop\n        /* \"contracts/PriceConverter.sol\":214:622  function getPrice() internal view returns(uint256) {... */\n      swap1\n      jump\t// out\n        /* \"#utility.yul\":7:84   */\n    tag_64:\n        /* \"#utility.yul\":44:51   */\n      0x00\n        /* \"#utility.yul\":73:78   */\n      dup2\n        /* \"#utility.yul\":62:78   */\n      swap1\n      pop\n        /* \"#utility.yul\":7:84   */\n      swap2\n      swap1\n      pop\n      jump\t// out\n        /* \"#utility.yul\":90:208   */\n    tag_65:\n        /* \"#utility.yul\":177:201   */\n      tag_91\n        /* \"#utility.yul\":195:200   */\n      dup2\n        /* \"#utility.yul\":177:201   */\n      tag_64\n      jump\t// in\n    tag_91:\n        /* \"#utility.yul\":172:175   */\n      dup3\n        /* \"#utility.yul\":165:202   */\n      mstore\n        /* \"#utility.yul\":90:208   */\n      pop\n      pop\n      jump\t// out\n        /* \"#utility.yul\":214:436   */\n    tag_11:\n        /* \"#utility.yul\":307:311   */\n      0x00\n        /* \"#utility.yul\":345:347   */\n      0x20\n        /* \"#utility.yul\":334:343   */\n      dup3\n        /* \"#utility.yul\":330:348   */\n      add\n        /* \"#utility.yul\":322:348   */\n      swap1\n      pop\n        /* \"#utility.yul\":358:429   */\n      tag_93\n        /* \"#utility.yul\":426:427   */\n      0x00\n        /* \"#utility.yul\":415:424   */\n      dup4\n        /* \"#utility.yul\":411:428   */\n      add\n        /* \"#utility.yul\":402:408   */\n      dup5\n        /* \"#utility.yul\":358:429   */\n      tag_65\n      jump\t// in\n    tag_93:\n        /* \"#utility.yul\":214:436   */\n      swap3\n      swap2\n      pop\n      pop\n      jump\t// out\n        /* \"#utility.yul\":523:640   */\n    tag_67:\n        /* \"#utility.yul\":632:633   */\n      0x00\n        /* \"#utility.yul\":629:630   */\n      dup1\n        /* \"#utility.yul\":622:634   */\n      revert\n        /* \"#utility.yul\":769:895   */\n    tag_69:\n        /* \"#utility.yul\":806:813   */\n      0x00\n        /* \"#utility.yul\":846:888   */\n      0xffffffffffffffffffffffffffffffffffffffff\n        /* \"#utility.yul\":839:844   */\n      dup3\n        /* \"#utility.yul\":835:889   */\n      and\n        /* \"#utility.yul\":824:889   */\n      swap1\n      pop\n        /* \"#utility.yul\":769:895   */\n      swap2\n      swap1\n      pop\n      jump\t// out\n        /* \"#utility.yul\":901:997   */\n    tag_70:\n        /* \"#utility.yul\":938:945   */\n      0x00\n        /* \"#utility.yul\":967:991   */\n      tag_99\n        /* \"#utility.yul\":985:990   */\n      dup3\n        /* \"#utility.yul\":967:991   */\n      tag_69\n      jump\t// in\n    tag_99:\n        /* \"#utility.yul\":956:991   */\n      swap1\n      pop\n        /* \"#utility.yul\":901:997   */\n      swap2\n      swap1\n      pop\n      jump\t// out\n        /* \"#utility.yul\":1003:1125   */\n    tag_71:\n        /* \"#utility.yul\":1076:1100   */\n      tag_101\n        /* \"#utility.yul\":1094:1099   */\n      dup2\n        /* \"#utility.yul\":1076:1100   */\n      tag_70\n      jump\t// in\n    tag_101:\n        /* \"#utility.yul\":1069:1074   */\n      dup2\n        /* \"#utility.yul\":1066:1101   */\n      eq\n        /* \"#utility.yul\":1056:1119   */\n      tag_102\n      jumpi\n        /* \"#utility.yul\":1115:1116   */\n      0x00\n        /* \"#utility.yul\":1112:1113   */\n      dup1\n        /* \"#utility.yul\":1105:1117   */\n      revert\n        /* \"#utility.yul\":1056:1119   */\n    tag_102:\n        /* \"#utility.yul\":1003:1125   */\n      pop\n      jump\t// out\n        /* \"#utility.yul\":1131:1270   */\n    tag_72:\n        /* \"#utility.yul\":1177:1182   */\n      0x00\n        /* \"#utility.yul\":1215:1221   */\n      dup2\n        /* \"#utility.yul\":1202:1222   */\n      calldataload\n        /* \"#utility.yul\":1193:1222   */\n      swap1\n      pop\n        /* \"#utility.yul\":1231:1264   */\n      tag_104\n        /* \"#utility.yul\":1258:1263   */\n      dup2\n        /* \"#utility.yul\":1231:1264   */\n      tag_71\n      jump\t// in\n    tag_104:\n        /* \"#utility.yul\":1131:1270   */\n      swap3\n      swap2\n      pop\n      pop\n      jump\t// out\n        /* \"#utility.yul\":1276:1605   */\n    tag_18:\n        /* \"#utility.yul\":1335:1341   */\n      0x00\n        /* \"#utility.yul\":1384:1386   */\n      0x20\n        /* \"#utility.yul\":1372:1381   */\n      dup3\n        /* \"#utility.yul\":1363:1370   */\n      dup5\n        /* \"#utility.yul\":1359:1382   */\n      sub\n        /* \"#utility.yul\":1355:1387   */\n      slt\n        /* \"#utility.yul\":1352:1471   */\n      iszero\n      tag_106\n      jumpi\n        /* \"#utility.yul\":1390:1469   */\n      tag_107\n      tag_67\n      jump\t// in\n    tag_107:\n        /* \"#utility.yul\":1352:1471   */\n    tag_106:\n        /* \"#utility.yul\":1510:1511   */\n      0x00\n        /* \"#utility.yul\":1535:1588   */\n      tag_108\n        /* \"#utility.yul\":1580:1587   */\n      dup5\n        /* \"#utility.yul\":1571:1577   */\n      dup3\n        /* \"#utility.yul\":1560:1569   */\n      dup6\n        /* \"#utility.yul\":1556:1578   */\n      add\n        /* \"#utility.yul\":1535:1588   */\n      tag_72\n      jump\t// in\n    tag_108:\n        /* \"#utility.yul\":1525:1588   */\n      swap2\n      pop\n        /* \"#utility.yul\":1481:1598   */\n      pop\n        /* \"#utility.yul\":1276:1605   */\n      swap3\n      swap2\n      pop\n      pop\n      jump\t// out\n        /* \"#utility.yul\":1611:1733   */\n    tag_73:\n        /* \"#utility.yul\":1684:1708   */\n      tag_110\n        /* \"#utility.yul\":1702:1707   */\n      dup2\n        /* \"#utility.yul\":1684:1708   */\n      tag_64\n      jump\t// in\n    tag_110:\n        /* \"#utility.yul\":1677:1682   */\n      dup2\n        /* \"#utility.yul\":1674:1709   */\n      eq\n        /* \"#utility.yul\":1664:1727   */\n      tag_111\n      jumpi\n        /* \"#utility.yul\":1723:1724   */\n      0x00\n        /* \"#utility.yul\":1720:1721   */\n      dup1\n        /* \"#utility.yul\":1713:1725   */\n      revert\n        /* \"#utility.yul\":1664:1727   */\n    tag_111:\n        /* \"#utility.yul\":1611:1733   */\n      pop\n      jump\t// out\n        /* \"#utility.yul\":1739:1878   */\n    tag_74:\n        /* \"#utility.yul\":1785:1790   */\n      0x00\n        /* \"#utility.yul\":1823:1829   */\n      dup2\n        /* \"#utility.yul\":1810:1830   */\n      calldataload\n        /* \"#utility.yul\":1801:1830   */\n      swap1\n      pop\n        /* \"#utility.yul\":1839:1872   */\n      tag_113\n        /* \"#utility.yul\":1866:1871   */\n      dup2\n        /* \"#utility.yul\":1839:1872   */\n      tag_73\n      jump\t// in\n    tag_113:\n        /* \"#utility.yul\":1739:1878   */\n      swap3\n      swap2\n      pop\n      pop\n      jump\t// out\n        /* \"#utility.yul\":1884:2213   */\n    tag_26:\n        /* \"#utility.yul\":1943:1949   */\n      0x00\n        /* \"#utility.yul\":1992:1994   */\n      0x20\n        /* \"#utility.yul\":1980:1989   */\n      dup3\n        /* \"#utility.yul\":1971:1978   */\n      dup5\n        /* \"#utility.yul\":1967:1990   */\n      sub\n        /* \"#utility.yul\":1963:1995   */\n      slt\n        /* \"#utility.yul\":1960:2079   */\n      iszero\n      tag_115\n      jumpi\n        /* \"#utility.yul\":1998:2077   */\n      tag_116\n      tag_67\n      jump\t// in\n    tag_116:\n        /* \"#utility.yul\":1960:2079   */\n    tag_115:\n        /* \"#utility.yul\":2118:2119   */\n      0x00\n        /* \"#utility.yul\":2143:2196   */\n      tag_117\n        /* \"#utility.yul\":2188:2195   */\n      dup5\n        /* \"#utility.yul\":2179:2185   */\n      dup3\n        /* \"#utility.yul\":2168:2177   */\n      dup6\n        /* \"#utility.yul\":2164:2186   */\n      add\n        /* \"#utility.yul\":2143:2196   */\n      tag_74\n      jump\t// in\n    tag_117:\n        /* \"#utility.yul\":2133:2196   */\n      swap2\n      pop\n        /* \"#utility.yul\":2089:2206   */\n      pop\n        /* \"#utility.yul\":1884:2213   */\n      swap3\n      swap2\n      pop\n      pop\n      jump\t// out\n        /* \"#utility.yul\":2219:2337   */\n    tag_75:\n        /* \"#utility.yul\":2306:2330   */\n      tag_119\n        /* \"#utility.yul\":2324:2329   */\n      dup2\n        /* \"#utility.yul\":2306:2330   */\n      tag_70\n      jump\t// in\n    tag_119:\n        /* \"#utility.yul\":2301:2304   */\n      dup3\n        /* \"#utility.yul\":2294:2331   */\n      mstore\n        /* \"#utility.yul\":2219:2337   */\n      pop\n      pop\n      jump\t// out\n        /* \"#utility.yul\":2343:2565   */\n    tag_29:\n        /* \"#utility.yul\":2436:2440   */\n      0x00\n        /* \"#utility.yul\":2474:2476   */\n      0x20\n        /* \"#utility.yul\":2463:2472   */\n      dup3\n        /* \"#utility.yul\":2459:2477   */\n      add\n        /* \"#utility.yul\":2451:2477   */\n      swap1\n      pop\n        /* \"#utility.yul\":2487:2558   */\n      tag_121\n        /* \"#utility.yul\":2555:2556   */\n      0x00\n        /* \"#utility.yul\":2544:2553   */\n      dup4\n        /* \"#utility.yul\":2540:2557   */\n      add\n        /* \"#utility.yul\":2531:2537   */\n      dup5\n        /* \"#utility.yul\":2487:2558   */\n      tag_75\n      jump\t// in\n    tag_121:\n        /* \"#utility.yul\":2343:2565   */\n      swap3\n      swap2\n      pop\n      pop\n      jump\t// out\n        /* \"#utility.yul\":2571:2751   */\n    tag_36:\n        /* \"#utility.yul\":2619:2696   */\n      0x4e487b7100000000000000000000000000000000000000000000000000000000\n        /* \"#utility.yul\":2616:2617   */\n      0x00\n        /* \"#utility.yul\":2609:2697   */\n      mstore\n        /* \"#utility.yul\":2716:2720   */\n      0x32\n        /* \"#utility.yul\":2713:2714   */\n      0x04\n        /* \"#utility.yul\":2706:2721   */\n      mstore\n        /* \"#utility.yul\":2740:2744   */\n      0x24\n        /* \"#utility.yul\":2737:2738   */\n      0x00\n        /* \"#utility.yul\":2730:2745   */\n      revert\n        /* \"#utility.yul\":2757:2937   */\n    tag_76:\n        /* \"#utility.yul\":2805:2882   */\n      0x4e487b7100000000000000000000000000000000000000000000000000000000\n        /* \"#utility.yul\":2802:2803   */\n      0x00\n        /* \"#utility.yul\":2795:2883   */\n      mstore\n        /* \"#utility.yul\":2902:2906   */\n      0x11\n        /* \"#utility.yul\":2899:2900   */\n      0x04\n        /* \"#utility.yul\":2892:2907   */\n      mstore\n        /* \"#utility.yul\":2926:2930   */\n      0x24\n        /* \"#utility.yul\":2923:2924   */\n      0x00\n        /* \"#utility.yul\":2916:2931   */\n      revert\n        /* \"#utility.yul\":2943:3176   */\n    tag_39:\n        /* \"#utility.yul\":2982:2985   */\n      0x00\n        /* \"#utility.yul\":3005:3029   */\n      tag_125\n        /* \"#utility.yul\":3023:3028   */\n      dup3\n        /* \"#utility.yul\":3005:3029   */\n      tag_64\n      jump\t// in\n    tag_125:\n        /* \"#utility.yul\":2996:3029   */\n      swap2\n      pop\n        /* \"#utility.yul\":3051:3117   */\n      0xffffffffffffffffffffffffffffffffffffffffffffffffffffffffffffffff\n        /* \"#utility.yul\":3044:3049   */\n      dup3\n        /* \"#utility.yul\":3041:3118   */\n      eq\n        /* \"#utility.yul\":3038:3141   */\n      iszero\n      tag_126\n      jumpi\n        /* \"#utility.yul\":3121:3139   */\n      tag_127\n      tag_76\n      jump\t// in\n    tag_127:\n        /* \"#utility.yul\":3038:3141   */\n    tag_126:\n        /* \"#utility.yul\":3168:3169   */\n      0x01\n        /* \"#utility.yul\":3161:3166   */\n      dup3\n        /* \"#utility.yul\":3157:3170   */\n      add\n        /* \"#utility.yul\":3150:3170   */\n      swap1\n      pop\n        /* \"#utility.yul\":2943:3176   */\n      swap2\n      swap1\n      pop\n      jump\t// out\n        /* \"#utility.yul\":3182:3351   */\n    tag_77:\n        /* \"#utility.yul\":3266:3277   */\n      0x00\n        /* \"#utility.yul\":3300:3306   */\n      dup3\n        /* \"#utility.yul\":3295:3298   */\n      dup3\n        /* \"#utility.yul\":3288:3307   */\n      mstore\n        /* \"#utility.yul\":3340:3344   */\n      0x20\n        /* \"#utility.yul\":3335:3338   */\n      dup3\n        /* \"#utility.yul\":3331:3345   */\n      add\n        /* \"#utility.yul\":3316:3345   */\n      swap1\n      pop\n        /* \"#utility.yul\":3182:3351   */\n      swap3\n      swap2\n      pop\n      pop\n      jump\t// out\n        /* \"#utility.yul\":3357:3526   */\n    tag_78:\n        /* \"#utility.yul\":3497:3518   */\n      0x4469646e27742073656e6420656e6f7567682100000000000000000000000000\n        /* \"#utility.yul\":3493:3494   */\n      0x00\n        /* \"#utility.yul\":3485:3491   */\n      dup3\n        /* \"#utility.yul\":3481:3495   */\n      add\n        /* \"#utility.yul\":3474:3519   */\n      mstore\n        /* \"#utility.yul\":3357:3526   */\n      pop\n      jump\t// out\n        /* \"#utility.yul\":3532:3898   */\n    tag_79:\n        /* \"#utility.yul\":3674:3677   */\n      0x00\n        /* \"#utility.yul\":3695:3762   */\n      tag_131\n        /* \"#utility.yul\":3759:3761   */\n      0x13\n        /* \"#utility.yul\":3754:3757   */\n      dup4\n        /* \"#utility.yul\":3695:3762   */\n      tag_77\n      jump\t// in\n    tag_131:\n        /* \"#utility.yul\":3688:3762   */\n      swap2\n      pop\n        /* \"#utility.yul\":3771:3864   */\n      tag_132\n        /* \"#utility.yul\":3860:3863   */\n      dup3\n        /* \"#utility.yul\":3771:3864   */\n      tag_78\n      jump\t// in\n    tag_132:\n        /* \"#utility.yul\":3889:3891   */\n      0x20\n        /* \"#utility.yul\":3884:3887   */\n      dup3\n        /* \"#utility.yul\":3880:3892   */\n      add\n        /* \"#utility.yul\":3873:3892   */\n      swap1\n      pop\n        /* \"#utility.yul\":3532:3898   */\n      swap2\n      swap1\n      pop\n      jump\t// out\n        /* \"#utility.yul\":3904:4323   */\n    tag_45:\n        /* \"#utility.yul\":4070:4074   */\n      0x00\n        /* \"#utility.yul\":4108:4110   */\n      0x20\n        /* \"#utility.yul\":4097:4106   */\n      dup3\n        /* \"#utility.yul\":4093:4111   */\n      add\n        /* \"#utility.yul\":4085:4111   */\n      swap1\n      pop\n        /* \"#utility.yul\":4157:4166   */\n      dup2\n        /* \"#utility.yul\":4151:4155   */\n      dup2\n        /* \"#utility.yul\":4147:4167   */\n      sub\n        /* \"#utility.yul\":4143:4144   */\n      0x00\n        /* \"#utility.yul\":4132:4141   */\n      dup4\n        /* \"#utility.yul\":4128:4145   */\n      add\n        /* \"#utility.yul\":4121:4168   */\n      mstore\n        /* \"#utility.yul\":4185:4316   */\n      tag_134\n        /* \"#utility.yul\":4311:4315   */\n      dup2\n        /* \"#utility.yul\":4185:4316   */\n      tag_79\n      jump\t// in\n    tag_134:\n        /* \"#utility.yul\":4177:4316   */\n      swap1\n      pop\n        /* \"#utility.yul\":3904:4323   */\n      swap2\n      swap1\n      pop\n      jump\t// out\n        /* \"#utility.yul\":4329:4677   */\n    tag_53:\n        /* \"#utility.yul\":4369:4376   */\n      0x00\n        /* \"#utility.yul\":4392:4412   */\n      tag_136\n        /* \"#utility.yul\":4410:4411   */\n      dup3\n        /* \"#utility.yul\":4392:4412   */\n      tag_64\n      jump\t// in\n    tag_136:\n        /* \"#utility.yul\":4387:4412   */\n      swap2\n      pop\n        /* \"#utility.yul\":4426:4446   */\n      tag_137\n        /* \"#utility.yul\":4444:4445   */\n      dup4\n        /* \"#utility.yul\":4426:4446   */\n      tag_64\n      jump\t// in\n    tag_137:\n        /* \"#utility.yul\":4421:4446   */\n      swap3\n      pop\n        /* \"#utility.yul\":4614:4615   */\n      dup2\n        /* \"#utility.yul\":4546:4612   */\n      0xffffffffffffffffffffffffffffffffffffffffffffffffffffffffffffffff\n        /* \"#utility.yul\":4542:4616   */\n      div\n        /* \"#utility.yul\":4539:4540   */\n      dup4\n        /* \"#utility.yul\":4536:4617   */\n      gt\n        /* \"#utility.yul\":4531:4532   */\n      dup3\n        /* \"#utility.yul\":4524:4533   */\n      iszero\n        /* \"#utility.yul\":4517:4534   */\n      iszero\n        /* \"#utility.yul\":4513:4618   */\n      and\n        /* \"#utility.yul\":4510:4641   */\n      iszero\n      tag_138\n      jumpi\n        /* \"#utility.yul\":4621:4639   */\n      tag_139\n      tag_76\n      jump\t// in\n    tag_139:\n        /* \"#utility.yul\":4510:4641   */\n    tag_138:\n        /* \"#utility.yul\":4669:4670   */\n      dup3\n        /* \"#utility.yul\":4666:4667   */\n      dup3\n        /* \"#utility.yul\":4662:4671   */\n      mul\n        /* \"#utility.yul\":4651:4671   */\n      swap1\n      pop\n        /* \"#utility.yul\":4329:4677   */\n      swap3\n      swap2\n      pop\n      pop\n      jump\t// out\n        /* \"#utility.yul\":4683:4863   */\n    tag_80:\n        /* \"#utility.yul\":4731:4808   */\n      0x4e487b7100000000000000000000000000000000000000000000000000000000\n        /* \"#utility.yul\":4728:4729   */\n      0x00\n        /* \"#utility.yul\":4721:4809   */\n      mstore\n        /* \"#utility.yul\":4828:4832   */\n      0x12\n        /* \"#utility.yul\":4825:4826   */\n      0x04\n        /* \"#utility.yul\":4818:4833   */\n      mstore\n        /* \"#utility.yul\":4852:4856   */\n      0x24\n        /* \"#utility.yul\":4849:4850   */\n      0x00\n        /* \"#utility.yul\":4842:4857   */\n      revert\n        /* \"#utility.yul\":4869:5054   */\n    tag_55:\n        /* \"#utility.yul\":4909:4910   */\n      0x00\n        /* \"#utility.yul\":4926:4946   */\n      tag_142\n        /* \"#utility.yul\":4944:4945   */\n      dup3\n        /* \"#utility.yul\":4926:4946   */\n      tag_64\n      jump\t// in\n    tag_142:\n        /* \"#utility.yul\":4921:4946   */\n      swap2\n      pop\n        /* \"#utility.yul\":4960:4980   */\n      tag_143\n        /* \"#utility.yul\":4978:4979   */\n      dup4\n        /* \"#utility.yul\":4960:4980   */\n      tag_64\n      jump\t// in\n    tag_143:\n        /* \"#utility.yul\":4955:4980   */\n      swap3\n      pop\n        /* \"#utility.yul\":4999:5000   */\n      dup3\n        /* \"#utility.yul\":4989:5024   */\n      tag_144\n      jumpi\n        /* \"#utility.yul\":5004:5022   */\n      tag_145\n      tag_80\n      jump\t// in\n    tag_145:\n        /* \"#utility.yul\":4989:5024   */\n    tag_144:\n        /* \"#utility.yul\":5046:5047   */\n      dup3\n        /* \"#utility.yul\":5043:5044   */\n      dup3\n        /* \"#utility.yul\":5039:5048   */\n      div\n        /* \"#utility.yul\":5034:5048   */\n      swap1\n      pop\n        /* \"#utility.yul\":4869:5054   */\n      swap3\n      swap2\n      pop\n      pop\n      jump\t// out\n        /* \"#utility.yul\":5060:5165   */\n    tag_81:\n        /* \"#utility.yul\":5096:5103   */\n      0x00\n        /* \"#utility.yul\":5136:5158   */\n      0xffffffffffffffffffff\n        /* \"#utility.yul\":5129:5134   */\n      dup3\n        /* \"#utility.yul\":5125:5159   */\n      and\n        /* \"#utility.yul\":5114:5159   */\n      swap1\n      pop\n        /* \"#utility.yul\":5060:5165   */\n      swap2\n      swap1\n      pop\n      jump\t// out\n        /* \"#utility.yul\":5171:5291   */\n    tag_82:\n        /* \"#utility.yul\":5243:5266   */\n      tag_148\n        /* \"#utility.yul\":5260:5265   */\n      dup2\n        /* \"#utility.yul\":5243:5266   */\n      tag_81\n      jump\t// in\n    tag_148:\n        /* \"#utility.yul\":5236:5241   */\n      dup2\n        /* \"#utility.yul\":5233:5267   */\n      eq\n        /* \"#utility.yul\":5223:5285   */\n      tag_149\n      jumpi\n        /* \"#utility.yul\":5281:5282   */\n      0x00\n        /* \"#utility.yul\":5278:5279   */\n      dup1\n        /* \"#utility.yul\":5271:5283   */\n      revert\n        /* \"#utility.yul\":5223:5285   */\n    tag_149:\n        /* \"#utility.yul\":5171:5291   */\n      pop\n      jump\t// out\n        /* \"#utility.yul\":5297:5438   */\n    tag_83:\n        /* \"#utility.yul\":5353:5358   */\n      0x00\n        /* \"#utility.yul\":5384:5390   */\n      dup2\n        /* \"#utility.yul\":5378:5391   */\n      mload\n        /* \"#utility.yul\":5369:5391   */\n      swap1\n      pop\n        /* \"#utility.yul\":5400:5432   */\n      tag_151\n        /* \"#utility.yul\":5426:5431   */\n      dup2\n        /* \"#utility.yul\":5400:5432   */\n      tag_82\n      jump\t// in\n    tag_151:\n        /* \"#utility.yul\":5297:5438   */\n      swap3\n      swap2\n      pop\n      pop\n      jump\t// out\n        /* \"#utility.yul\":5444:5520   */\n    tag_84:\n        /* \"#utility.yul\":5480:5487   */\n      0x00\n        /* \"#utility.yul\":5509:5514   */\n      dup2\n        /* \"#utility.yul\":5498:5514   */\n      swap1\n      pop\n        /* \"#utility.yul\":5444:5520   */\n      swap2\n      swap1\n      pop\n      jump\t// out\n        /* \"#utility.yul\":5526:5646   */\n    tag_85:\n        /* \"#utility.yul\":5598:5621   */\n      tag_154\n        /* \"#utility.yul\":5615:5620   */\n      dup2\n        /* \"#utility.yul\":5598:5621   */\n      tag_84\n      jump\t// in\n    tag_154:\n        /* \"#utility.yul\":5591:5596   */\n      dup2\n        /* \"#utility.yul\":5588:5622   */\n      eq\n        /* \"#utility.yul\":5578:5640   */\n      tag_155\n      jumpi\n        /* \"#utility.yul\":5636:5637   */\n      0x00\n        /* \"#utility.yul\":5633:5634   */\n      dup1\n        /* \"#utility.yul\":5626:5638   */\n      revert\n        /* \"#utility.yul\":5578:5640   */\n    tag_155:\n        /* \"#utility.yul\":5526:5646   */\n      pop\n      jump\t// out\n        /* \"#utility.yul\":5652:5793   */\n    tag_86:\n        /* \"#utility.yul\":5708:5713   */\n      0x00\n        /* \"#utility.yul\":5739:5745   */\n      dup2\n        /* \"#utility.yul\":5733:5746   */\n      mload\n        /* \"#utility.yul\":5724:5746   */\n      swap1\n      pop\n        /* \"#utility.yul\":5755:5787   */\n      tag_157\n        /* \"#utility.yul\":5781:5786   */\n      dup2\n        /* \"#utility.yul\":5755:5787   */\n      tag_85\n      jump\t// in\n    tag_157:\n        /* \"#utility.yul\":5652:5793   */\n      swap3\n      swap2\n      pop\n      pop\n      jump\t// out\n        /* \"#utility.yul\":5799:5942   */\n    tag_87:\n        /* \"#utility.yul\":5856:5861   */\n      0x00\n        /* \"#utility.yul\":5887:5893   */\n      dup2\n        /* \"#utility.yul\":5881:5894   */\n      mload\n        /* \"#utility.yul\":5872:5894   */\n      swap1\n      pop\n        /* \"#utility.yul\":5903:5936   */\n      tag_159\n        /* \"#utility.yul\":5930:5935   */\n      dup2\n        /* \"#utility.yul\":5903:5936   */\n      tag_73\n      jump\t// in\n    tag_159:\n        /* \"#utility.yul\":5799:5942   */\n      swap3\n      swap2\n      pop\n      pop\n      jump\t// out\n        /* \"#utility.yul\":5948:6919   */\n    tag_61:\n        /* \"#utility.yul\":6051:6057   */\n      0x00\n        /* \"#utility.yul\":6059:6065   */\n      dup1\n        /* \"#utility.yul\":6067:6073   */\n      0x00\n        /* \"#utility.yul\":6075:6081   */\n      dup1\n        /* \"#utility.yul\":6083:6089   */\n      0x00\n        /* \"#utility.yul\":6132:6135   */\n      0xa0\n        /* \"#utility.yul\":6120:6129   */\n      dup7\n        /* \"#utility.yul\":6111:6118   */\n      dup9\n        /* \"#utility.yul\":6107:6130   */\n      sub\n        /* \"#utility.yul\":6103:6136   */\n      slt\n        /* \"#utility.yul\":6100:6220   */\n      iszero\n      tag_161\n      jumpi\n        /* \"#utility.yul\":6139:6218   */\n      tag_162\n      tag_67\n      jump\t// in\n    tag_162:\n        /* \"#utility.yul\":6100:6220   */\n    tag_161:\n        /* \"#utility.yul\":6259:6260   */\n      0x00\n        /* \"#utility.yul\":6284:6347   */\n      tag_163\n        /* \"#utility.yul\":6339:6346   */\n      dup9\n        /* \"#utility.yul\":6330:6336   */\n      dup3\n        /* \"#utility.yul\":6319:6328   */\n      dup10\n        /* \"#utility.yul\":6315:6337   */\n      add\n        /* \"#utility.yul\":6284:6347   */\n      tag_83\n      jump\t// in\n    tag_163:\n        /* \"#utility.yul\":6274:6347   */\n      swap6\n      pop\n        /* \"#utility.yul\":6230:6357   */\n      pop\n        /* \"#utility.yul\":6396:6398   */\n      0x20\n        /* \"#utility.yul\":6422:6485   */\n      tag_164\n        /* \"#utility.yul\":6477:6484   */\n      dup9\n        /* \"#utility.yul\":6468:6474   */\n      dup3\n        /* \"#utility.yul\":6457:6466   */\n      dup10\n        /* \"#utility.yul\":6453:6475   */\n      add\n        /* \"#utility.yul\":6422:6485   */\n      tag_86\n      jump\t// in\n    tag_164:\n        /* \"#utility.yul\":6412:6485   */\n      swap5\n      pop\n        /* \"#utility.yul\":6367:6495   */\n      pop\n        /* \"#utility.yul\":6534:6536   */\n      0x40\n        /* \"#utility.yul\":6560:6624   */\n      tag_165\n        /* \"#utility.yul\":6616:6623   */\n      dup9\n        /* \"#utility.yul\":6607:6613   */\n      dup3\n        /* \"#utility.yul\":6596:6605   */\n      dup10\n        /* \"#utility.yul\":6592:6614   */\n      add\n        /* \"#utility.yul\":6560:6624   */\n      tag_87\n      jump\t// in\n    tag_165:\n        /* \"#utility.yul\":6550:6624   */\n      swap4\n      pop\n        /* \"#utility.yul\":6505:6634   */\n      pop\n        /* \"#utility.yul\":6673:6675   */\n      0x60\n        /* \"#utility.yul\":6699:6763   */\n      tag_166\n        /* \"#utility.yul\":6755:6762   */\n      dup9\n        /* \"#utility.yul\":6746:6752   */\n      dup3\n        /* \"#utility.yul\":6735:6744   */\n      dup10\n        /* \"#utility.yul\":6731:6753   */\n      add\n        /* \"#utility.yul\":6699:6763   */\n      tag_87\n      jump\t// in\n    tag_166:\n        /* \"#utility.yul\":6689:6763   */\n      swap3\n      pop\n        /* \"#utility.yul\":6644:6773   */\n      pop\n        /* \"#utility.yul\":6812:6815   */\n      0x80\n        /* \"#utility.yul\":6839:6902   */\n      tag_167\n        /* \"#utility.yul\":6894:6901   */\n      dup9\n        /* \"#utility.yul\":6885:6891   */\n      dup3\n        /* \"#utility.yul\":6874:6883   */\n      dup10\n        /* \"#utility.yul\":6870:6892   */\n      add\n        /* \"#utility.yul\":6839:6902   */\n      tag_83\n      jump\t// in\n    tag_167:\n        /* \"#utility.yul\":6829:6902   */\n      swap2\n      pop\n        /* \"#utility.yul\":6783:6912   */\n      pop\n        /* \"#utility.yul\":5948:6919   */\n      swap3\n      swap6\n      pop\n      swap3\n      swap6\n      swap1\n      swap4\n      pop\n      jump\t// out\n        /* \"#utility.yul\":6925:7916   */\n    tag_63:\n        /* \"#utility.yul\":6964:6971   */\n      0x00\n        /* \"#utility.yul\":6987:7006   */\n      tag_169\n        /* \"#utility.yul\":7004:7005   */\n      dup3\n        /* \"#utility.yul\":6987:7006   */\n      tag_84\n      jump\t// in\n    tag_169:\n        /* \"#utility.yul\":6982:7006   */\n      swap2\n      pop\n        /* \"#utility.yul\":7020:7039   */\n      tag_170\n        /* \"#utility.yul\":7037:7038   */\n      dup4\n        /* \"#utility.yul\":7020:7039   */\n      tag_84\n      jump\t// in\n    tag_170:\n        /* \"#utility.yul\":7015:7039   */\n      swap3\n      pop\n        /* \"#utility.yul\":7221:7222   */\n      dup3\n        /* \"#utility.yul\":7153:7219   */\n      0x7fffffffffffffffffffffffffffffffffffffffffffffffffffffffffffffff\n        /* \"#utility.yul\":7149:7223   */\n      div\n        /* \"#utility.yul\":7146:7147   */\n      dup3\n        /* \"#utility.yul\":7143:7224   */\n      gt\n        /* \"#utility.yul\":7138:7139   */\n      0x00\n        /* \"#utility.yul\":7135:7136   */\n      dup5\n        /* \"#utility.yul\":7131:7140   */\n      sgt\n        /* \"#utility.yul\":7127:7128   */\n      0x00\n        /* \"#utility.yul\":7124:7125   */\n      dup5\n        /* \"#utility.yul\":7120:7129   */\n      sgt\n        /* \"#utility.yul\":7116:7141   */\n      and\n        /* \"#utility.yul\":7112:7225   */\n      and\n        /* \"#utility.yul\":7109:7248   */\n      iszero\n      tag_171\n      jumpi\n        /* \"#utility.yul\":7228:7246   */\n      tag_172\n      tag_76\n      jump\t// in\n    tag_172:\n        /* \"#utility.yul\":7109:7248   */\n    tag_171:\n        /* \"#utility.yul\":7432:7433   */\n      dup2\n        /* \"#utility.yul\":7364:7430   */\n      0x8000000000000000000000000000000000000000000000000000000000000000\n        /* \"#utility.yul\":7359:7434   */\n      sdiv\n        /* \"#utility.yul\":7356:7357   */\n      dup4\n        /* \"#utility.yul\":7352:7435   */\n      slt\n        /* \"#utility.yul\":7347:7348   */\n      0x00\n        /* \"#utility.yul\":7344:7345   */\n      dup5\n        /* \"#utility.yul\":7340:7349   */\n      slt\n        /* \"#utility.yul\":7336:7337   */\n      0x00\n        /* \"#utility.yul\":7333:7334   */\n      dup5\n        /* \"#utility.yul\":7329:7338   */\n      sgt\n        /* \"#utility.yul\":7325:7350   */\n      and\n        /* \"#utility.yul\":7321:7436   */\n      and\n        /* \"#utility.yul\":7318:7459   */\n      iszero\n      tag_173\n      jumpi\n        /* \"#utility.yul\":7439:7457   */\n      tag_174\n      tag_76\n      jump\t// in\n    tag_174:\n        /* \"#utility.yul\":7318:7459   */\n    tag_173:\n        /* \"#utility.yul\":7643:7644   */\n      dup3\n        /* \"#utility.yul\":7575:7641   */\n      0x8000000000000000000000000000000000000000000000000000000000000000\n        /* \"#utility.yul\":7570:7645   */\n      sdiv\n        /* \"#utility.yul\":7567:7568   */\n      dup3\n        /* \"#utility.yul\":7563:7646   */\n      slt\n        /* \"#utility.yul\":7558:7559   */\n      0x00\n        /* \"#utility.yul\":7555:7556   */\n      dup5\n        /* \"#utility.yul\":7551:7560   */\n      sgt\n        /* \"#utility.yul\":7547:7548   */\n      0x00\n        /* \"#utility.yul\":7544:7545   */\n      dup5\n        /* \"#utility.yul\":7540:7549   */\n      slt\n        /* \"#utility.yul\":7536:7561   */\n      and\n        /* \"#utility.yul\":7532:7647   */\n      and\n        /* \"#utility.yul\":7529:7670   */\n      iszero\n      tag_175\n      jumpi\n        /* \"#utility.yul\":7650:7668   */\n      tag_176\n      tag_76\n      jump\t// in\n    tag_176:\n        /* \"#utility.yul\":7529:7670   */\n    tag_175:\n        /* \"#utility.yul\":7853:7854   */\n      dup3\n        /* \"#utility.yul\":7785:7851   */\n      0x7fffffffffffffffffffffffffffffffffffffffffffffffffffffffffffffff\n        /* \"#utility.yul\":7780:7855   */\n      sdiv\n        /* \"#utility.yul\":7777:7778   */\n      dup3\n        /* \"#utility.yul\":7773:7856   */\n      slt\n        /* \"#utility.yul\":7768:7769   */\n      0x00\n        /* \"#utility.yul\":7765:7766   */\n      dup5\n        /* \"#utility.yul\":7761:7770   */\n      slt\n        /* \"#utility.yul\":7757:7758   */\n      0x00\n        /* \"#utility.yul\":7754:7755   */\n      dup5\n        /* \"#utility.yul\":7750:7759   */\n      slt\n        /* \"#utility.yul\":7746:7771   */\n      and\n        /* \"#utility.yul\":7742:7857   */\n      and\n        /* \"#utility.yul\":7739:7880   */\n      iszero\n      tag_177\n      jumpi\n        /* \"#utility.yul\":7860:7878   */\n      tag_178\n      tag_76\n      jump\t// in\n    tag_178:\n        /* \"#utility.yul\":7739:7880   */\n    tag_177:\n        /* \"#utility.yul\":7908:7909   */\n      dup3\n        /* \"#utility.yul\":7905:7906   */\n      dup3\n        /* \"#utility.yul\":7901:7910   */\n      mul\n        /* \"#utility.yul\":7890:7910   */\n      swap1\n      pop\n        /* \"#utility.yul\":6925:7916   */\n      swap3\n      swap2\n      pop\n      pop\n      jump\t// out\n\n    auxdata: 0xa2646970667358221220f600e5edcc5fde3170971011e8138daa03f081da26053afc45745c8818cf7b1664736f6c63430008080033\n}\n",
				"bytecode": {
					"linkReferences": {},
					"object": "60806040526802b5e3af16b188000060005534801561001d57600080fd5b506109838061002d6000396000f3fe60806040526004361061004a5760003560e01c8063098de8201461004f5780633ccfd60b1461007a5780633e47d6f314610091578063b60d4288146100ce578063dc0d3dff146100d8575b600080fd5b34801561005b57600080fd5b50610064610115565b6040516100719190610422565b60405180910390f35b34801561008657600080fd5b5061008f61011b565b005b34801561009d57600080fd5b506100b860048036038101906100b391906104a0565b6101ca565b6040516100c59190610422565b60405180910390f35b6100d66101e2565b005b3480156100e457600080fd5b506100ff60048036038101906100fa91906104f9565b6102d8565b60405161010c9190610535565b60405180910390f35b60005481565b60005b6001805490508110156101c75760006001828154811061014157610140610550565b5b9060005260206000200160009054906101000a900473ffffffffffffffffffffffffffffffffffffffff1690506000600260008373ffffffffffffffffffffffffffffffffffffffff1673ffffffffffffffffffffffffffffffffffffffff168152602001908152602001600020819055505080806101bf906105ae565b91505061011e565b50565b60026020528060005260406000206000915090505481565b6000546101ee34610317565b101561022f576040517f08c379a000000000000000000000000000000000000000000000000000000000815260040161022690610654565b60405180910390fd5b6001339080600181540180825580915050600190039060005260206000200160009091909190916101000a81548173ffffffffffffffffffffffffffffffffffffffff021916908373ffffffffffffffffffffffffffffffffffffffff16021790555034600260003373ffffffffffffffffffffffffffffffffffffffff1673ffffffffffffffffffffffffffffffffffffffff16815260200190815260200160002081905550565b600181815481106102e857600080fd5b906000526020600020016000915054906101000a900473ffffffffffffffffffffffffffffffffffffffff1681565b600080610322610351565b90506000670de0b6b3a7640000848361033b9190610674565b61034591906106fd565b90508092505050919050565b60008073d4a33860578de61dbabdc8bfdb98fd742fa7028e905060008173ffffffffffffffffffffffffffffffffffffffff1663feaf968c6040518163ffffffff1660e01b815260040160a06040518083038186803b1580156103b357600080fd5b505afa1580156103c7573d6000803e3d6000fd5b505050506040513d601f19601f820116820180604052508101906103eb91906107bb565b5050509150506402540be400816104029190610836565b9250505090565b6000819050919050565b61041c81610409565b82525050565b60006020820190506104376000830184610413565b92915050565b600080fd5b600073ffffffffffffffffffffffffffffffffffffffff82169050919050565b600061046d82610442565b9050919050565b61047d81610462565b811461048857600080fd5b50565b60008135905061049a81610474565b92915050565b6000602082840312156104b6576104b561043d565b5b60006104c48482850161048b565b91505092915050565b6104d681610409565b81146104e157600080fd5b50565b6000813590506104f3816104cd565b92915050565b60006020828403121561050f5761050e61043d565b5b600061051d848285016104e4565b91505092915050565b61052f81610462565b82525050565b600060208201905061054a6000830184610526565b92915050565b7f4e487b7100000000000000000000000000000000000000000000000000000000600052603260045260246000fd5b7f4e487b7100000000000000000000000000000000000000000000000000000000600052601160045260246000fd5b60006105b982610409565b91507fffffffffffffffffffffffffffffffffffffffffffffffffffffffffffffffff8214156105ec576105eb61057f565b5b600182019050919050565b600082825260208201905092915050565b7f4469646e27742073656e6420656e6f7567682100000000000000000000000000600082015250565b600061063e6013836105f7565b915061064982610608565b602082019050919050565b6000602082019050818103600083015261066d81610631565b9050919050565b600061067f82610409565b915061068a83610409565b9250817fffffffffffffffffffffffffffffffffffffffffffffffffffffffffffffffff04831182151516156106c3576106c261057f565b5b828202905092915050565b7f4e487b7100000000000000000000000000000000000000000000000000000000600052601260045260246000fd5b600061070882610409565b915061071383610409565b925082610723576107226106ce565b5b828204905092915050565b600069ffffffffffffffffffff82169050919050565b61074d8161072e565b811461075857600080fd5b50565b60008151905061076a81610744565b92915050565b6000819050919050565b61078381610770565b811461078e57600080fd5b50565b6000815190506107a08161077a565b92915050565b6000815190506107b5816104cd565b92915050565b600080600080600060a086880312156107d7576107d661043d565b5b60006107e58882890161075b565b95505060206107f688828901610791565b9450506040610807888289016107a6565b9350506060610818888289016107a6565b92505060806108298882890161075b565b9150509295509295909350565b600061084182610770565b915061084c83610770565b9250827f7fffffffffffffffffffffffffffffffffffffffffffffffffffffffffffffff048211600084136000841316161561088b5761088a61057f565b5b817f800000000000000000000000000000000000000000000000000000000000000005831260008412600084131616156108c8576108c761057f565b5b827f800000000000000000000000000000000000000000000000000000000000000005821260008413600084121616156109055761090461057f565b5b827f7fffffffffffffffffffffffffffffffffffffffffffffffffffffffffffffff05821260008412600084121616156109425761094161057f565b5b82820290509291505056fea2646970667358221220f600e5edcc5fde3170971011e8138daa03f081da26053afc45745c8818cf7b1664736f6c63430008080033",
					"opcodes": "PUSH1 0x80 PUSH1 0x40 MSTORE PUSH9 0x2B5E3AF16B1880000 PUSH1 0x0 SSTORE CALLVALUE DUP1 ISZERO PUSH2 0x1D JUMPI PUSH1 0x0 DUP1 REVERT JUMPDEST POP PUSH2 0x983 DUP1 PUSH2 0x2D PUSH1 0x0 CODECOPY PUSH1 0x0 RETURN INVALID PUSH1 0x80 PUSH1 0x40 MSTORE PUSH1 0x4 CALLDATASIZE LT PUSH2 0x4A JUMPI PUSH1 0x0 CALLDATALOAD PUSH1 0xE0 SHR DUP1 PUSH4 0x98DE820 EQ PUSH2 0x4F JUMPI DUP1 PUSH4 0x3CCFD60B EQ PUSH2 0x7A JUMPI DUP1 PUSH4 0x3E47D6F3 EQ PUSH2 0x91 JUMPI DUP1 PUSH4 0xB60D4288 EQ PUSH2 0xCE JUMPI DUP1 PUSH4 0xDC0D3DFF EQ PUSH2 0xD8 JUMPI JUMPDEST PUSH1 0x0 DUP1 REVERT JUMPDEST CALLVALUE DUP1 ISZERO PUSH2 0x5B JUMPI PUSH1 0x0 DUP1 REVERT JUMPDEST POP PUSH2 0x64 PUSH2 0x115 JUMP JUMPDEST PUSH1 0x40 MLOAD PUSH2 0x71 SWAP2 SWAP1 PUSH2 0x422 JUMP JUMPDEST PUSH1 0x40 MLOAD DUP1 SWAP2 SUB SWAP1 RETURN JUMPDEST CALLVALUE DUP1 ISZERO PUSH2 0x86 JUMPI PUSH1 0x0 DUP1 REVERT JUMPDEST POP PUSH2 0x8F PUSH2 0x11B JUMP JUMPDEST STOP JUMPDEST CALLVALUE DUP1 ISZERO PUSH2 0x9D JUMPI PUSH1 0x0 DUP1 REVERT JUMPDEST POP PUSH2 0xB8 PUSH1 0x4 DUP1 CALLDATASIZE SUB DUP2 ADD SWAP1 PUSH2 0xB3 SWAP2 SWAP1 PUSH2 0x4A0 JUMP JUMPDEST PUSH2 0x1CA JUMP JUMPDEST PUSH1 0x40 MLOAD PUSH2 0xC5 SWAP2 SWAP1 PUSH2 0x422 JUMP JUMPDEST PUSH1 0x40 MLOAD DUP1 SWAP2 SUB SWAP1 RETURN JUMPDEST PUSH2 0xD6 PUSH2 0x1E2 JUMP JUMPDEST STOP JUMPDEST CALLVALUE DUP1 ISZERO PUSH2 0xE4 JUMPI PUSH1 0x0 DUP1 REVERT JUMPDEST POP PUSH2 0xFF PUSH1 0x4 DUP1 CALLDATASIZE SUB DUP2 ADD SWAP1 PUSH2 0xFA SWAP2 SWAP1 PUSH2 0x4F9 JUMP JUMPDEST PUSH2 0x2D8 JUMP JUMPDEST PUSH1 0x40 MLOAD PUSH2 0x10C SWAP2 SWAP1 PUSH2 0x535 JUMP JUMPDEST PUSH1 0x40 MLOAD DUP1 SWAP2 SUB SWAP1 RETURN JUMPDEST PUSH1 0x0 SLOAD DUP2 JUMP JUMPDEST PUSH1 0x0 JUMPDEST PUSH1 0x1 DUP1 SLOAD SWAP1 POP DUP2 LT ISZERO PUSH2 0x1C7 JUMPI PUSH1 0x0 PUSH1 0x1 DUP3 DUP2 SLOAD DUP2 LT PUSH2 0x141 JUMPI PUSH2 0x140 PUSH2 0x550 JUMP JUMPDEST JUMPDEST SWAP1 PUSH1 0x0 MSTORE PUSH1 0x20 PUSH1 0x0 KECCAK256 ADD PUSH1 0x0 SWAP1 SLOAD SWAP1 PUSH2 0x100 EXP SWAP1 DIV PUSH20 0xFFFFFFFFFFFFFFFFFFFFFFFFFFFFFFFFFFFFFFFF AND SWAP1 POP PUSH1 0x0 PUSH1 0x2 PUSH1 0x0 DUP4 PUSH20 0xFFFFFFFFFFFFFFFFFFFFFFFFFFFFFFFFFFFFFFFF AND PUSH20 0xFFFFFFFFFFFFFFFFFFFFFFFFFFFFFFFFFFFFFFFF AND DUP2 MSTORE PUSH1 0x20 ADD SWAP1 DUP2 MSTORE PUSH1 0x20 ADD PUSH1 0x0 KECCAK256 DUP2 SWAP1 SSTORE POP POP DUP1 DUP1 PUSH2 0x1BF SWAP1 PUSH2 0x5AE JUMP JUMPDEST SWAP2 POP POP PUSH2 0x11E JUMP JUMPDEST POP JUMP JUMPDEST PUSH1 0x2 PUSH1 0x20 MSTORE DUP1 PUSH1 0x0 MSTORE PUSH1 0x40 PUSH1 0x0 KECCAK256 PUSH1 0x0 SWAP2 POP SWAP1 POP SLOAD DUP2 JUMP JUMPDEST PUSH1 0x0 SLOAD PUSH2 0x1EE CALLVALUE PUSH2 0x317 JUMP JUMPDEST LT ISZERO PUSH2 0x22F JUMPI PUSH1 0x40 MLOAD PUSH32 0x8C379A000000000000000000000000000000000000000000000000000000000 DUP2 MSTORE PUSH1 0x4 ADD PUSH2 0x226 SWAP1 PUSH2 0x654 JUMP JUMPDEST PUSH1 0x40 MLOAD DUP1 SWAP2 SUB SWAP1 REVERT JUMPDEST PUSH1 0x1 CALLER SWAP1 DUP1 PUSH1 0x1 DUP2 SLOAD ADD DUP1 DUP3 SSTORE DUP1 SWAP2 POP POP PUSH1 0x1 SWAP1 SUB SWAP1 PUSH1 0x0 MSTORE PUSH1 0x20 PUSH1 0x0 KECCAK256 ADD PUSH1 0x0 SWAP1 SWAP2 SWAP1 SWAP2 SWAP1 SWAP2 PUSH2 0x100 EXP DUP2 SLOAD DUP2 PUSH20 0xFFFFFFFFFFFFFFFFFFFFFFFFFFFFFFFFFFFFFFFF MUL NOT AND SWAP1 DUP4 PUSH20 0xFFFFFFFFFFFFFFFFFFFFFFFFFFFFFFFFFFFFFFFF AND MUL OR SWAP1 SSTORE POP CALLVALUE PUSH1 0x2 PUSH1 0x0 CALLER PUSH20 0xFFFFFFFFFFFFFFFFFFFFFFFFFFFFFFFFFFFFFFFF AND PUSH20 0xFFFFFFFFFFFFFFFFFFFFFFFFFFFFFFFFFFFFFFFF AND DUP2 MSTORE PUSH1 0x20 ADD SWAP1 DUP2 MSTORE PUSH1 0x20 ADD PUSH1 0x0 KECCAK256 DUP2 SWAP1 SSTORE POP JUMP JUMPDEST PUSH1 0x1 DUP2 DUP2 SLOAD DUP2 LT PUSH2 0x2E8 JUMPI PUSH1 0x0 DUP1 REVERT JUMPDEST SWAP1 PUSH1 0x0 MSTORE PUSH1 0x20 PUSH1 0x0 KECCAK256 ADD PUSH1 0x0 SWAP2 POP SLOAD SWAP1 PUSH2 0x100 EXP SWAP1 DIV PUSH20 0xFFFFFFFFFFFFFFFFFFFFFFFFFFFFFFFFFFFFFFFF AND DUP2 JUMP JUMPDEST PUSH1 0x0 DUP1 PUSH2 0x322 PUSH2 0x351 JUMP JUMPDEST SWAP1 POP PUSH1 0x0 PUSH8 0xDE0B6B3A7640000 DUP5 DUP4 PUSH2 0x33B SWAP2 SWAP1 PUSH2 0x674 JUMP JUMPDEST PUSH2 0x345 SWAP2 SWAP1 PUSH2 0x6FD JUMP JUMPDEST SWAP1 POP DUP1 SWAP3 POP POP POP SWAP2 SWAP1 POP JUMP JUMPDEST PUSH1 0x0 DUP1 PUSH20 0xD4A33860578DE61DBABDC8BFDB98FD742FA7028E SWAP1 POP PUSH1 0x0 DUP2 PUSH20 0xFFFFFFFFFFFFFFFFFFFFFFFFFFFFFFFFFFFFFFFF AND PUSH4 0xFEAF968C PUSH1 0x40 MLOAD DUP2 PUSH4 0xFFFFFFFF AND PUSH1 0xE0 SHL DUP2 MSTORE PUSH1 0x4 ADD PUSH1 0xA0 PUSH1 0x40 MLOAD DUP1 DUP4 SUB DUP2 DUP7 DUP1 EXTCODESIZE ISZERO DUP1 ISZERO PUSH2 0x3B3 JUMPI PUSH1 0x0 DUP1 REVERT JUMPDEST POP GAS STATICCALL ISZERO DUP1 ISZERO PUSH2 0x3C7 JUMPI RETURNDATASIZE PUSH1 0x0 DUP1 RETURNDATACOPY RETURNDATASIZE PUSH1 0x0 REVERT JUMPDEST POP POP POP POP PUSH1 0x40 MLOAD RETURNDATASIZE PUSH1 0x1F NOT PUSH1 0x1F DUP3 ADD AND DUP3 ADD DUP1 PUSH1 0x40 MSTORE POP DUP2 ADD SWAP1 PUSH2 0x3EB SWAP2 SWAP1 PUSH2 0x7BB JUMP JUMPDEST POP POP POP SWAP2 POP POP PUSH5 0x2540BE400 DUP2 PUSH2 0x402 SWAP2 SWAP1 PUSH2 0x836 JUMP JUMPDEST SWAP3 POP POP POP SWAP1 JUMP JUMPDEST PUSH1 0x0 DUP2 SWAP1 POP SWAP2 SWAP1 POP JUMP JUMPDEST PUSH2 0x41C DUP2 PUSH2 0x409 JUMP JUMPDEST DUP3 MSTORE POP POP JUMP JUMPDEST PUSH1 0x0 PUSH1 0x20 DUP3 ADD SWAP1 POP PUSH2 0x437 PUSH1 0x0 DUP4 ADD DUP5 PUSH2 0x413 JUMP JUMPDEST SWAP3 SWAP2 POP POP JUMP JUMPDEST PUSH1 0x0 DUP1 REVERT JUMPDEST PUSH1 0x0 PUSH20 0xFFFFFFFFFFFFFFFFFFFFFFFFFFFFFFFFFFFFFFFF DUP3 AND SWAP1 POP SWAP2 SWAP1 POP JUMP JUMPDEST PUSH1 0x0 PUSH2 0x46D DUP3 PUSH2 0x442 JUMP JUMPDEST SWAP1 POP SWAP2 SWAP1 POP JUMP JUMPDEST PUSH2 0x47D DUP2 PUSH2 0x462 JUMP JUMPDEST DUP2 EQ PUSH2 0x488 JUMPI PUSH1 0x0 DUP1 REVERT JUMPDEST POP JUMP JUMPDEST PUSH1 0x0 DUP2 CALLDATALOAD SWAP1 POP PUSH2 0x49A DUP2 PUSH2 0x474 JUMP JUMPDEST SWAP3 SWAP2 POP POP JUMP JUMPDEST PUSH1 0x0 PUSH1 0x20 DUP3 DUP5 SUB SLT ISZERO PUSH2 0x4B6 JUMPI PUSH2 0x4B5 PUSH2 0x43D JUMP JUMPDEST JUMPDEST PUSH1 0x0 PUSH2 0x4C4 DUP5 DUP3 DUP6 ADD PUSH2 0x48B JUMP JUMPDEST SWAP2 POP POP SWAP3 SWAP2 POP POP JUMP JUMPDEST PUSH2 0x4D6 DUP2 PUSH2 0x409 JUMP JUMPDEST DUP2 EQ PUSH2 0x4E1 JUMPI PUSH1 0x0 DUP1 REVERT JUMPDEST POP JUMP JUMPDEST PUSH1 0x0 DUP2 CALLDATALOAD SWAP1 POP PUSH2 0x4F3 DUP2 PUSH2 0x4CD JUMP JUMPDEST SWAP3 SWAP2 POP POP JUMP JUMPDEST PUSH1 0x0 PUSH1 0x20 DUP3 DUP5 SUB SLT ISZERO PUSH2 0x50F JUMPI PUSH2 0x50E PUSH2 0x43D JUMP JUMPDEST JUMPDEST PUSH1 0x0 PUSH2 0x51D DUP5 DUP3 DUP6 ADD PUSH2 0x4E4 JUMP JUMPDEST SWAP2 POP POP SWAP3 SWAP2 POP POP JUMP JUMPDEST PUSH2 0x52F DUP2 PUSH2 0x462 JUMP JUMPDEST DUP3 MSTORE POP POP JUMP JUMPDEST PUSH1 0x0 PUSH1 0x20 DUP3 ADD SWAP1 POP PUSH2 0x54A PUSH1 0x0 DUP4 ADD DUP5 PUSH2 0x526 JUMP JUMPDEST SWAP3 SWAP2 POP POP JUMP JUMPDEST PUSH32 0x4E487B7100000000000000000000000000000000000000000000000000000000 PUSH1 0x0 MSTORE PUSH1 0x32 PUSH1 0x4 MSTORE PUSH1 0x24 PUSH1 0x0 REVERT JUMPDEST PUSH32 0x4E487B7100000000000000000000000000000000000000000000000000000000 PUSH1 0x0 MSTORE PUSH1 0x11 PUSH1 0x4 MSTORE PUSH1 0x24 PUSH1 0x0 REVERT JUMPDEST PUSH1 0x0 PUSH2 0x5B9 DUP3 PUSH2 0x409 JUMP JUMPDEST SWAP2 POP PUSH32 0xFFFFFFFFFFFFFFFFFFFFFFFFFFFFFFFFFFFFFFFFFFFFFFFFFFFFFFFFFFFFFFFF DUP3 EQ ISZERO PUSH2 0x5EC JUMPI PUSH2 0x5EB PUSH2 0x57F JUMP JUMPDEST JUMPDEST PUSH1 0x1 DUP3 ADD SWAP1 POP SWAP2 SWAP1 POP JUMP JUMPDEST PUSH1 0x0 DUP3 DUP3 MSTORE PUSH1 0x20 DUP3 ADD SWAP1 POP SWAP3 SWAP2 POP POP JUMP JUMPDEST PUSH32 0x4469646E27742073656E6420656E6F7567682100000000000000000000000000 PUSH1 0x0 DUP3 ADD MSTORE POP JUMP JUMPDEST PUSH1 0x0 PUSH2 0x63E PUSH1 0x13 DUP4 PUSH2 0x5F7 JUMP JUMPDEST SWAP2 POP PUSH2 0x649 DUP3 PUSH2 0x608 JUMP JUMPDEST PUSH1 0x20 DUP3 ADD SWAP1 POP SWAP2 SWAP1 POP JUMP JUMPDEST PUSH1 0x0 PUSH1 0x20 DUP3 ADD SWAP1 POP DUP2 DUP2 SUB PUSH1 0x0 DUP4 ADD MSTORE PUSH2 0x66D DUP2 PUSH2 0x631 JUMP JUMPDEST SWAP1 POP SWAP2 SWAP1 POP JUMP JUMPDEST PUSH1 0x0 PUSH2 0x67F DUP3 PUSH2 0x409 JUMP JUMPDEST SWAP2 POP PUSH2 0x68A DUP4 PUSH2 0x409 JUMP JUMPDEST SWAP3 POP DUP2 PUSH32 0xFFFFFFFFFFFFFFFFFFFFFFFFFFFFFFFFFFFFFFFFFFFFFFFFFFFFFFFFFFFFFFFF DIV DUP4 GT DUP3 ISZERO ISZERO AND ISZERO PUSH2 0x6C3 JUMPI PUSH2 0x6C2 PUSH2 0x57F JUMP JUMPDEST JUMPDEST DUP3 DUP3 MUL SWAP1 POP SWAP3 SWAP2 POP POP JUMP JUMPDEST PUSH32 0x4E487B7100000000000000000000000000000000000000000000000000000000 PUSH1 0x0 MSTORE PUSH1 0x12 PUSH1 0x4 MSTORE PUSH1 0x24 PUSH1 0x0 REVERT JUMPDEST PUSH1 0x0 PUSH2 0x708 DUP3 PUSH2 0x409 JUMP JUMPDEST SWAP2 POP PUSH2 0x713 DUP4 PUSH2 0x409 JUMP JUMPDEST SWAP3 POP DUP3 PUSH2 0x723 JUMPI PUSH2 0x722 PUSH2 0x6CE JUMP JUMPDEST JUMPDEST DUP3 DUP3 DIV SWAP1 POP SWAP3 SWAP2 POP POP JUMP JUMPDEST PUSH1 0x0 PUSH10 0xFFFFFFFFFFFFFFFFFFFF DUP3 AND SWAP1 POP SWAP2 SWAP1 POP JUMP JUMPDEST PUSH2 0x74D DUP2 PUSH2 0x72E JUMP JUMPDEST DUP2 EQ PUSH2 0x758 JUMPI PUSH1 0x0 DUP1 REVERT JUMPDEST POP JUMP JUMPDEST PUSH1 0x0 DUP2 MLOAD SWAP1 POP PUSH2 0x76A DUP2 PUSH2 0x744 JUMP JUMPDEST SWAP3 SWAP2 POP POP JUMP JUMPDEST PUSH1 0x0 DUP2 SWAP1 POP SWAP2 SWAP1 POP JUMP JUMPDEST PUSH2 0x783 DUP2 PUSH2 0x770 JUMP JUMPDEST DUP2 EQ PUSH2 0x78E JUMPI PUSH1 0x0 DUP1 REVERT JUMPDEST POP JUMP JUMPDEST PUSH1 0x0 DUP2 MLOAD SWAP1 POP PUSH2 0x7A0 DUP2 PUSH2 0x77A JUMP JUMPDEST SWAP3 SWAP2 POP POP JUMP JUMPDEST PUSH1 0x0 DUP2 MLOAD SWAP1 POP PUSH2 0x7B5 DUP2 PUSH2 0x4CD JUMP JUMPDEST SWAP3 SWAP2 POP POP JUMP JUMPDEST PUSH1 0x0 DUP1 PUSH1 0x0 DUP1 PUSH1 0x0 PUSH1 0xA0 DUP7 DUP9 SUB SLT ISZERO PUSH2 0x7D7 JUMPI PUSH2 0x7D6 PUSH2 0x43D JUMP JUMPDEST JUMPDEST PUSH1 0x0 PUSH2 0x7E5 DUP9 DUP3 DUP10 ADD PUSH2 0x75B JUMP JUMPDEST SWAP6 POP POP PUSH1 0x20 PUSH2 0x7F6 DUP9 DUP3 DUP10 ADD PUSH2 0x791 JUMP JUMPDEST SWAP5 POP POP PUSH1 0x40 PUSH2 0x807 DUP9 DUP3 DUP10 ADD PUSH2 0x7A6 JUMP JUMPDEST SWAP4 POP POP PUSH1 0x60 PUSH2 0x818 DUP9 DUP3 DUP10 ADD PUSH2 0x7A6 JUMP JUMPDEST SWAP3 POP POP PUSH1 0x80 PUSH2 0x829 DUP9 DUP3 DUP10 ADD PUSH2 0x75B JUMP JUMPDEST SWAP2 POP POP SWAP3 SWAP6 POP SWAP3 SWAP6 SWAP1 SWAP4 POP JUMP JUMPDEST PUSH1 0x0 PUSH2 0x841 DUP3 PUSH2 0x770 JUMP JUMPDEST SWAP2 POP PUSH2 0x84C DUP4 PUSH2 0x770 JUMP JUMPDEST SWAP3 POP DUP3 PUSH32 0x7FFFFFFFFFFFFFFFFFFFFFFFFFFFFFFFFFFFFFFFFFFFFFFFFFFFFFFFFFFFFFFF DIV DUP3 GT PUSH1 0x0 DUP5 SGT PUSH1 0x0 DUP5 SGT AND AND ISZERO PUSH2 0x88B JUMPI PUSH2 0x88A PUSH2 0x57F JUMP JUMPDEST JUMPDEST DUP2 PUSH32 0x8000000000000000000000000000000000000000000000000000000000000000 SDIV DUP4 SLT PUSH1 0x0 DUP5 SLT PUSH1 0x0 DUP5 SGT AND AND ISZERO PUSH2 0x8C8 JUMPI PUSH2 0x8C7 PUSH2 0x57F JUMP JUMPDEST JUMPDEST DUP3 PUSH32 0x8000000000000000000000000000000000000000000000000000000000000000 SDIV DUP3 SLT PUSH1 0x0 DUP5 SGT PUSH1 0x0 DUP5 SLT AND AND ISZERO PUSH2 0x905 JUMPI PUSH2 0x904 PUSH2 0x57F JUMP JUMPDEST JUMPDEST DUP3 PUSH32 0x7FFFFFFFFFFFFFFFFFFFFFFFFFFFFFFFFFFFFFFFFFFFFFFFFFFFFFFFFFFFFFFF SDIV DUP3 SLT PUSH1 0x0 DUP5 SLT PUSH1 0x0 DUP5 SLT AND AND ISZERO PUSH2 0x942 JUMPI PUSH2 0x941 PUSH2 0x57F JUMP JUMPDEST JUMPDEST DUP3 DUP3 MUL SWAP1 POP SWAP3 SWAP2 POP POP JUMP INVALID LOG2 PUSH5 0x6970667358 0x22 SLT KECCAK256 0xF6 STOP 0xE5 0xED 0xCC 0x5F 0xDE BALANCE PUSH17 0x971011E8138DAA03F081DA26053AFC4574 0x5C DUP9 XOR 0xCF PUSH28 0x1664736F6C6343000808003300000000000000000000000000000000 "
				},
				"gasEstimates": {
					"creation": {
						"codeDepositCost": "487000",
						"executionCost": "22630",
						"totalCost": "509630"
					},
					"external": {
						"addressToAmountFunded(address)": "2836",
						"fund()": "infinite",
						"funders(uint256)": "5022",
						"minimumUsd()": "2407",
						"withdraw()": "infinite"
					}
				},
				"methodIdentifiers": {
					"addressToAmountFunded(address)": "3e47d6f3",
					"fund()": "b60d4288",
					"funders(uint256)": "dc0d3dff",
					"minimumUsd()": "098de820",
					"withdraw()": "3ccfd60b"
				}
			},
			"storageLayout": {
				"storage": [
					{
						"astId": 56,
						"contract": "contracts/FundMe.sol:FundMe",
						"label": "minimumUsd",
						"offset": 0,
						"slot": "0",
						"type": "t_uint256"
					},
					{
						"astId": 59,
						"contract": "contracts/FundMe.sol:FundMe",
						"label": "funders",
						"offset": 0,
						"slot": "1",
						"type": "t_array(t_address)dyn_storage"
					},
					{
						"astId": 63,
						"contract": "contracts/FundMe.sol:FundMe",
						"label": "addressToAmountFunded",
						"offset": 0,
						"slot": "2",
						"type": "t_mapping(t_address,t_uint256)"
					}
				],
				"types": {
					"t_address": {
						"encoding": "inplace",
						"label": "address",
						"numberOfBytes": "20"
					},
					"t_array(t_address)dyn_storage": {
						"base": "t_address",
						"encoding": "dynamic_array",
						"label": "address[]",
						"numberOfBytes": "32"
					},
					"t_mapping(t_address,t_uint256)": {
						"encoding": "mapping",
						"key": "t_address",
						"label": "mapping(address => uint256)",
						"numberOfBytes": "32",
						"value": "t_uint256"
					},
					"t_uint256": {
						"encoding": "inplace",
						"label": "uint256",
						"numberOfBytes": "32"
					}
				}
			},
			"userdoc": {
				"kind": "user",
				"methods": {},
				"version": 1
			}
		}
	}
}