{
	"contracts/FundMe_Upgraded.sol": {
		"FundMe": {
			"abi": [
				{
					"inputs": [],
					"stateMutability": "nonpayable",
					"type": "constructor"
				},
				{
					"inputs": [],
					"name": "MINIMUM_USD",
					"outputs": [
						{
							"internalType": "uint256",
							"name": "",
							"type": "uint256"
						}
					],
					"stateMutability": "view",
					"type": "function"
				},
				{
					"inputs": [
						{
							"internalType": "address",
							"name": "",
							"type": "address"
						}
					],
					"name": "addressToAmountFunded",
					"outputs": [
						{
							"internalType": "uint256",
							"name": "",
							"type": "uint256"
						}
					],
					"stateMutability": "view",
					"type": "function"
				},
				{
					"inputs": [],
					"name": "fund",
					"outputs": [],
					"stateMutability": "payable",
					"type": "function"
				},
				{
					"inputs": [
						{
							"internalType": "uint256",
							"name": "",
							"type": "uint256"
						}
					],
					"name": "funders",
					"outputs": [
						{
							"internalType": "address",
							"name": "",
							"type": "address"
						}
					],
					"stateMutability": "view",
					"type": "function"
				},
				{
					"inputs": [],
					"name": "i_owner",
					"outputs": [
						{
							"internalType": "address",
							"name": "",
							"type": "address"
						}
					],
					"stateMutability": "view",
					"type": "function"
				},
				{
					"inputs": [],
					"name": "withdraw",
					"outputs": [],
					"stateMutability": "nonpayable",
					"type": "function"
				}
			],
			"devdoc": {
				"kind": "dev",
				"methods": {},
				"version": 1
			},
			"evm": {
				"assembly": "    /* \"contracts/FundMe_Upgraded.sol\":232:2323  contract FundMe {... */\n  mstore(0x40, 0xa0)\n    /* \"contracts/FundMe_Upgraded.sol\":608:712  constructor(){... */\n  callvalue\n  dup1\n  iszero\n  tag_1\n  jumpi\n  0x00\n  dup1\n  revert\ntag_1:\n  pop\n    /* \"contracts/FundMe_Upgraded.sol\":694:704  msg.sender */\n  caller\n    /* \"contracts/FundMe_Upgraded.sol\":684:704  i_owner = msg.sender */\n  0xffffffffffffffffffffffffffffffffffffffff\n  and\n  0x80\n  dup2\n  0xffffffffffffffffffffffffffffffffffffffff\n  and\n  0x60\n  shl\n  dup2\n  mstore\n  pop\n  pop\n    /* \"contracts/FundMe_Upgraded.sol\":232:2323  contract FundMe {... */\n  shr(0x60, mload(0x80))\n  codecopy(0x00, dataOffset(sub_0), dataSize(sub_0))\n  0x00\n  assignImmutable(\"0x606503ebd6bdca7290248af82fd5a09ca0489398da9f242244210336ae6ece9f\")\n  return(0x00, dataSize(sub_0))\nstop\n\nsub_0: assembly {\n        /* \"contracts/FundMe_Upgraded.sol\":232:2323  contract FundMe {... */\n      mstore(0x40, 0x80)\n      jumpi(tag_1, lt(calldatasize, 0x04))\n      shr(0xe0, calldataload(0x00))\n      dup1\n      0x3ccfd60b\n      eq\n      tag_2\n      jumpi\n      dup1\n      0x3e47d6f3\n      eq\n      tag_3\n      jumpi\n      dup1\n      0x6b69a592\n      eq\n      tag_4\n      jumpi\n      dup1\n      0xb60d4288\n      eq\n      tag_5\n      jumpi\n      dup1\n      0xdba6335f\n      eq\n      tag_6\n      jumpi\n      dup1\n      0xdc0d3dff\n      eq\n      tag_7\n      jumpi\n    tag_1:\n      0x00\n      dup1\n      revert\n        /* \"contracts/FundMe_Upgraded.sol\":1286:2169  function withdraw() public onlyOwner {... */\n    tag_2:\n      callvalue\n      dup1\n      iszero\n      tag_8\n      jumpi\n      0x00\n      dup1\n      revert\n    tag_8:\n      pop\n      tag_9\n      tag_10\n      jump\t// in\n    tag_9:\n      stop\n        /* \"contracts/FundMe_Upgraded.sol\":440:496  mapping(address => uint256) public addressToAmountFunded */\n    tag_3:\n      callvalue\n      dup1\n      iszero\n      tag_11\n      jumpi\n      0x00\n      dup1\n      revert\n    tag_11:\n      pop\n      tag_12\n      0x04\n      dup1\n      calldatasize\n      sub\n      dup2\n      add\n      swap1\n      tag_13\n      swap2\n      swap1\n      tag_14\n      jump\t// in\n    tag_13:\n      tag_15\n      jump\t// in\n    tag_12:\n      mload(0x40)\n      tag_16\n      swap2\n      swap1\n      tag_17\n      jump\t// in\n    tag_16:\n      mload(0x40)\n      dup1\n      swap2\n      sub\n      swap1\n      return\n        /* \"contracts/FundMe_Upgraded.sol\":296:343  uint256 public constant MINIMUM_USD = 20 * 1e18 */\n    tag_4:\n      callvalue\n      dup1\n      iszero\n      tag_18\n      jumpi\n      0x00\n      dup1\n      revert\n    tag_18:\n      pop\n      tag_19\n      tag_20\n      jump\t// in\n    tag_19:\n      mload(0x40)\n      tag_21\n      swap2\n      swap1\n      tag_17\n      jump\t// in\n    tag_21:\n      mload(0x40)\n      dup1\n      swap2\n      sub\n      swap1\n      return\n        /* \"contracts/FundMe_Upgraded.sol\":720:1275  function fund() public payable { // in order to send smth with a function you need payable... */\n    tag_5:\n      tag_22\n      tag_23\n      jump\t// in\n    tag_22:\n      stop\n        /* \"contracts/FundMe_Upgraded.sol\":505:537  address public immutable i_owner */\n    tag_6:\n      callvalue\n      dup1\n      iszero\n      tag_24\n      jumpi\n      0x00\n      dup1\n      revert\n    tag_24:\n      pop\n      tag_25\n      tag_26\n      jump\t// in\n    tag_25:\n      mload(0x40)\n      tag_27\n      swap2\n      swap1\n      tag_28\n      jump\t// in\n    tag_27:\n      mload(0x40)\n      dup1\n      swap2\n      sub\n      swap1\n      return\n        /* \"contracts/FundMe_Upgraded.sol\":409:433  address[] public funders */\n    tag_7:\n      callvalue\n      dup1\n      iszero\n      tag_29\n      jumpi\n      0x00\n      dup1\n      revert\n    tag_29:\n      pop\n      tag_30\n      0x04\n      dup1\n      calldatasize\n      sub\n      dup2\n      add\n      swap1\n      tag_31\n      swap2\n      swap1\n      tag_32\n      jump\t// in\n    tag_31:\n      tag_33\n      jump\t// in\n    tag_30:\n      mload(0x40)\n      tag_34\n      swap2\n      swap1\n      tag_28\n      jump\t// in\n    tag_34:\n      mload(0x40)\n      dup1\n      swap2\n      sub\n      swap1\n      return\n        /* \"contracts/FundMe_Upgraded.sol\":1286:2169  function withdraw() public onlyOwner {... */\n    tag_10:\n        /* \"contracts/FundMe_Upgraded.sol\":2230:2237  i_owner */\n      immutable(\"0x606503ebd6bdca7290248af82fd5a09ca0489398da9f242244210336ae6ece9f\")\n        /* \"contracts/FundMe_Upgraded.sol\":2216:2237  msg.sender == i_owner */\n      0xffffffffffffffffffffffffffffffffffffffff\n      and\n        /* \"contracts/FundMe_Upgraded.sol\":2216:2226  msg.sender */\n      caller\n        /* \"contracts/FundMe_Upgraded.sol\":2216:2237  msg.sender == i_owner */\n      0xffffffffffffffffffffffffffffffffffffffff\n      and\n      eq\n        /* \"contracts/FundMe_Upgraded.sol\":2208:2267  require(msg.sender == i_owner, \"Sender is not owner. Wopz\") */\n      tag_36\n      jumpi\n      mload(0x40)\n      0x08c379a000000000000000000000000000000000000000000000000000000000\n      dup2\n      mstore\n      0x04\n      add\n      tag_37\n      swap1\n      tag_38\n      jump\t// in\n    tag_37:\n      mload(0x40)\n      dup1\n      swap2\n      sub\n      swap1\n      revert\n    tag_36:\n        /* \"contracts/FundMe_Upgraded.sol\":1341:1360  uint256 funderIndex */\n      0x00\n        /* \"contracts/FundMe_Upgraded.sol\":1337:1525  for(uint256 funderIndex = 0; funderIndex < funders.length; funderIndex++){... */\n    tag_40:\n        /* \"contracts/FundMe_Upgraded.sol\":1380:1387  funders */\n      0x00\n        /* \"contracts/FundMe_Upgraded.sol\":1380:1394  funders.length */\n      dup1\n      sload\n      swap1\n      pop\n        /* \"contracts/FundMe_Upgraded.sol\":1366:1377  funderIndex */\n      dup2\n        /* \"contracts/FundMe_Upgraded.sol\":1366:1394  funderIndex < funders.length */\n      lt\n        /* \"contracts/FundMe_Upgraded.sol\":1337:1525  for(uint256 funderIndex = 0; funderIndex < funders.length; funderIndex++){... */\n      iszero\n      tag_41\n      jumpi\n        /* \"contracts/FundMe_Upgraded.sol\":1426:1440  address funder */\n      0x00\n        /* \"contracts/FundMe_Upgraded.sol\":1443:1450  funders */\n      dup1\n        /* \"contracts/FundMe_Upgraded.sol\":1451:1462  funderIndex */\n      dup3\n        /* \"contracts/FundMe_Upgraded.sol\":1443:1463  funders[funderIndex] */\n      dup2\n      sload\n      dup2\n      lt\n      tag_43\n      jumpi\n      tag_44\n      tag_45\n      jump\t// in\n    tag_44:\n    tag_43:\n      swap1\n      0x00\n      mstore\n      keccak256(0x00, 0x20)\n      add\n      0x00\n      swap1\n      sload\n      swap1\n      0x0100\n      exp\n      swap1\n      div\n      0xffffffffffffffffffffffffffffffffffffffff\n      and\n        /* \"contracts/FundMe_Upgraded.sol\":1426:1463  address funder = funders[funderIndex] */\n      swap1\n      pop\n        /* \"contracts/FundMe_Upgraded.sol\":1511:1512  0 */\n      0x00\n        /* \"contracts/FundMe_Upgraded.sol\":1479:1500  addressToAmountFunded */\n      0x01\n        /* \"contracts/FundMe_Upgraded.sol\":1479:1508  addressToAmountFunded[funder] */\n      0x00\n        /* \"contracts/FundMe_Upgraded.sol\":1501:1507  funder */\n      dup4\n        /* \"contracts/FundMe_Upgraded.sol\":1479:1508  addressToAmountFunded[funder] */\n      0xffffffffffffffffffffffffffffffffffffffff\n      and\n      0xffffffffffffffffffffffffffffffffffffffff\n      and\n      dup2\n      mstore\n      0x20\n      add\n      swap1\n      dup2\n      mstore\n      0x20\n      add\n      0x00\n      keccak256\n        /* \"contracts/FundMe_Upgraded.sol\":1479:1512  addressToAmountFunded[funder] = 0 */\n      dup2\n      swap1\n      sstore\n      pop\n        /* \"contracts/FundMe_Upgraded.sol\":1410:1525  {... */\n      pop\n        /* \"contracts/FundMe_Upgraded.sol\":1396:1409  funderIndex++ */\n      dup1\n      dup1\n      tag_47\n      swap1\n      tag_48\n      jump\t// in\n    tag_47:\n      swap2\n      pop\n      pop\n        /* \"contracts/FundMe_Upgraded.sol\":1337:1525  for(uint256 funderIndex = 0; funderIndex < funders.length; funderIndex++){... */\n      jump(tag_40)\n    tag_41:\n      pop\n        /* \"contracts/FundMe_Upgraded.sol\":1587:1588  0 */\n      0x00\n        /* \"contracts/FundMe_Upgraded.sol\":1573:1589  new address[](0) */\n      0xffffffffffffffff\n      dup2\n      gt\n      iszero\n      tag_49\n      jumpi\n      tag_50\n      tag_51\n      jump\t// in\n    tag_50:\n    tag_49:\n      mload(0x40)\n      swap1\n      dup1\n      dup3\n      mstore\n      dup1\n      0x20\n      mul\n      0x20\n      add\n      dup3\n      add\n      0x40\n      mstore\n      dup1\n      iszero\n      tag_52\n      jumpi\n      dup2\n      0x20\n      add\n      0x20\n      dup3\n      mul\n      dup1\n      calldatasize\n      dup4\n      calldatacopy\n      dup1\n      dup3\n      add\n      swap2\n      pop\n      pop\n      swap1\n      pop\n    tag_52:\n      pop\n        /* \"contracts/FundMe_Upgraded.sol\":1563:1570  funders */\n      0x00\n        /* \"contracts/FundMe_Upgraded.sol\":1563:1589  funders = new address[](0) */\n      swap1\n      dup1\n      mload\n      swap1\n      0x20\n      add\n      swap1\n      tag_53\n      swap3\n      swap2\n      swap1\n      tag_54\n      jump\t// in\n    tag_53:\n      pop\n        /* \"contracts/FundMe_Upgraded.sol\":2034:2050  bool callSuccess */\n      0x00\n        /* \"contracts/FundMe_Upgraded.sol\":2064:2074  msg.sender */\n      caller\n        /* \"contracts/FundMe_Upgraded.sol\":2056:2080  payable(msg.sender).call */\n      0xffffffffffffffffffffffffffffffffffffffff\n      and\n        /* \"contracts/FundMe_Upgraded.sol\":2088:2109  address(this).balance */\n      selfbalance\n        /* \"contracts/FundMe_Upgraded.sol\":2056:2114  payable(msg.sender).call{value: address(this).balance}(\"\") */\n      mload(0x40)\n      tag_55\n      swap1\n      tag_56\n      jump\t// in\n    tag_55:\n      0x00\n      mload(0x40)\n      dup1\n      dup4\n      sub\n      dup2\n      dup6\n      dup8\n      gas\n      call\n      swap3\n      pop\n      pop\n      pop\n      returndatasize\n      dup1\n      0x00\n      dup2\n      eq\n      tag_59\n      jumpi\n      mload(0x40)\n      swap2\n      pop\n      and(add(returndatasize, 0x3f), not(0x1f))\n      dup3\n      add\n      0x40\n      mstore\n      returndatasize\n      dup3\n      mstore\n      returndatasize\n      0x00\n      0x20\n      dup5\n      add\n      returndatacopy\n      jump(tag_58)\n    tag_59:\n      0x60\n      swap2\n      pop\n    tag_58:\n      pop\n        /* \"contracts/FundMe_Upgraded.sol\":2033:2114  (bool callSuccess, ) = payable(msg.sender).call{value: address(this).balance}(\"\") */\n      pop\n      swap1\n      pop\n        /* \"contracts/FundMe_Upgraded.sol\":2133:2144  callSuccess */\n      dup1\n        /* \"contracts/FundMe_Upgraded.sol\":2125:2160  require(callSuccess, \"Call failed\") */\n      tag_60\n      jumpi\n      mload(0x40)\n      0x08c379a000000000000000000000000000000000000000000000000000000000\n      dup2\n      mstore\n      0x04\n      add\n      tag_61\n      swap1\n      tag_62\n      jump\t// in\n    tag_61:\n      mload(0x40)\n      dup1\n      swap2\n      sub\n      swap1\n      revert\n    tag_60:\n        /* \"contracts/FundMe_Upgraded.sol\":1323:2169  {... */\n      pop\n        /* \"contracts/FundMe_Upgraded.sol\":1286:2169  function withdraw() public onlyOwner {... */\n      jump\t// out\n        /* \"contracts/FundMe_Upgraded.sol\":440:496  mapping(address => uint256) public addressToAmountFunded */\n    tag_15:\n      mstore(0x20, 0x01)\n      dup1\n      0x00\n      mstore\n      keccak256(0x00, 0x40)\n      0x00\n      swap2\n      pop\n      swap1\n      pop\n      sload\n      dup2\n      jump\t// out\n        /* \"contracts/FundMe_Upgraded.sol\":296:343  uint256 public constant MINIMUM_USD = 20 * 1e18 */\n    tag_20:\n        /* \"contracts/FundMe_Upgraded.sol\":334:343  20 * 1e18 */\n      0x01158e460913d00000\n        /* \"contracts/FundMe_Upgraded.sol\":296:343  uint256 public constant MINIMUM_USD = 20 * 1e18 */\n      dup2\n      jump\t// out\n        /* \"contracts/FundMe_Upgraded.sol\":720:1275  function fund() public payable { // in order to send smth with a function you need payable... */\n    tag_23:\n        /* \"contracts/FundMe_Upgraded.sol\":334:343  20 * 1e18 */\n      0x01158e460913d00000\n        /* \"contracts/FundMe_Upgraded.sol\":956:985  msg.value.getConversionRate() */\n      tag_64\n        /* \"contracts/FundMe_Upgraded.sol\":956:965  msg.value */\n      callvalue\n        /* \"contracts/FundMe_Upgraded.sol\":956:983  msg.value.getConversionRate */\n      tag_65\n        /* \"contracts/FundMe_Upgraded.sol\":956:985  msg.value.getConversionRate() */\n      jump\t// in\n    tag_64:\n        /* \"contracts/FundMe_Upgraded.sol\":956:1000  msg.value.getConversionRate() >= MINIMUM_USD */\n      lt\n      iszero\n        /* \"contracts/FundMe_Upgraded.sol\":948:1024  require(msg.value.getConversionRate() >= MINIMUM_USD, \"Didn't send enough!\") */\n      tag_66\n      jumpi\n      mload(0x40)\n      0x08c379a000000000000000000000000000000000000000000000000000000000\n      dup2\n      mstore\n      0x04\n      add\n      tag_67\n      swap1\n      tag_68\n      jump\t// in\n    tag_67:\n      mload(0x40)\n      dup1\n      swap2\n      sub\n      swap1\n      revert\n    tag_66:\n        /* \"contracts/FundMe_Upgraded.sol\":1186:1193  funders */\n      0x00\n        /* \"contracts/FundMe_Upgraded.sol\":1199:1209  msg.sender */\n      caller\n        /* \"contracts/FundMe_Upgraded.sol\":1186:1210  funders.push(msg.sender) */\n      swap1\n      dup1\n      0x01\n      dup2\n      sload\n      add\n      dup1\n      dup3\n      sstore\n      dup1\n      swap2\n      pop\n      pop\n      0x01\n      swap1\n      sub\n      swap1\n      0x00\n      mstore\n      keccak256(0x00, 0x20)\n      add\n      0x00\n      swap1\n      swap2\n      swap1\n      swap2\n      swap1\n      swap2\n      0x0100\n      exp\n      dup2\n      sload\n      dup2\n      0xffffffffffffffffffffffffffffffffffffffff\n      mul\n      not\n      and\n      swap1\n      dup4\n      0xffffffffffffffffffffffffffffffffffffffff\n      and\n      mul\n      or\n      swap1\n      sstore\n      pop\n        /* \"contracts/FundMe_Upgraded.sol\":1258:1267  msg.value */\n      callvalue\n        /* \"contracts/FundMe_Upgraded.sol\":1221:1242  addressToAmountFunded */\n      0x01\n        /* \"contracts/FundMe_Upgraded.sol\":1221:1254  addressToAmountFunded[msg.sender] */\n      0x00\n        /* \"contracts/FundMe_Upgraded.sol\":1243:1253  msg.sender */\n      caller\n        /* \"contracts/FundMe_Upgraded.sol\":1221:1254  addressToAmountFunded[msg.sender] */\n      0xffffffffffffffffffffffffffffffffffffffff\n      and\n      0xffffffffffffffffffffffffffffffffffffffff\n      and\n      dup2\n      mstore\n      0x20\n      add\n      swap1\n      dup2\n      mstore\n      0x20\n      add\n      0x00\n      keccak256\n      0x00\n        /* \"contracts/FundMe_Upgraded.sol\":1221:1267  addressToAmountFunded[msg.sender] += msg.value */\n      dup3\n      dup3\n      sload\n      tag_70\n      swap2\n      swap1\n      tag_71\n      jump\t// in\n    tag_70:\n      swap3\n      pop\n      pop\n      dup2\n      swap1\n      sstore\n      pop\n        /* \"contracts/FundMe_Upgraded.sol\":720:1275  function fund() public payable { // in order to send smth with a function you need payable... */\n      jump\t// out\n        /* \"contracts/FundMe_Upgraded.sol\":505:537  address public immutable i_owner */\n    tag_26:\n      immutable(\"0x606503ebd6bdca7290248af82fd5a09ca0489398da9f242244210336ae6ece9f\")\n      dup2\n      jump\t// out\n        /* \"contracts/FundMe_Upgraded.sol\":409:433  address[] public funders */\n    tag_33:\n      0x00\n      dup2\n      dup2\n      sload\n      dup2\n      lt\n      tag_72\n      jumpi\n      0x00\n      dup1\n      revert\n    tag_72:\n      swap1\n      0x00\n      mstore\n      keccak256(0x00, 0x20)\n      add\n      0x00\n      swap2\n      pop\n      sload\n      swap1\n      0x0100\n      exp\n      swap1\n      div\n      0xffffffffffffffffffffffffffffffffffffffff\n      and\n      dup2\n      jump\t// out\n        /* \"contracts/PriceConverter.sol\":847:1175  function getConversionRate(uint256 ethAmount) internal view returns (uint256) {... */\n    tag_65:\n        /* \"contracts/PriceConverter.sol\":916:923  uint256 */\n      0x00\n        /* \"contracts/PriceConverter.sol\":936:952  uint256 ethPrice */\n      dup1\n        /* \"contracts/PriceConverter.sol\":955:965  getPrice() */\n      tag_75\n        /* \"contracts/PriceConverter.sol\":955:963  getPrice */\n      tag_76\n        /* \"contracts/PriceConverter.sol\":955:965  getPrice() */\n      jump\t// in\n    tag_75:\n        /* \"contracts/PriceConverter.sol\":936:965  uint256 ethPrice = getPrice() */\n      swap1\n      pop\n        /* \"contracts/PriceConverter.sol\":1063:1085  uint256 ethAmountInUsd */\n      0x00\n        /* \"contracts/PriceConverter.sol\":1113:1117  1e18 */\n      0x0de0b6b3a7640000\n        /* \"contracts/PriceConverter.sol\":1100:1109  ethAmount */\n      dup5\n        /* \"contracts/PriceConverter.sol\":1089:1097  ethPrice */\n      dup4\n        /* \"contracts/PriceConverter.sol\":1089:1109  ethPrice * ethAmount */\n      tag_77\n      swap2\n      swap1\n      tag_78\n      jump\t// in\n    tag_77:\n        /* \"contracts/PriceConverter.sol\":1088:1117  (ethPrice * ethAmount) / 1e18 */\n      tag_79\n      swap2\n      swap1\n      tag_80\n      jump\t// in\n    tag_79:\n        /* \"contracts/PriceConverter.sol\":1063:1117  uint256 ethAmountInUsd = (ethPrice * ethAmount) / 1e18 */\n      swap1\n      pop\n        /* \"contracts/PriceConverter.sol\":1152:1166  ethAmountInUsd */\n      dup1\n        /* \"contracts/PriceConverter.sol\":1145:1166  return ethAmountInUsd */\n      swap3\n      pop\n      pop\n      pop\n        /* \"contracts/PriceConverter.sol\":847:1175  function getConversionRate(uint256 ethAmount) internal view returns (uint256) {... */\n      swap2\n      swap1\n      pop\n      jump\t// out\n        /* \"contracts/PriceConverter.sol\":214:622  function getPrice() internal view returns(uint256) {... */\n    tag_76:\n        /* \"contracts/PriceConverter.sol\":256:263  uint256 */\n      0x00\n        /* \"contracts/PriceConverter.sol\":355:386  AggregatorV3Interface priceFeed */\n      dup1\n        /* \"contracts/PriceConverter.sol\":411:453  0xD4a33860578De61DBAbDc8BFdb98FD742fA7028e */\n      0xd4a33860578de61dbabdc8bfdb98fd742fa7028e\n        /* \"contracts/PriceConverter.sol\":355:454  AggregatorV3Interface priceFeed = AggregatorV3Interface(0xD4a33860578De61DBAbDc8BFdb98FD742fA7028e) */\n      swap1\n      pop\n        /* \"contracts/PriceConverter.sol\":468:480  int256 price */\n      0x00\n        /* \"contracts/PriceConverter.sol\":490:499  priceFeed */\n      dup2\n        /* \"contracts/PriceConverter.sol\":490:515  priceFeed.latestRoundData */\n      0xffffffffffffffffffffffffffffffffffffffff\n      and\n      0xfeaf968c\n        /* \"contracts/PriceConverter.sol\":490:517  priceFeed.latestRoundData() */\n      mload(0x40)\n      dup2\n      0xffffffff\n      and\n      0xe0\n      shl\n      dup2\n      mstore\n      0x04\n      add\n      0xa0\n      mload(0x40)\n      dup1\n      dup4\n      sub\n      dup2\n      dup7\n      dup1\n      extcodesize\n      iszero\n      dup1\n      iszero\n      tag_82\n      jumpi\n      0x00\n      dup1\n      revert\n    tag_82:\n      pop\n      gas\n      staticcall\n      iszero\n      dup1\n      iszero\n      tag_84\n      jumpi\n      returndatasize\n      0x00\n      dup1\n      returndatacopy\n      revert(0x00, returndatasize)\n    tag_84:\n      pop\n      pop\n      pop\n      pop\n      mload(0x40)\n      returndatasize\n      not(0x1f)\n      0x1f\n      dup3\n      add\n      and\n      dup3\n      add\n      dup1\n      0x40\n      mstore\n      pop\n      dup2\n      add\n      swap1\n      tag_85\n      swap2\n      swap1\n      tag_86\n      jump\t// in\n    tag_85:\n        /* \"contracts/PriceConverter.sol\":465:517  (, int256 price, , , ) = priceFeed.latestRoundData() */\n      pop\n      pop\n      pop\n      swap2\n      pop\n      pop\n        /* \"contracts/PriceConverter.sol\":609:613  1e10 */\n      0x02540be400\n        /* \"contracts/PriceConverter.sol\":601:606  price */\n      dup2\n        /* \"contracts/PriceConverter.sol\":601:613  price * 1e10 */\n      tag_87\n      swap2\n      swap1\n      tag_88\n      jump\t// in\n    tag_87:\n        /* \"contracts/PriceConverter.sol\":586:614  return uint256(price * 1e10) */\n      swap3\n      pop\n      pop\n      pop\n        /* \"contracts/PriceConverter.sol\":214:622  function getPrice() internal view returns(uint256) {... */\n      swap1\n      jump\t// out\n    tag_54:\n      dup3\n      dup1\n      sload\n      dup3\n      dup3\n      sstore\n      swap1\n      0x00\n      mstore\n      keccak256(0x00, 0x20)\n      swap1\n      dup2\n      add\n      swap3\n      dup3\n      iszero\n      tag_89\n      jumpi\n      swap2\n      0x20\n      mul\n      dup3\n      add\n    tag_90:\n      dup3\n      dup2\n      gt\n      iszero\n      tag_91\n      jumpi\n      dup3\n      mload\n      dup3\n      exp(0x0100, 0x00)\n      dup2\n      sload\n      dup2\n      0xffffffffffffffffffffffffffffffffffffffff\n      mul\n      not\n      and\n      swap1\n      dup4\n      0xffffffffffffffffffffffffffffffffffffffff\n      and\n      mul\n      or\n      swap1\n      sstore\n      pop\n      swap2\n      0x20\n      add\n      swap2\n      swap1\n      0x01\n      add\n      swap1\n      jump(tag_90)\n    tag_91:\n    tag_89:\n      pop\n      swap1\n      pop\n      tag_92\n      swap2\n      swap1\n      tag_93\n      jump\t// in\n    tag_92:\n      pop\n      swap1\n      jump\t// out\n    tag_93:\n    tag_94:\n      dup1\n      dup3\n      gt\n      iszero\n      tag_95\n      jumpi\n      0x00\n      dup2\n      0x00\n      swap1\n      sstore\n      pop\n      0x01\n      add\n      jump(tag_94)\n    tag_95:\n      pop\n      swap1\n      jump\t// out\n        /* \"#utility.yul\":88:205   */\n    tag_97:\n        /* \"#utility.yul\":197:198   */\n      0x00\n        /* \"#utility.yul\":194:195   */\n      dup1\n        /* \"#utility.yul\":187:199   */\n      revert\n        /* \"#utility.yul\":334:460   */\n    tag_99:\n        /* \"#utility.yul\":371:378   */\n      0x00\n        /* \"#utility.yul\":411:453   */\n      0xffffffffffffffffffffffffffffffffffffffff\n        /* \"#utility.yul\":404:409   */\n      dup3\n        /* \"#utility.yul\":400:454   */\n      and\n        /* \"#utility.yul\":389:454   */\n      swap1\n      pop\n        /* \"#utility.yul\":334:460   */\n      swap2\n      swap1\n      pop\n      jump\t// out\n        /* \"#utility.yul\":466:562   */\n    tag_100:\n        /* \"#utility.yul\":503:510   */\n      0x00\n        /* \"#utility.yul\":532:556   */\n      tag_133\n        /* \"#utility.yul\":550:555   */\n      dup3\n        /* \"#utility.yul\":532:556   */\n      tag_99\n      jump\t// in\n    tag_133:\n        /* \"#utility.yul\":521:556   */\n      swap1\n      pop\n        /* \"#utility.yul\":466:562   */\n      swap2\n      swap1\n      pop\n      jump\t// out\n        /* \"#utility.yul\":568:690   */\n    tag_101:\n        /* \"#utility.yul\":641:665   */\n      tag_135\n        /* \"#utility.yul\":659:664   */\n      dup2\n        /* \"#utility.yul\":641:665   */\n      tag_100\n      jump\t// in\n    tag_135:\n        /* \"#utility.yul\":634:639   */\n      dup2\n        /* \"#utility.yul\":631:666   */\n      eq\n        /* \"#utility.yul\":621:684   */\n      tag_136\n      jumpi\n        /* \"#utility.yul\":680:681   */\n      0x00\n        /* \"#utility.yul\":677:678   */\n      dup1\n        /* \"#utility.yul\":670:682   */\n      revert\n        /* \"#utility.yul\":621:684   */\n    tag_136:\n        /* \"#utility.yul\":568:690   */\n      pop\n      jump\t// out\n        /* \"#utility.yul\":696:835   */\n    tag_102:\n        /* \"#utility.yul\":742:747   */\n      0x00\n        /* \"#utility.yul\":780:786   */\n      dup2\n        /* \"#utility.yul\":767:787   */\n      calldataload\n        /* \"#utility.yul\":758:787   */\n      swap1\n      pop\n        /* \"#utility.yul\":796:829   */\n      tag_138\n        /* \"#utility.yul\":823:828   */\n      dup2\n        /* \"#utility.yul\":796:829   */\n      tag_101\n      jump\t// in\n    tag_138:\n        /* \"#utility.yul\":696:835   */\n      swap3\n      swap2\n      pop\n      pop\n      jump\t// out\n        /* \"#utility.yul\":841:1170   */\n    tag_14:\n        /* \"#utility.yul\":900:906   */\n      0x00\n        /* \"#utility.yul\":949:951   */\n      0x20\n        /* \"#utility.yul\":937:946   */\n      dup3\n        /* \"#utility.yul\":928:935   */\n      dup5\n        /* \"#utility.yul\":924:947   */\n      sub\n        /* \"#utility.yul\":920:952   */\n      slt\n        /* \"#utility.yul\":917:1036   */\n      iszero\n      tag_140\n      jumpi\n        /* \"#utility.yul\":955:1034   */\n      tag_141\n      tag_97\n      jump\t// in\n    tag_141:\n        /* \"#utility.yul\":917:1036   */\n    tag_140:\n        /* \"#utility.yul\":1075:1076   */\n      0x00\n        /* \"#utility.yul\":1100:1153   */\n      tag_142\n        /* \"#utility.yul\":1145:1152   */\n      dup5\n        /* \"#utility.yul\":1136:1142   */\n      dup3\n        /* \"#utility.yul\":1125:1134   */\n      dup6\n        /* \"#utility.yul\":1121:1143   */\n      add\n        /* \"#utility.yul\":1100:1153   */\n      tag_102\n      jump\t// in\n    tag_142:\n        /* \"#utility.yul\":1090:1153   */\n      swap2\n      pop\n        /* \"#utility.yul\":1046:1163   */\n      pop\n        /* \"#utility.yul\":841:1170   */\n      swap3\n      swap2\n      pop\n      pop\n      jump\t// out\n        /* \"#utility.yul\":1176:1253   */\n    tag_103:\n        /* \"#utility.yul\":1213:1220   */\n      0x00\n        /* \"#utility.yul\":1242:1247   */\n      dup2\n        /* \"#utility.yul\":1231:1247   */\n      swap1\n      pop\n        /* \"#utility.yul\":1176:1253   */\n      swap2\n      swap1\n      pop\n      jump\t// out\n        /* \"#utility.yul\":1259:1377   */\n    tag_104:\n        /* \"#utility.yul\":1346:1370   */\n      tag_145\n        /* \"#utility.yul\":1364:1369   */\n      dup2\n        /* \"#utility.yul\":1346:1370   */\n      tag_103\n      jump\t// in\n    tag_145:\n        /* \"#utility.yul\":1341:1344   */\n      dup3\n        /* \"#utility.yul\":1334:1371   */\n      mstore\n        /* \"#utility.yul\":1259:1377   */\n      pop\n      pop\n      jump\t// out\n        /* \"#utility.yul\":1383:1605   */\n    tag_17:\n        /* \"#utility.yul\":1476:1480   */\n      0x00\n        /* \"#utility.yul\":1514:1516   */\n      0x20\n        /* \"#utility.yul\":1503:1512   */\n      dup3\n        /* \"#utility.yul\":1499:1517   */\n      add\n        /* \"#utility.yul\":1491:1517   */\n      swap1\n      pop\n        /* \"#utility.yul\":1527:1598   */\n      tag_147\n        /* \"#utility.yul\":1595:1596   */\n      0x00\n        /* \"#utility.yul\":1584:1593   */\n      dup4\n        /* \"#utility.yul\":1580:1597   */\n      add\n        /* \"#utility.yul\":1571:1577   */\n      dup5\n        /* \"#utility.yul\":1527:1598   */\n      tag_104\n      jump\t// in\n    tag_147:\n        /* \"#utility.yul\":1383:1605   */\n      swap3\n      swap2\n      pop\n      pop\n      jump\t// out\n        /* \"#utility.yul\":1611:1729   */\n    tag_105:\n        /* \"#utility.yul\":1698:1722   */\n      tag_149\n        /* \"#utility.yul\":1716:1721   */\n      dup2\n        /* \"#utility.yul\":1698:1722   */\n      tag_100\n      jump\t// in\n    tag_149:\n        /* \"#utility.yul\":1693:1696   */\n      dup3\n        /* \"#utility.yul\":1686:1723   */\n      mstore\n        /* \"#utility.yul\":1611:1729   */\n      pop\n      pop\n      jump\t// out\n        /* \"#utility.yul\":1735:1957   */\n    tag_28:\n        /* \"#utility.yul\":1828:1832   */\n      0x00\n        /* \"#utility.yul\":1866:1868   */\n      0x20\n        /* \"#utility.yul\":1855:1864   */\n      dup3\n        /* \"#utility.yul\":1851:1869   */\n      add\n        /* \"#utility.yul\":1843:1869   */\n      swap1\n      pop\n        /* \"#utility.yul\":1879:1950   */\n      tag_151\n        /* \"#utility.yul\":1947:1948   */\n      0x00\n        /* \"#utility.yul\":1936:1945   */\n      dup4\n        /* \"#utility.yul\":1932:1949   */\n      add\n        /* \"#utility.yul\":1923:1929   */\n      dup5\n        /* \"#utility.yul\":1879:1950   */\n      tag_105\n      jump\t// in\n    tag_151:\n        /* \"#utility.yul\":1735:1957   */\n      swap3\n      swap2\n      pop\n      pop\n      jump\t// out\n        /* \"#utility.yul\":1963:2085   */\n    tag_106:\n        /* \"#utility.yul\":2036:2060   */\n      tag_153\n        /* \"#utility.yul\":2054:2059   */\n      dup2\n        /* \"#utility.yul\":2036:2060   */\n      tag_103\n      jump\t// in\n    tag_153:\n        /* \"#utility.yul\":2029:2034   */\n      dup2\n        /* \"#utility.yul\":2026:2061   */\n      eq\n        /* \"#utility.yul\":2016:2079   */\n      tag_154\n      jumpi\n        /* \"#utility.yul\":2075:2076   */\n      0x00\n        /* \"#utility.yul\":2072:2073   */\n      dup1\n        /* \"#utility.yul\":2065:2077   */\n      revert\n        /* \"#utility.yul\":2016:2079   */\n    tag_154:\n        /* \"#utility.yul\":1963:2085   */\n      pop\n      jump\t// out\n        /* \"#utility.yul\":2091:2230   */\n    tag_107:\n        /* \"#utility.yul\":2137:2142   */\n      0x00\n        /* \"#utility.yul\":2175:2181   */\n      dup2\n        /* \"#utility.yul\":2162:2182   */\n      calldataload\n        /* \"#utility.yul\":2153:2182   */\n      swap1\n      pop\n        /* \"#utility.yul\":2191:2224   */\n      tag_156\n        /* \"#utility.yul\":2218:2223   */\n      dup2\n        /* \"#utility.yul\":2191:2224   */\n      tag_106\n      jump\t// in\n    tag_156:\n        /* \"#utility.yul\":2091:2230   */\n      swap3\n      swap2\n      pop\n      pop\n      jump\t// out\n        /* \"#utility.yul\":2236:2565   */\n    tag_32:\n        /* \"#utility.yul\":2295:2301   */\n      0x00\n        /* \"#utility.yul\":2344:2346   */\n      0x20\n        /* \"#utility.yul\":2332:2341   */\n      dup3\n        /* \"#utility.yul\":2323:2330   */\n      dup5\n        /* \"#utility.yul\":2319:2342   */\n      sub\n        /* \"#utility.yul\":2315:2347   */\n      slt\n        /* \"#utility.yul\":2312:2431   */\n      iszero\n      tag_158\n      jumpi\n        /* \"#utility.yul\":2350:2429   */\n      tag_159\n      tag_97\n      jump\t// in\n    tag_159:\n        /* \"#utility.yul\":2312:2431   */\n    tag_158:\n        /* \"#utility.yul\":2470:2471   */\n      0x00\n        /* \"#utility.yul\":2495:2548   */\n      tag_160\n        /* \"#utility.yul\":2540:2547   */\n      dup5\n        /* \"#utility.yul\":2531:2537   */\n      dup3\n        /* \"#utility.yul\":2520:2529   */\n      dup6\n        /* \"#utility.yul\":2516:2538   */\n      add\n        /* \"#utility.yul\":2495:2548   */\n      tag_107\n      jump\t// in\n    tag_160:\n        /* \"#utility.yul\":2485:2548   */\n      swap2\n      pop\n        /* \"#utility.yul\":2441:2558   */\n      pop\n        /* \"#utility.yul\":2236:2565   */\n      swap3\n      swap2\n      pop\n      pop\n      jump\t// out\n        /* \"#utility.yul\":2571:2740   */\n    tag_108:\n        /* \"#utility.yul\":2655:2666   */\n      0x00\n        /* \"#utility.yul\":2689:2695   */\n      dup3\n        /* \"#utility.yul\":2684:2687   */\n      dup3\n        /* \"#utility.yul\":2677:2696   */\n      mstore\n        /* \"#utility.yul\":2729:2733   */\n      0x20\n        /* \"#utility.yul\":2724:2727   */\n      dup3\n        /* \"#utility.yul\":2720:2734   */\n      add\n        /* \"#utility.yul\":2705:2734   */\n      swap1\n      pop\n        /* \"#utility.yul\":2571:2740   */\n      swap3\n      swap2\n      pop\n      pop\n      jump\t// out\n        /* \"#utility.yul\":2746:2921   */\n    tag_109:\n        /* \"#utility.yul\":2886:2913   */\n      0x53656e646572206973206e6f74206f776e65722e20576f707a00000000000000\n        /* \"#utility.yul\":2882:2883   */\n      0x00\n        /* \"#utility.yul\":2874:2880   */\n      dup3\n        /* \"#utility.yul\":2870:2884   */\n      add\n        /* \"#utility.yul\":2863:2914   */\n      mstore\n        /* \"#utility.yul\":2746:2921   */\n      pop\n      jump\t// out\n        /* \"#utility.yul\":2927:3293   */\n    tag_110:\n        /* \"#utility.yul\":3069:3072   */\n      0x00\n        /* \"#utility.yul\":3090:3157   */\n      tag_164\n        /* \"#utility.yul\":3154:3156   */\n      0x19\n        /* \"#utility.yul\":3149:3152   */\n      dup4\n        /* \"#utility.yul\":3090:3157   */\n      tag_108\n      jump\t// in\n    tag_164:\n        /* \"#utility.yul\":3083:3157   */\n      swap2\n      pop\n        /* \"#utility.yul\":3166:3259   */\n      tag_165\n        /* \"#utility.yul\":3255:3258   */\n      dup3\n        /* \"#utility.yul\":3166:3259   */\n      tag_109\n      jump\t// in\n    tag_165:\n        /* \"#utility.yul\":3284:3286   */\n      0x20\n        /* \"#utility.yul\":3279:3282   */\n      dup3\n        /* \"#utility.yul\":3275:3287   */\n      add\n        /* \"#utility.yul\":3268:3287   */\n      swap1\n      pop\n        /* \"#utility.yul\":2927:3293   */\n      swap2\n      swap1\n      pop\n      jump\t// out\n        /* \"#utility.yul\":3299:3718   */\n    tag_38:\n        /* \"#utility.yul\":3465:3469   */\n      0x00\n        /* \"#utility.yul\":3503:3505   */\n      0x20\n        /* \"#utility.yul\":3492:3501   */\n      dup3\n        /* \"#utility.yul\":3488:3506   */\n      add\n        /* \"#utility.yul\":3480:3506   */\n      swap1\n      pop\n        /* \"#utility.yul\":3552:3561   */\n      dup2\n        /* \"#utility.yul\":3546:3550   */\n      dup2\n        /* \"#utility.yul\":3542:3562   */\n      sub\n        /* \"#utility.yul\":3538:3539   */\n      0x00\n        /* \"#utility.yul\":3527:3536   */\n      dup4\n        /* \"#utility.yul\":3523:3540   */\n      add\n        /* \"#utility.yul\":3516:3563   */\n      mstore\n        /* \"#utility.yul\":3580:3711   */\n      tag_167\n        /* \"#utility.yul\":3706:3710   */\n      dup2\n        /* \"#utility.yul\":3580:3711   */\n      tag_110\n      jump\t// in\n    tag_167:\n        /* \"#utility.yul\":3572:3711   */\n      swap1\n      pop\n        /* \"#utility.yul\":3299:3718   */\n      swap2\n      swap1\n      pop\n      jump\t// out\n        /* \"#utility.yul\":3724:3904   */\n    tag_45:\n        /* \"#utility.yul\":3772:3849   */\n      0x4e487b7100000000000000000000000000000000000000000000000000000000\n        /* \"#utility.yul\":3769:3770   */\n      0x00\n        /* \"#utility.yul\":3762:3850   */\n      mstore\n        /* \"#utility.yul\":3869:3873   */\n      0x32\n        /* \"#utility.yul\":3866:3867   */\n      0x04\n        /* \"#utility.yul\":3859:3874   */\n      mstore\n        /* \"#utility.yul\":3893:3897   */\n      0x24\n        /* \"#utility.yul\":3890:3891   */\n      0x00\n        /* \"#utility.yul\":3883:3898   */\n      revert\n        /* \"#utility.yul\":3910:4090   */\n    tag_111:\n        /* \"#utility.yul\":3958:4035   */\n      0x4e487b7100000000000000000000000000000000000000000000000000000000\n        /* \"#utility.yul\":3955:3956   */\n      0x00\n        /* \"#utility.yul\":3948:4036   */\n      mstore\n        /* \"#utility.yul\":4055:4059   */\n      0x11\n        /* \"#utility.yul\":4052:4053   */\n      0x04\n        /* \"#utility.yul\":4045:4060   */\n      mstore\n        /* \"#utility.yul\":4079:4083   */\n      0x24\n        /* \"#utility.yul\":4076:4077   */\n      0x00\n        /* \"#utility.yul\":4069:4084   */\n      revert\n        /* \"#utility.yul\":4096:4329   */\n    tag_48:\n        /* \"#utility.yul\":4135:4138   */\n      0x00\n        /* \"#utility.yul\":4158:4182   */\n      tag_171\n        /* \"#utility.yul\":4176:4181   */\n      dup3\n        /* \"#utility.yul\":4158:4182   */\n      tag_103\n      jump\t// in\n    tag_171:\n        /* \"#utility.yul\":4149:4182   */\n      swap2\n      pop\n        /* \"#utility.yul\":4204:4270   */\n      0xffffffffffffffffffffffffffffffffffffffffffffffffffffffffffffffff\n        /* \"#utility.yul\":4197:4202   */\n      dup3\n        /* \"#utility.yul\":4194:4271   */\n      eq\n        /* \"#utility.yul\":4191:4294   */\n      iszero\n      tag_172\n      jumpi\n        /* \"#utility.yul\":4274:4292   */\n      tag_173\n      tag_111\n      jump\t// in\n    tag_173:\n        /* \"#utility.yul\":4191:4294   */\n    tag_172:\n        /* \"#utility.yul\":4321:4322   */\n      0x01\n        /* \"#utility.yul\":4314:4319   */\n      dup3\n        /* \"#utility.yul\":4310:4323   */\n      add\n        /* \"#utility.yul\":4303:4323   */\n      swap1\n      pop\n        /* \"#utility.yul\":4096:4329   */\n      swap2\n      swap1\n      pop\n      jump\t// out\n        /* \"#utility.yul\":4335:4515   */\n    tag_51:\n        /* \"#utility.yul\":4383:4460   */\n      0x4e487b7100000000000000000000000000000000000000000000000000000000\n        /* \"#utility.yul\":4380:4381   */\n      0x00\n        /* \"#utility.yul\":4373:4461   */\n      mstore\n        /* \"#utility.yul\":4480:4484   */\n      0x41\n        /* \"#utility.yul\":4477:4478   */\n      0x04\n        /* \"#utility.yul\":4470:4485   */\n      mstore\n        /* \"#utility.yul\":4504:4508   */\n      0x24\n        /* \"#utility.yul\":4501:4502   */\n      0x00\n        /* \"#utility.yul\":4494:4509   */\n      revert\n        /* \"#utility.yul\":4521:4668   */\n    tag_112:\n        /* \"#utility.yul\":4622:4633   */\n      0x00\n        /* \"#utility.yul\":4659:4662   */\n      dup2\n        /* \"#utility.yul\":4644:4662   */\n      swap1\n      pop\n        /* \"#utility.yul\":4521:4668   */\n      swap3\n      swap2\n      pop\n      pop\n      jump\t// out\n        /* \"#utility.yul\":4674:4788   */\n    tag_113:\n      pop\n      jump\t// out\n        /* \"#utility.yul\":4794:5192   */\n    tag_114:\n        /* \"#utility.yul\":4953:4956   */\n      0x00\n        /* \"#utility.yul\":4974:5057   */\n      tag_178\n        /* \"#utility.yul\":5055:5056   */\n      0x00\n        /* \"#utility.yul\":5050:5053   */\n      dup4\n        /* \"#utility.yul\":4974:5057   */\n      tag_112\n      jump\t// in\n    tag_178:\n        /* \"#utility.yul\":4967:5057   */\n      swap2\n      pop\n        /* \"#utility.yul\":5066:5159   */\n      tag_179\n        /* \"#utility.yul\":5155:5158   */\n      dup3\n        /* \"#utility.yul\":5066:5159   */\n      tag_113\n      jump\t// in\n    tag_179:\n        /* \"#utility.yul\":5184:5185   */\n      0x00\n        /* \"#utility.yul\":5179:5182   */\n      dup3\n        /* \"#utility.yul\":5175:5186   */\n      add\n        /* \"#utility.yul\":5168:5186   */\n      swap1\n      pop\n        /* \"#utility.yul\":4794:5192   */\n      swap2\n      swap1\n      pop\n      jump\t// out\n        /* \"#utility.yul\":5198:5577   */\n    tag_56:\n        /* \"#utility.yul\":5382:5385   */\n      0x00\n        /* \"#utility.yul\":5404:5551   */\n      tag_181\n        /* \"#utility.yul\":5547:5550   */\n      dup3\n        /* \"#utility.yul\":5404:5551   */\n      tag_114\n      jump\t// in\n    tag_181:\n        /* \"#utility.yul\":5397:5551   */\n      swap2\n      pop\n        /* \"#utility.yul\":5568:5571   */\n      dup2\n        /* \"#utility.yul\":5561:5571   */\n      swap1\n      pop\n        /* \"#utility.yul\":5198:5577   */\n      swap2\n      swap1\n      pop\n      jump\t// out\n        /* \"#utility.yul\":5583:5744   */\n    tag_115:\n        /* \"#utility.yul\":5723:5736   */\n      0x43616c6c206661696c6564000000000000000000000000000000000000000000\n        /* \"#utility.yul\":5719:5720   */\n      0x00\n        /* \"#utility.yul\":5711:5717   */\n      dup3\n        /* \"#utility.yul\":5707:5721   */\n      add\n        /* \"#utility.yul\":5700:5737   */\n      mstore\n        /* \"#utility.yul\":5583:5744   */\n      pop\n      jump\t// out\n        /* \"#utility.yul\":5750:6116   */\n    tag_116:\n        /* \"#utility.yul\":5892:5895   */\n      0x00\n        /* \"#utility.yul\":5913:5980   */\n      tag_184\n        /* \"#utility.yul\":5977:5979   */\n      0x0b\n        /* \"#utility.yul\":5972:5975   */\n      dup4\n        /* \"#utility.yul\":5913:5980   */\n      tag_108\n      jump\t// in\n    tag_184:\n        /* \"#utility.yul\":5906:5980   */\n      swap2\n      pop\n        /* \"#utility.yul\":5989:6082   */\n      tag_185\n        /* \"#utility.yul\":6078:6081   */\n      dup3\n        /* \"#utility.yul\":5989:6082   */\n      tag_115\n      jump\t// in\n    tag_185:\n        /* \"#utility.yul\":6107:6109   */\n      0x20\n        /* \"#utility.yul\":6102:6105   */\n      dup3\n        /* \"#utility.yul\":6098:6110   */\n      add\n        /* \"#utility.yul\":6091:6110   */\n      swap1\n      pop\n        /* \"#utility.yul\":5750:6116   */\n      swap2\n      swap1\n      pop\n      jump\t// out\n        /* \"#utility.yul\":6122:6541   */\n    tag_62:\n        /* \"#utility.yul\":6288:6292   */\n      0x00\n        /* \"#utility.yul\":6326:6328   */\n      0x20\n        /* \"#utility.yul\":6315:6324   */\n      dup3\n        /* \"#utility.yul\":6311:6329   */\n      add\n        /* \"#utility.yul\":6303:6329   */\n      swap1\n      pop\n        /* \"#utility.yul\":6375:6384   */\n      dup2\n        /* \"#utility.yul\":6369:6373   */\n      dup2\n        /* \"#utility.yul\":6365:6385   */\n      sub\n        /* \"#utility.yul\":6361:6362   */\n      0x00\n        /* \"#utility.yul\":6350:6359   */\n      dup4\n        /* \"#utility.yul\":6346:6363   */\n      add\n        /* \"#utility.yul\":6339:6386   */\n      mstore\n        /* \"#utility.yul\":6403:6534   */\n      tag_187\n        /* \"#utility.yul\":6529:6533   */\n      dup2\n        /* \"#utility.yul\":6403:6534   */\n      tag_116\n      jump\t// in\n    tag_187:\n        /* \"#utility.yul\":6395:6534   */\n      swap1\n      pop\n        /* \"#utility.yul\":6122:6541   */\n      swap2\n      swap1\n      pop\n      jump\t// out\n        /* \"#utility.yul\":6547:6716   */\n    tag_117:\n        /* \"#utility.yul\":6687:6708   */\n      0x4469646e27742073656e6420656e6f7567682100000000000000000000000000\n        /* \"#utility.yul\":6683:6684   */\n      0x00\n        /* \"#utility.yul\":6675:6681   */\n      dup3\n        /* \"#utility.yul\":6671:6685   */\n      add\n        /* \"#utility.yul\":6664:6709   */\n      mstore\n        /* \"#utility.yul\":6547:6716   */\n      pop\n      jump\t// out\n        /* \"#utility.yul\":6722:7088   */\n    tag_118:\n        /* \"#utility.yul\":6864:6867   */\n      0x00\n        /* \"#utility.yul\":6885:6952   */\n      tag_190\n        /* \"#utility.yul\":6949:6951   */\n      0x13\n        /* \"#utility.yul\":6944:6947   */\n      dup4\n        /* \"#utility.yul\":6885:6952   */\n      tag_108\n      jump\t// in\n    tag_190:\n        /* \"#utility.yul\":6878:6952   */\n      swap2\n      pop\n        /* \"#utility.yul\":6961:7054   */\n      tag_191\n        /* \"#utility.yul\":7050:7053   */\n      dup3\n        /* \"#utility.yul\":6961:7054   */\n      tag_117\n      jump\t// in\n    tag_191:\n        /* \"#utility.yul\":7079:7081   */\n      0x20\n        /* \"#utility.yul\":7074:7077   */\n      dup3\n        /* \"#utility.yul\":7070:7082   */\n      add\n        /* \"#utility.yul\":7063:7082   */\n      swap1\n      pop\n        /* \"#utility.yul\":6722:7088   */\n      swap2\n      swap1\n      pop\n      jump\t// out\n        /* \"#utility.yul\":7094:7513   */\n    tag_68:\n        /* \"#utility.yul\":7260:7264   */\n      0x00\n        /* \"#utility.yul\":7298:7300   */\n      0x20\n        /* \"#utility.yul\":7287:7296   */\n      dup3\n        /* \"#utility.yul\":7283:7301   */\n      add\n        /* \"#utility.yul\":7275:7301   */\n      swap1\n      pop\n        /* \"#utility.yul\":7347:7356   */\n      dup2\n        /* \"#utility.yul\":7341:7345   */\n      dup2\n        /* \"#utility.yul\":7337:7357   */\n      sub\n        /* \"#utility.yul\":7333:7334   */\n      0x00\n        /* \"#utility.yul\":7322:7331   */\n      dup4\n        /* \"#utility.yul\":7318:7335   */\n      add\n        /* \"#utility.yul\":7311:7358   */\n      mstore\n        /* \"#utility.yul\":7375:7506   */\n      tag_193\n        /* \"#utility.yul\":7501:7505   */\n      dup2\n        /* \"#utility.yul\":7375:7506   */\n      tag_118\n      jump\t// in\n    tag_193:\n        /* \"#utility.yul\":7367:7506   */\n      swap1\n      pop\n        /* \"#utility.yul\":7094:7513   */\n      swap2\n      swap1\n      pop\n      jump\t// out\n        /* \"#utility.yul\":7519:7824   */\n    tag_71:\n        /* \"#utility.yul\":7559:7562   */\n      0x00\n        /* \"#utility.yul\":7578:7598   */\n      tag_195\n        /* \"#utility.yul\":7596:7597   */\n      dup3\n        /* \"#utility.yul\":7578:7598   */\n      tag_103\n      jump\t// in\n    tag_195:\n        /* \"#utility.yul\":7573:7598   */\n      swap2\n      pop\n        /* \"#utility.yul\":7612:7632   */\n      tag_196\n        /* \"#utility.yul\":7630:7631   */\n      dup4\n        /* \"#utility.yul\":7612:7632   */\n      tag_103\n      jump\t// in\n    tag_196:\n        /* \"#utility.yul\":7607:7632   */\n      swap3\n      pop\n        /* \"#utility.yul\":7766:7767   */\n      dup3\n        /* \"#utility.yul\":7698:7764   */\n      0xffffffffffffffffffffffffffffffffffffffffffffffffffffffffffffffff\n        /* \"#utility.yul\":7694:7768   */\n      sub\n        /* \"#utility.yul\":7691:7692   */\n      dup3\n        /* \"#utility.yul\":7688:7769   */\n      gt\n        /* \"#utility.yul\":7685:7792   */\n      iszero\n      tag_197\n      jumpi\n        /* \"#utility.yul\":7772:7790   */\n      tag_198\n      tag_111\n      jump\t// in\n    tag_198:\n        /* \"#utility.yul\":7685:7792   */\n    tag_197:\n        /* \"#utility.yul\":7816:7817   */\n      dup3\n        /* \"#utility.yul\":7813:7814   */\n      dup3\n        /* \"#utility.yul\":7809:7818   */\n      add\n        /* \"#utility.yul\":7802:7818   */\n      swap1\n      pop\n        /* \"#utility.yul\":7519:7824   */\n      swap3\n      swap2\n      pop\n      pop\n      jump\t// out\n        /* \"#utility.yul\":7830:8178   */\n    tag_78:\n        /* \"#utility.yul\":7870:7877   */\n      0x00\n        /* \"#utility.yul\":7893:7913   */\n      tag_200\n        /* \"#utility.yul\":7911:7912   */\n      dup3\n        /* \"#utility.yul\":7893:7913   */\n      tag_103\n      jump\t// in\n    tag_200:\n        /* \"#utility.yul\":7888:7913   */\n      swap2\n      pop\n        /* \"#utility.yul\":7927:7947   */\n      tag_201\n        /* \"#utility.yul\":7945:7946   */\n      dup4\n        /* \"#utility.yul\":7927:7947   */\n      tag_103\n      jump\t// in\n    tag_201:\n        /* \"#utility.yul\":7922:7947   */\n      swap3\n      pop\n        /* \"#utility.yul\":8115:8116   */\n      dup2\n        /* \"#utility.yul\":8047:8113   */\n      0xffffffffffffffffffffffffffffffffffffffffffffffffffffffffffffffff\n        /* \"#utility.yul\":8043:8117   */\n      div\n        /* \"#utility.yul\":8040:8041   */\n      dup4\n        /* \"#utility.yul\":8037:8118   */\n      gt\n        /* \"#utility.yul\":8032:8033   */\n      dup3\n        /* \"#utility.yul\":8025:8034   */\n      iszero\n        /* \"#utility.yul\":8018:8035   */\n      iszero\n        /* \"#utility.yul\":8014:8119   */\n      and\n        /* \"#utility.yul\":8011:8142   */\n      iszero\n      tag_202\n      jumpi\n        /* \"#utility.yul\":8122:8140   */\n      tag_203\n      tag_111\n      jump\t// in\n    tag_203:\n        /* \"#utility.yul\":8011:8142   */\n    tag_202:\n        /* \"#utility.yul\":8170:8171   */\n      dup3\n        /* \"#utility.yul\":8167:8168   */\n      dup3\n        /* \"#utility.yul\":8163:8172   */\n      mul\n        /* \"#utility.yul\":8152:8172   */\n      swap1\n      pop\n        /* \"#utility.yul\":7830:8178   */\n      swap3\n      swap2\n      pop\n      pop\n      jump\t// out\n        /* \"#utility.yul\":8184:8364   */\n    tag_119:\n        /* \"#utility.yul\":8232:8309   */\n      0x4e487b7100000000000000000000000000000000000000000000000000000000\n        /* \"#utility.yul\":8229:8230   */\n      0x00\n        /* \"#utility.yul\":8222:8310   */\n      mstore\n        /* \"#utility.yul\":8329:8333   */\n      0x12\n        /* \"#utility.yul\":8326:8327   */\n      0x04\n        /* \"#utility.yul\":8319:8334   */\n      mstore\n        /* \"#utility.yul\":8353:8357   */\n      0x24\n        /* \"#utility.yul\":8350:8351   */\n      0x00\n        /* \"#utility.yul\":8343:8358   */\n      revert\n        /* \"#utility.yul\":8370:8555   */\n    tag_80:\n        /* \"#utility.yul\":8410:8411   */\n      0x00\n        /* \"#utility.yul\":8427:8447   */\n      tag_206\n        /* \"#utility.yul\":8445:8446   */\n      dup3\n        /* \"#utility.yul\":8427:8447   */\n      tag_103\n      jump\t// in\n    tag_206:\n        /* \"#utility.yul\":8422:8447   */\n      swap2\n      pop\n        /* \"#utility.yul\":8461:8481   */\n      tag_207\n        /* \"#utility.yul\":8479:8480   */\n      dup4\n        /* \"#utility.yul\":8461:8481   */\n      tag_103\n      jump\t// in\n    tag_207:\n        /* \"#utility.yul\":8456:8481   */\n      swap3\n      pop\n        /* \"#utility.yul\":8500:8501   */\n      dup3\n        /* \"#utility.yul\":8490:8525   */\n      tag_208\n      jumpi\n        /* \"#utility.yul\":8505:8523   */\n      tag_209\n      tag_119\n      jump\t// in\n    tag_209:\n        /* \"#utility.yul\":8490:8525   */\n    tag_208:\n        /* \"#utility.yul\":8547:8548   */\n      dup3\n        /* \"#utility.yul\":8544:8545   */\n      dup3\n        /* \"#utility.yul\":8540:8549   */\n      div\n        /* \"#utility.yul\":8535:8549   */\n      swap1\n      pop\n        /* \"#utility.yul\":8370:8555   */\n      swap3\n      swap2\n      pop\n      pop\n      jump\t// out\n        /* \"#utility.yul\":8561:8666   */\n    tag_120:\n        /* \"#utility.yul\":8597:8604   */\n      0x00\n        /* \"#utility.yul\":8637:8659   */\n      0xffffffffffffffffffff\n        /* \"#utility.yul\":8630:8635   */\n      dup3\n        /* \"#utility.yul\":8626:8660   */\n      and\n        /* \"#utility.yul\":8615:8660   */\n      swap1\n      pop\n        /* \"#utility.yul\":8561:8666   */\n      swap2\n      swap1\n      pop\n      jump\t// out\n        /* \"#utility.yul\":8672:8792   */\n    tag_121:\n        /* \"#utility.yul\":8744:8767   */\n      tag_212\n        /* \"#utility.yul\":8761:8766   */\n      dup2\n        /* \"#utility.yul\":8744:8767   */\n      tag_120\n      jump\t// in\n    tag_212:\n        /* \"#utility.yul\":8737:8742   */\n      dup2\n        /* \"#utility.yul\":8734:8768   */\n      eq\n        /* \"#utility.yul\":8724:8786   */\n      tag_213\n      jumpi\n        /* \"#utility.yul\":8782:8783   */\n      0x00\n        /* \"#utility.yul\":8779:8780   */\n      dup1\n        /* \"#utility.yul\":8772:8784   */\n      revert\n        /* \"#utility.yul\":8724:8786   */\n    tag_213:\n        /* \"#utility.yul\":8672:8792   */\n      pop\n      jump\t// out\n        /* \"#utility.yul\":8798:8939   */\n    tag_122:\n        /* \"#utility.yul\":8854:8859   */\n      0x00\n        /* \"#utility.yul\":8885:8891   */\n      dup2\n        /* \"#utility.yul\":8879:8892   */\n      mload\n        /* \"#utility.yul\":8870:8892   */\n      swap1\n      pop\n        /* \"#utility.yul\":8901:8933   */\n      tag_215\n        /* \"#utility.yul\":8927:8932   */\n      dup2\n        /* \"#utility.yul\":8901:8933   */\n      tag_121\n      jump\t// in\n    tag_215:\n        /* \"#utility.yul\":8798:8939   */\n      swap3\n      swap2\n      pop\n      pop\n      jump\t// out\n        /* \"#utility.yul\":8945:9021   */\n    tag_123:\n        /* \"#utility.yul\":8981:8988   */\n      0x00\n        /* \"#utility.yul\":9010:9015   */\n      dup2\n        /* \"#utility.yul\":8999:9015   */\n      swap1\n      pop\n        /* \"#utility.yul\":8945:9021   */\n      swap2\n      swap1\n      pop\n      jump\t// out\n        /* \"#utility.yul\":9027:9147   */\n    tag_124:\n        /* \"#utility.yul\":9099:9122   */\n      tag_218\n        /* \"#utility.yul\":9116:9121   */\n      dup2\n        /* \"#utility.yul\":9099:9122   */\n      tag_123\n      jump\t// in\n    tag_218:\n        /* \"#utility.yul\":9092:9097   */\n      dup2\n        /* \"#utility.yul\":9089:9123   */\n      eq\n        /* \"#utility.yul\":9079:9141   */\n      tag_219\n      jumpi\n        /* \"#utility.yul\":9137:9138   */\n      0x00\n        /* \"#utility.yul\":9134:9135   */\n      dup1\n        /* \"#utility.yul\":9127:9139   */\n      revert\n        /* \"#utility.yul\":9079:9141   */\n    tag_219:\n        /* \"#utility.yul\":9027:9147   */\n      pop\n      jump\t// out\n        /* \"#utility.yul\":9153:9294   */\n    tag_125:\n        /* \"#utility.yul\":9209:9214   */\n      0x00\n        /* \"#utility.yul\":9240:9246   */\n      dup2\n        /* \"#utility.yul\":9234:9247   */\n      mload\n        /* \"#utility.yul\":9225:9247   */\n      swap1\n      pop\n        /* \"#utility.yul\":9256:9288   */\n      tag_221\n        /* \"#utility.yul\":9282:9287   */\n      dup2\n        /* \"#utility.yul\":9256:9288   */\n      tag_124\n      jump\t// in\n    tag_221:\n        /* \"#utility.yul\":9153:9294   */\n      swap3\n      swap2\n      pop\n      pop\n      jump\t// out\n        /* \"#utility.yul\":9300:9443   */\n    tag_126:\n        /* \"#utility.yul\":9357:9362   */\n      0x00\n        /* \"#utility.yul\":9388:9394   */\n      dup2\n        /* \"#utility.yul\":9382:9395   */\n      mload\n        /* \"#utility.yul\":9373:9395   */\n      swap1\n      pop\n        /* \"#utility.yul\":9404:9437   */\n      tag_223\n        /* \"#utility.yul\":9431:9436   */\n      dup2\n        /* \"#utility.yul\":9404:9437   */\n      tag_106\n      jump\t// in\n    tag_223:\n        /* \"#utility.yul\":9300:9443   */\n      swap3\n      swap2\n      pop\n      pop\n      jump\t// out\n        /* \"#utility.yul\":9449:10420   */\n    tag_86:\n        /* \"#utility.yul\":9552:9558   */\n      0x00\n        /* \"#utility.yul\":9560:9566   */\n      dup1\n        /* \"#utility.yul\":9568:9574   */\n      0x00\n        /* \"#utility.yul\":9576:9582   */\n      dup1\n        /* \"#utility.yul\":9584:9590   */\n      0x00\n        /* \"#utility.yul\":9633:9636   */\n      0xa0\n        /* \"#utility.yul\":9621:9630   */\n      dup7\n        /* \"#utility.yul\":9612:9619   */\n      dup9\n        /* \"#utility.yul\":9608:9631   */\n      sub\n        /* \"#utility.yul\":9604:9637   */\n      slt\n        /* \"#utility.yul\":9601:9721   */\n      iszero\n      tag_225\n      jumpi\n        /* \"#utility.yul\":9640:9719   */\n      tag_226\n      tag_97\n      jump\t// in\n    tag_226:\n        /* \"#utility.yul\":9601:9721   */\n    tag_225:\n        /* \"#utility.yul\":9760:9761   */\n      0x00\n        /* \"#utility.yul\":9785:9848   */\n      tag_227\n        /* \"#utility.yul\":9840:9847   */\n      dup9\n        /* \"#utility.yul\":9831:9837   */\n      dup3\n        /* \"#utility.yul\":9820:9829   */\n      dup10\n        /* \"#utility.yul\":9816:9838   */\n      add\n        /* \"#utility.yul\":9785:9848   */\n      tag_122\n      jump\t// in\n    tag_227:\n        /* \"#utility.yul\":9775:9848   */\n      swap6\n      pop\n        /* \"#utility.yul\":9731:9858   */\n      pop\n        /* \"#utility.yul\":9897:9899   */\n      0x20\n        /* \"#utility.yul\":9923:9986   */\n      tag_228\n        /* \"#utility.yul\":9978:9985   */\n      dup9\n        /* \"#utility.yul\":9969:9975   */\n      dup3\n        /* \"#utility.yul\":9958:9967   */\n      dup10\n        /* \"#utility.yul\":9954:9976   */\n      add\n        /* \"#utility.yul\":9923:9986   */\n      tag_125\n      jump\t// in\n    tag_228:\n        /* \"#utility.yul\":9913:9986   */\n      swap5\n      pop\n        /* \"#utility.yul\":9868:9996   */\n      pop\n        /* \"#utility.yul\":10035:10037   */\n      0x40\n        /* \"#utility.yul\":10061:10125   */\n      tag_229\n        /* \"#utility.yul\":10117:10124   */\n      dup9\n        /* \"#utility.yul\":10108:10114   */\n      dup3\n        /* \"#utility.yul\":10097:10106   */\n      dup10\n        /* \"#utility.yul\":10093:10115   */\n      add\n        /* \"#utility.yul\":10061:10125   */\n      tag_126\n      jump\t// in\n    tag_229:\n        /* \"#utility.yul\":10051:10125   */\n      swap4\n      pop\n        /* \"#utility.yul\":10006:10135   */\n      pop\n        /* \"#utility.yul\":10174:10176   */\n      0x60\n        /* \"#utility.yul\":10200:10264   */\n      tag_230\n        /* \"#utility.yul\":10256:10263   */\n      dup9\n        /* \"#utility.yul\":10247:10253   */\n      dup3\n        /* \"#utility.yul\":10236:10245   */\n      dup10\n        /* \"#utility.yul\":10232:10254   */\n      add\n        /* \"#utility.yul\":10200:10264   */\n      tag_126\n      jump\t// in\n    tag_230:\n        /* \"#utility.yul\":10190:10264   */\n      swap3\n      pop\n        /* \"#utility.yul\":10145:10274   */\n      pop\n        /* \"#utility.yul\":10313:10316   */\n      0x80\n        /* \"#utility.yul\":10340:10403   */\n      tag_231\n        /* \"#utility.yul\":10395:10402   */\n      dup9\n        /* \"#utility.yul\":10386:10392   */\n      dup3\n        /* \"#utility.yul\":10375:10384   */\n      dup10\n        /* \"#utility.yul\":10371:10393   */\n      add\n        /* \"#utility.yul\":10340:10403   */\n      tag_122\n      jump\t// in\n    tag_231:\n        /* \"#utility.yul\":10330:10403   */\n      swap2\n      pop\n        /* \"#utility.yul\":10284:10413   */\n      pop\n        /* \"#utility.yul\":9449:10420   */\n      swap3\n      swap6\n      pop\n      swap3\n      swap6\n      swap1\n      swap4\n      pop\n      jump\t// out\n        /* \"#utility.yul\":10426:11417   */\n    tag_88:\n        /* \"#utility.yul\":10465:10472   */\n      0x00\n        /* \"#utility.yul\":10488:10507   */\n      tag_233\n        /* \"#utility.yul\":10505:10506   */\n      dup3\n        /* \"#utility.yul\":10488:10507   */\n      tag_123\n      jump\t// in\n    tag_233:\n        /* \"#utility.yul\":10483:10507   */\n      swap2\n      pop\n        /* \"#utility.yul\":10521:10540   */\n      tag_234\n        /* \"#utility.yul\":10538:10539   */\n      dup4\n        /* \"#utility.yul\":10521:10540   */\n      tag_123\n      jump\t// in\n    tag_234:\n        /* \"#utility.yul\":10516:10540   */\n      swap3\n      pop\n        /* \"#utility.yul\":10722:10723   */\n      dup3\n        /* \"#utility.yul\":10654:10720   */\n      0x7fffffffffffffffffffffffffffffffffffffffffffffffffffffffffffffff\n        /* \"#utility.yul\":10650:10724   */\n      div\n        /* \"#utility.yul\":10647:10648   */\n      dup3\n        /* \"#utility.yul\":10644:10725   */\n      gt\n        /* \"#utility.yul\":10639:10640   */\n      0x00\n        /* \"#utility.yul\":10636:10637   */\n      dup5\n        /* \"#utility.yul\":10632:10641   */\n      sgt\n        /* \"#utility.yul\":10628:10629   */\n      0x00\n        /* \"#utility.yul\":10625:10626   */\n      dup5\n        /* \"#utility.yul\":10621:10630   */\n      sgt\n        /* \"#utility.yul\":10617:10642   */\n      and\n        /* \"#utility.yul\":10613:10726   */\n      and\n        /* \"#utility.yul\":10610:10749   */\n      iszero\n      tag_235\n      jumpi\n        /* \"#utility.yul\":10729:10747   */\n      tag_236\n      tag_111\n      jump\t// in\n    tag_236:\n        /* \"#utility.yul\":10610:10749   */\n    tag_235:\n        /* \"#utility.yul\":10933:10934   */\n      dup2\n        /* \"#utility.yul\":10865:10931   */\n      0x8000000000000000000000000000000000000000000000000000000000000000\n        /* \"#utility.yul\":10860:10935   */\n      sdiv\n        /* \"#utility.yul\":10857:10858   */\n      dup4\n        /* \"#utility.yul\":10853:10936   */\n      slt\n        /* \"#utility.yul\":10848:10849   */\n      0x00\n        /* \"#utility.yul\":10845:10846   */\n      dup5\n        /* \"#utility.yul\":10841:10850   */\n      slt\n        /* \"#utility.yul\":10837:10838   */\n      0x00\n        /* \"#utility.yul\":10834:10835   */\n      dup5\n        /* \"#utility.yul\":10830:10839   */\n      sgt\n        /* \"#utility.yul\":10826:10851   */\n      and\n        /* \"#utility.yul\":10822:10937   */\n      and\n        /* \"#utility.yul\":10819:10960   */\n      iszero\n      tag_237\n      jumpi\n        /* \"#utility.yul\":10940:10958   */\n      tag_238\n      tag_111\n      jump\t// in\n    tag_238:\n        /* \"#utility.yul\":10819:10960   */\n    tag_237:\n        /* \"#utility.yul\":11144:11145   */\n      dup3\n        /* \"#utility.yul\":11076:11142   */\n      0x8000000000000000000000000000000000000000000000000000000000000000\n        /* \"#utility.yul\":11071:11146   */\n      sdiv\n        /* \"#utility.yul\":11068:11069   */\n      dup3\n        /* \"#utility.yul\":11064:11147   */\n      slt\n        /* \"#utility.yul\":11059:11060   */\n      0x00\n        /* \"#utility.yul\":11056:11057   */\n      dup5\n        /* \"#utility.yul\":11052:11061   */\n      sgt\n        /* \"#utility.yul\":11048:11049   */\n      0x00\n        /* \"#utility.yul\":11045:11046   */\n      dup5\n        /* \"#utility.yul\":11041:11050   */\n      slt\n        /* \"#utility.yul\":11037:11062   */\n      and\n        /* \"#utility.yul\":11033:11148   */\n      and\n        /* \"#utility.yul\":11030:11171   */\n      iszero\n      tag_239\n      jumpi\n        /* \"#utility.yul\":11151:11169   */\n      tag_240\n      tag_111\n      jump\t// in\n    tag_240:\n        /* \"#utility.yul\":11030:11171   */\n    tag_239:\n        /* \"#utility.yul\":11354:11355   */\n      dup3\n        /* \"#utility.yul\":11286:11352   */\n      0x7fffffffffffffffffffffffffffffffffffffffffffffffffffffffffffffff\n        /* \"#utility.yul\":11281:11356   */\n      sdiv\n        /* \"#utility.yul\":11278:11279   */\n      dup3\n        /* \"#utility.yul\":11274:11357   */\n      slt\n        /* \"#utility.yul\":11269:11270   */\n      0x00\n        /* \"#utility.yul\":11266:11267   */\n      dup5\n        /* \"#utility.yul\":11262:11271   */\n      slt\n        /* \"#utility.yul\":11258:11259   */\n      0x00\n        /* \"#utility.yul\":11255:11256   */\n      dup5\n        /* \"#utility.yul\":11251:11260   */\n      slt\n        /* \"#utility.yul\":11247:11272   */\n      and\n        /* \"#utility.yul\":11243:11358   */\n      and\n        /* \"#utility.yul\":11240:11381   */\n      iszero\n      tag_241\n      jumpi\n        /* \"#utility.yul\":11361:11379   */\n      tag_242\n      tag_111\n      jump\t// in\n    tag_242:\n        /* \"#utility.yul\":11240:11381   */\n    tag_241:\n        /* \"#utility.yul\":11409:11410   */\n      dup3\n        /* \"#utility.yul\":11406:11407   */\n      dup3\n        /* \"#utility.yul\":11402:11411   */\n      mul\n        /* \"#utility.yul\":11391:11411   */\n      swap1\n      pop\n        /* \"#utility.yul\":10426:11417   */\n      swap3\n      swap2\n      pop\n      pop\n      jump\t// out\n\n    auxdata: 0xa2646970667358221220481ac615d19f0a9aec988eb664b5cec9b69ccf7c1d2a18878aee48a9b817b1a064736f6c63430008080033\n}\n",
				"bytecode": {
					"linkReferences": {},
					"object": "60a060405234801561001057600080fd5b503373ffffffffffffffffffffffffffffffffffffffff1660808173ffffffffffffffffffffffffffffffffffffffff1660601b8152505060805160601c610de161006d6000396000818161014d01526104ca0152610de16000f3fe6080604052600436106100555760003560e01c80633ccfd60b1461005a5780633e47d6f3146100715780636b69a592146100ae578063b60d4288146100d9578063dba6335f146100e3578063dc0d3dff1461010e575b600080fd5b34801561006657600080fd5b5061006f61014b565b005b34801561007d57600080fd5b5061009860048036038101906100939190610727565b610394565b6040516100a5919061076d565b60405180910390f35b3480156100ba57600080fd5b506100c36103ac565b6040516100d0919061076d565b60405180910390f35b6100e16103b9565b005b3480156100ef57600080fd5b506100f86104c8565b6040516101059190610797565b60405180910390f35b34801561011a57600080fd5b50610135600480360381019061013091906107de565b6104ec565b6040516101429190610797565b60405180910390f35b7f000000000000000000000000000000000000000000000000000000000000000073ffffffffffffffffffffffffffffffffffffffff163373ffffffffffffffffffffffffffffffffffffffff16146101d9576040517f08c379a00000000000000000000000000000000000000000000000000000000081526004016101d090610868565b60405180910390fd5b60005b6000805490508110156102845760008082815481106101fe576101fd610888565b5b9060005260206000200160009054906101000a900473ffffffffffffffffffffffffffffffffffffffff1690506000600160008373ffffffffffffffffffffffffffffffffffffffff1673ffffffffffffffffffffffffffffffffffffffff1681526020019081526020016000208190555050808061027c906108e6565b9150506101dc565b50600067ffffffffffffffff8111156102a05761029f61092f565b5b6040519080825280602002602001820160405280156102ce5781602001602082028036833780820191505090505b50600090805190602001906102e492919061061d565b5060003373ffffffffffffffffffffffffffffffffffffffff164760405161030b9061098f565b60006040518083038185875af1925050503d8060008114610348576040519150601f19603f3d011682016040523d82523d6000602084013e61034d565b606091505b5050905080610391576040517f08c379a0000000000000000000000000000000000000000000000000000000008152600401610388906109f0565b60405180910390fd5b50565b60016020528060005260406000206000915090505481565b6801158e460913d0000081565b6801158e460913d000006103cc3461052b565b101561040d576040517f08c379a000000000000000000000000000000000000000000000000000000000815260040161040490610a5c565b60405180910390fd5b6000339080600181540180825580915050600190039060005260206000200160009091909190916101000a81548173ffffffffffffffffffffffffffffffffffffffff021916908373ffffffffffffffffffffffffffffffffffffffff16021790555034600160003373ffffffffffffffffffffffffffffffffffffffff1673ffffffffffffffffffffffffffffffffffffffff16815260200190815260200160002060008282546104bf9190610a7c565b92505081905550565b7f000000000000000000000000000000000000000000000000000000000000000081565b600081815481106104fc57600080fd5b906000526020600020016000915054906101000a900473ffffffffffffffffffffffffffffffffffffffff1681565b600080610536610565565b90506000670de0b6b3a7640000848361054f9190610ad2565b6105599190610b5b565b90508092505050919050565b60008073d4a33860578de61dbabdc8bfdb98fd742fa7028e905060008173ffffffffffffffffffffffffffffffffffffffff1663feaf968c6040518163ffffffff1660e01b815260040160a06040518083038186803b1580156105c757600080fd5b505afa1580156105db573d6000803e3d6000fd5b505050506040513d601f19601f820116820180604052508101906105ff9190610c19565b5050509150506402540be400816106169190610c94565b9250505090565b828054828255906000526020600020908101928215610696579160200282015b828111156106955782518260006101000a81548173ffffffffffffffffffffffffffffffffffffffff021916908373ffffffffffffffffffffffffffffffffffffffff1602179055509160200191906001019061063d565b5b5090506106a391906106a7565b5090565b5b808211156106c05760008160009055506001016106a8565b5090565b600080fd5b600073ffffffffffffffffffffffffffffffffffffffff82169050919050565b60006106f4826106c9565b9050919050565b610704816106e9565b811461070f57600080fd5b50565b600081359050610721816106fb565b92915050565b60006020828403121561073d5761073c6106c4565b5b600061074b84828501610712565b91505092915050565b6000819050919050565b61076781610754565b82525050565b6000602082019050610782600083018461075e565b92915050565b610791816106e9565b82525050565b60006020820190506107ac6000830184610788565b92915050565b6107bb81610754565b81146107c657600080fd5b50565b6000813590506107d8816107b2565b92915050565b6000602082840312156107f4576107f36106c4565b5b6000610802848285016107c9565b91505092915050565b600082825260208201905092915050565b7f53656e646572206973206e6f74206f776e65722e20576f707a00000000000000600082015250565b600061085260198361080b565b915061085d8261081c565b602082019050919050565b6000602082019050818103600083015261088181610845565b9050919050565b7f4e487b7100000000000000000000000000000000000000000000000000000000600052603260045260246000fd5b7f4e487b7100000000000000000000000000000000000000000000000000000000600052601160045260246000fd5b60006108f182610754565b91507fffffffffffffffffffffffffffffffffffffffffffffffffffffffffffffffff821415610924576109236108b7565b5b600182019050919050565b7f4e487b7100000000000000000000000000000000000000000000000000000000600052604160045260246000fd5b600081905092915050565b50565b600061097960008361095e565b915061098482610969565b600082019050919050565b600061099a8261096c565b9150819050919050565b7f43616c6c206661696c6564000000000000000000000000000000000000000000600082015250565b60006109da600b8361080b565b91506109e5826109a4565b602082019050919050565b60006020820190508181036000830152610a09816109cd565b9050919050565b7f4469646e27742073656e6420656e6f7567682100000000000000000000000000600082015250565b6000610a4660138361080b565b9150610a5182610a10565b602082019050919050565b60006020820190508181036000830152610a7581610a39565b9050919050565b6000610a8782610754565b9150610a9283610754565b9250827fffffffffffffffffffffffffffffffffffffffffffffffffffffffffffffffff03821115610ac757610ac66108b7565b5b828201905092915050565b6000610add82610754565b9150610ae883610754565b9250817fffffffffffffffffffffffffffffffffffffffffffffffffffffffffffffffff0483118215151615610b2157610b206108b7565b5b828202905092915050565b7f4e487b7100000000000000000000000000000000000000000000000000000000600052601260045260246000fd5b6000610b6682610754565b9150610b7183610754565b925082610b8157610b80610b2c565b5b828204905092915050565b600069ffffffffffffffffffff82169050919050565b610bab81610b8c565b8114610bb657600080fd5b50565b600081519050610bc881610ba2565b92915050565b6000819050919050565b610be181610bce565b8114610bec57600080fd5b50565b600081519050610bfe81610bd8565b92915050565b600081519050610c13816107b2565b92915050565b600080600080600060a08688031215610c3557610c346106c4565b5b6000610c4388828901610bb9565b9550506020610c5488828901610bef565b9450506040610c6588828901610c04565b9350506060610c7688828901610c04565b9250506080610c8788828901610bb9565b9150509295509295909350565b6000610c9f82610bce565b9150610caa83610bce565b9250827f7fffffffffffffffffffffffffffffffffffffffffffffffffffffffffffffff0482116000841360008413161615610ce957610ce86108b7565b5b817f80000000000000000000000000000000000000000000000000000000000000000583126000841260008413161615610d2657610d256108b7565b5b827f80000000000000000000000000000000000000000000000000000000000000000582126000841360008412161615610d6357610d626108b7565b5b827f7fffffffffffffffffffffffffffffffffffffffffffffffffffffffffffffff0582126000841260008412161615610da057610d9f6108b7565b5b82820290509291505056fea2646970667358221220481ac615d19f0a9aec988eb664b5cec9b69ccf7c1d2a18878aee48a9b817b1a064736f6c63430008080033",
					"opcodes": "PUSH1 0xA0 PUSH1 0x40 MSTORE CALLVALUE DUP1 ISZERO PUSH2 0x10 JUMPI PUSH1 0x0 DUP1 REVERT JUMPDEST POP CALLER PUSH20 0xFFFFFFFFFFFFFFFFFFFFFFFFFFFFFFFFFFFFFFFF AND PUSH1 0x80 DUP2 PUSH20 0xFFFFFFFFFFFFFFFFFFFFFFFFFFFFFFFFFFFFFFFF AND PUSH1 0x60 SHL DUP2 MSTORE POP POP PUSH1 0x80 MLOAD PUSH1 0x60 SHR PUSH2 0xDE1 PUSH2 0x6D PUSH1 0x0 CODECOPY PUSH1 0x0 DUP2 DUP2 PUSH2 0x14D ADD MSTORE PUSH2 0x4CA ADD MSTORE PUSH2 0xDE1 PUSH1 0x0 RETURN INVALID PUSH1 0x80 PUSH1 0x40 MSTORE PUSH1 0x4 CALLDATASIZE LT PUSH2 0x55 JUMPI PUSH1 0x0 CALLDATALOAD PUSH1 0xE0 SHR DUP1 PUSH4 0x3CCFD60B EQ PUSH2 0x5A JUMPI DUP1 PUSH4 0x3E47D6F3 EQ PUSH2 0x71 JUMPI DUP1 PUSH4 0x6B69A592 EQ PUSH2 0xAE JUMPI DUP1 PUSH4 0xB60D4288 EQ PUSH2 0xD9 JUMPI DUP1 PUSH4 0xDBA6335F EQ PUSH2 0xE3 JUMPI DUP1 PUSH4 0xDC0D3DFF EQ PUSH2 0x10E JUMPI JUMPDEST PUSH1 0x0 DUP1 REVERT JUMPDEST CALLVALUE DUP1 ISZERO PUSH2 0x66 JUMPI PUSH1 0x0 DUP1 REVERT JUMPDEST POP PUSH2 0x6F PUSH2 0x14B JUMP JUMPDEST STOP JUMPDEST CALLVALUE DUP1 ISZERO PUSH2 0x7D JUMPI PUSH1 0x0 DUP1 REVERT JUMPDEST POP PUSH2 0x98 PUSH1 0x4 DUP1 CALLDATASIZE SUB DUP2 ADD SWAP1 PUSH2 0x93 SWAP2 SWAP1 PUSH2 0x727 JUMP JUMPDEST PUSH2 0x394 JUMP JUMPDEST PUSH1 0x40 MLOAD PUSH2 0xA5 SWAP2 SWAP1 PUSH2 0x76D JUMP JUMPDEST PUSH1 0x40 MLOAD DUP1 SWAP2 SUB SWAP1 RETURN JUMPDEST CALLVALUE DUP1 ISZERO PUSH2 0xBA JUMPI PUSH1 0x0 DUP1 REVERT JUMPDEST POP PUSH2 0xC3 PUSH2 0x3AC JUMP JUMPDEST PUSH1 0x40 MLOAD PUSH2 0xD0 SWAP2 SWAP1 PUSH2 0x76D JUMP JUMPDEST PUSH1 0x40 MLOAD DUP1 SWAP2 SUB SWAP1 RETURN JUMPDEST PUSH2 0xE1 PUSH2 0x3B9 JUMP JUMPDEST STOP JUMPDEST CALLVALUE DUP1 ISZERO PUSH2 0xEF JUMPI PUSH1 0x0 DUP1 REVERT JUMPDEST POP PUSH2 0xF8 PUSH2 0x4C8 JUMP JUMPDEST PUSH1 0x40 MLOAD PUSH2 0x105 SWAP2 SWAP1 PUSH2 0x797 JUMP JUMPDEST PUSH1 0x40 MLOAD DUP1 SWAP2 SUB SWAP1 RETURN JUMPDEST CALLVALUE DUP1 ISZERO PUSH2 0x11A JUMPI PUSH1 0x0 DUP1 REVERT JUMPDEST POP PUSH2 0x135 PUSH1 0x4 DUP1 CALLDATASIZE SUB DUP2 ADD SWAP1 PUSH2 0x130 SWAP2 SWAP1 PUSH2 0x7DE JUMP JUMPDEST PUSH2 0x4EC JUMP JUMPDEST PUSH1 0x40 MLOAD PUSH2 0x142 SWAP2 SWAP1 PUSH2 0x797 JUMP JUMPDEST PUSH1 0x40 MLOAD DUP1 SWAP2 SUB SWAP1 RETURN JUMPDEST PUSH32 0x0 PUSH20 0xFFFFFFFFFFFFFFFFFFFFFFFFFFFFFFFFFFFFFFFF AND CALLER PUSH20 0xFFFFFFFFFFFFFFFFFFFFFFFFFFFFFFFFFFFFFFFF AND EQ PUSH2 0x1D9 JUMPI PUSH1 0x40 MLOAD PUSH32 0x8C379A000000000000000000000000000000000000000000000000000000000 DUP2 MSTORE PUSH1 0x4 ADD PUSH2 0x1D0 SWAP1 PUSH2 0x868 JUMP JUMPDEST PUSH1 0x40 MLOAD DUP1 SWAP2 SUB SWAP1 REVERT JUMPDEST PUSH1 0x0 JUMPDEST PUSH1 0x0 DUP1 SLOAD SWAP1 POP DUP2 LT ISZERO PUSH2 0x284 JUMPI PUSH1 0x0 DUP1 DUP3 DUP2 SLOAD DUP2 LT PUSH2 0x1FE JUMPI PUSH2 0x1FD PUSH2 0x888 JUMP JUMPDEST JUMPDEST SWAP1 PUSH1 0x0 MSTORE PUSH1 0x20 PUSH1 0x0 KECCAK256 ADD PUSH1 0x0 SWAP1 SLOAD SWAP1 PUSH2 0x100 EXP SWAP1 DIV PUSH20 0xFFFFFFFFFFFFFFFFFFFFFFFFFFFFFFFFFFFFFFFF AND SWAP1 POP PUSH1 0x0 PUSH1 0x1 PUSH1 0x0 DUP4 PUSH20 0xFFFFFFFFFFFFFFFFFFFFFFFFFFFFFFFFFFFFFFFF AND PUSH20 0xFFFFFFFFFFFFFFFFFFFFFFFFFFFFFFFFFFFFFFFF AND DUP2 MSTORE PUSH1 0x20 ADD SWAP1 DUP2 MSTORE PUSH1 0x20 ADD PUSH1 0x0 KECCAK256 DUP2 SWAP1 SSTORE POP POP DUP1 DUP1 PUSH2 0x27C SWAP1 PUSH2 0x8E6 JUMP JUMPDEST SWAP2 POP POP PUSH2 0x1DC JUMP JUMPDEST POP PUSH1 0x0 PUSH8 0xFFFFFFFFFFFFFFFF DUP2 GT ISZERO PUSH2 0x2A0 JUMPI PUSH2 0x29F PUSH2 0x92F JUMP JUMPDEST JUMPDEST PUSH1 0x40 MLOAD SWAP1 DUP1 DUP3 MSTORE DUP1 PUSH1 0x20 MUL PUSH1 0x20 ADD DUP3 ADD PUSH1 0x40 MSTORE DUP1 ISZERO PUSH2 0x2CE JUMPI DUP2 PUSH1 0x20 ADD PUSH1 0x20 DUP3 MUL DUP1 CALLDATASIZE DUP4 CALLDATACOPY DUP1 DUP3 ADD SWAP2 POP POP SWAP1 POP JUMPDEST POP PUSH1 0x0 SWAP1 DUP1 MLOAD SWAP1 PUSH1 0x20 ADD SWAP1 PUSH2 0x2E4 SWAP3 SWAP2 SWAP1 PUSH2 0x61D JUMP JUMPDEST POP PUSH1 0x0 CALLER PUSH20 0xFFFFFFFFFFFFFFFFFFFFFFFFFFFFFFFFFFFFFFFF AND SELFBALANCE PUSH1 0x40 MLOAD PUSH2 0x30B SWAP1 PUSH2 0x98F JUMP JUMPDEST PUSH1 0x0 PUSH1 0x40 MLOAD DUP1 DUP4 SUB DUP2 DUP6 DUP8 GAS CALL SWAP3 POP POP POP RETURNDATASIZE DUP1 PUSH1 0x0 DUP2 EQ PUSH2 0x348 JUMPI PUSH1 0x40 MLOAD SWAP2 POP PUSH1 0x1F NOT PUSH1 0x3F RETURNDATASIZE ADD AND DUP3 ADD PUSH1 0x40 MSTORE RETURNDATASIZE DUP3 MSTORE RETURNDATASIZE PUSH1 0x0 PUSH1 0x20 DUP5 ADD RETURNDATACOPY PUSH2 0x34D JUMP JUMPDEST PUSH1 0x60 SWAP2 POP JUMPDEST POP POP SWAP1 POP DUP1 PUSH2 0x391 JUMPI PUSH1 0x40 MLOAD PUSH32 0x8C379A000000000000000000000000000000000000000000000000000000000 DUP2 MSTORE PUSH1 0x4 ADD PUSH2 0x388 SWAP1 PUSH2 0x9F0 JUMP JUMPDEST PUSH1 0x40 MLOAD DUP1 SWAP2 SUB SWAP1 REVERT JUMPDEST POP JUMP JUMPDEST PUSH1 0x1 PUSH1 0x20 MSTORE DUP1 PUSH1 0x0 MSTORE PUSH1 0x40 PUSH1 0x0 KECCAK256 PUSH1 0x0 SWAP2 POP SWAP1 POP SLOAD DUP2 JUMP JUMPDEST PUSH9 0x1158E460913D00000 DUP2 JUMP JUMPDEST PUSH9 0x1158E460913D00000 PUSH2 0x3CC CALLVALUE PUSH2 0x52B JUMP JUMPDEST LT ISZERO PUSH2 0x40D JUMPI PUSH1 0x40 MLOAD PUSH32 0x8C379A000000000000000000000000000000000000000000000000000000000 DUP2 MSTORE PUSH1 0x4 ADD PUSH2 0x404 SWAP1 PUSH2 0xA5C JUMP JUMPDEST PUSH1 0x40 MLOAD DUP1 SWAP2 SUB SWAP1 REVERT JUMPDEST PUSH1 0x0 CALLER SWAP1 DUP1 PUSH1 0x1 DUP2 SLOAD ADD DUP1 DUP3 SSTORE DUP1 SWAP2 POP POP PUSH1 0x1 SWAP1 SUB SWAP1 PUSH1 0x0 MSTORE PUSH1 0x20 PUSH1 0x0 KECCAK256 ADD PUSH1 0x0 SWAP1 SWAP2 SWAP1 SWAP2 SWAP1 SWAP2 PUSH2 0x100 EXP DUP2 SLOAD DUP2 PUSH20 0xFFFFFFFFFFFFFFFFFFFFFFFFFFFFFFFFFFFFFFFF MUL NOT AND SWAP1 DUP4 PUSH20 0xFFFFFFFFFFFFFFFFFFFFFFFFFFFFFFFFFFFFFFFF AND MUL OR SWAP1 SSTORE POP CALLVALUE PUSH1 0x1 PUSH1 0x0 CALLER PUSH20 0xFFFFFFFFFFFFFFFFFFFFFFFFFFFFFFFFFFFFFFFF AND PUSH20 0xFFFFFFFFFFFFFFFFFFFFFFFFFFFFFFFFFFFFFFFF AND DUP2 MSTORE PUSH1 0x20 ADD SWAP1 DUP2 MSTORE PUSH1 0x20 ADD PUSH1 0x0 KECCAK256 PUSH1 0x0 DUP3 DUP3 SLOAD PUSH2 0x4BF SWAP2 SWAP1 PUSH2 0xA7C JUMP JUMPDEST SWAP3 POP POP DUP2 SWAP1 SSTORE POP JUMP JUMPDEST PUSH32 0x0 DUP2 JUMP JUMPDEST PUSH1 0x0 DUP2 DUP2 SLOAD DUP2 LT PUSH2 0x4FC JUMPI PUSH1 0x0 DUP1 REVERT JUMPDEST SWAP1 PUSH1 0x0 MSTORE PUSH1 0x20 PUSH1 0x0 KECCAK256 ADD PUSH1 0x0 SWAP2 POP SLOAD SWAP1 PUSH2 0x100 EXP SWAP1 DIV PUSH20 0xFFFFFFFFFFFFFFFFFFFFFFFFFFFFFFFFFFFFFFFF AND DUP2 JUMP JUMPDEST PUSH1 0x0 DUP1 PUSH2 0x536 PUSH2 0x565 JUMP JUMPDEST SWAP1 POP PUSH1 0x0 PUSH8 0xDE0B6B3A7640000 DUP5 DUP4 PUSH2 0x54F SWAP2 SWAP1 PUSH2 0xAD2 JUMP JUMPDEST PUSH2 0x559 SWAP2 SWAP1 PUSH2 0xB5B JUMP JUMPDEST SWAP1 POP DUP1 SWAP3 POP POP POP SWAP2 SWAP1 POP JUMP JUMPDEST PUSH1 0x0 DUP1 PUSH20 0xD4A33860578DE61DBABDC8BFDB98FD742FA7028E SWAP1 POP PUSH1 0x0 DUP2 PUSH20 0xFFFFFFFFFFFFFFFFFFFFFFFFFFFFFFFFFFFFFFFF AND PUSH4 0xFEAF968C PUSH1 0x40 MLOAD DUP2 PUSH4 0xFFFFFFFF AND PUSH1 0xE0 SHL DUP2 MSTORE PUSH1 0x4 ADD PUSH1 0xA0 PUSH1 0x40 MLOAD DUP1 DUP4 SUB DUP2 DUP7 DUP1 EXTCODESIZE ISZERO DUP1 ISZERO PUSH2 0x5C7 JUMPI PUSH1 0x0 DUP1 REVERT JUMPDEST POP GAS STATICCALL ISZERO DUP1 ISZERO PUSH2 0x5DB JUMPI RETURNDATASIZE PUSH1 0x0 DUP1 RETURNDATACOPY RETURNDATASIZE PUSH1 0x0 REVERT JUMPDEST POP POP POP POP PUSH1 0x40 MLOAD RETURNDATASIZE PUSH1 0x1F NOT PUSH1 0x1F DUP3 ADD AND DUP3 ADD DUP1 PUSH1 0x40 MSTORE POP DUP2 ADD SWAP1 PUSH2 0x5FF SWAP2 SWAP1 PUSH2 0xC19 JUMP JUMPDEST POP POP POP SWAP2 POP POP PUSH5 0x2540BE400 DUP2 PUSH2 0x616 SWAP2 SWAP1 PUSH2 0xC94 JUMP JUMPDEST SWAP3 POP POP POP SWAP1 JUMP JUMPDEST DUP3 DUP1 SLOAD DUP3 DUP3 SSTORE SWAP1 PUSH1 0x0 MSTORE PUSH1 0x20 PUSH1 0x0 KECCAK256 SWAP1 DUP2 ADD SWAP3 DUP3 ISZERO PUSH2 0x696 JUMPI SWAP2 PUSH1 0x20 MUL DUP3 ADD JUMPDEST DUP3 DUP2 GT ISZERO PUSH2 0x695 JUMPI DUP3 MLOAD DUP3 PUSH1 0x0 PUSH2 0x100 EXP DUP2 SLOAD DUP2 PUSH20 0xFFFFFFFFFFFFFFFFFFFFFFFFFFFFFFFFFFFFFFFF MUL NOT AND SWAP1 DUP4 PUSH20 0xFFFFFFFFFFFFFFFFFFFFFFFFFFFFFFFFFFFFFFFF AND MUL OR SWAP1 SSTORE POP SWAP2 PUSH1 0x20 ADD SWAP2 SWAP1 PUSH1 0x1 ADD SWAP1 PUSH2 0x63D JUMP JUMPDEST JUMPDEST POP SWAP1 POP PUSH2 0x6A3 SWAP2 SWAP1 PUSH2 0x6A7 JUMP JUMPDEST POP SWAP1 JUMP JUMPDEST JUMPDEST DUP1 DUP3 GT ISZERO PUSH2 0x6C0 JUMPI PUSH1 0x0 DUP2 PUSH1 0x0 SWAP1 SSTORE POP PUSH1 0x1 ADD PUSH2 0x6A8 JUMP JUMPDEST POP SWAP1 JUMP JUMPDEST PUSH1 0x0 DUP1 REVERT JUMPDEST PUSH1 0x0 PUSH20 0xFFFFFFFFFFFFFFFFFFFFFFFFFFFFFFFFFFFFFFFF DUP3 AND SWAP1 POP SWAP2 SWAP1 POP JUMP JUMPDEST PUSH1 0x0 PUSH2 0x6F4 DUP3 PUSH2 0x6C9 JUMP JUMPDEST SWAP1 POP SWAP2 SWAP1 POP JUMP JUMPDEST PUSH2 0x704 DUP2 PUSH2 0x6E9 JUMP JUMPDEST DUP2 EQ PUSH2 0x70F JUMPI PUSH1 0x0 DUP1 REVERT JUMPDEST POP JUMP JUMPDEST PUSH1 0x0 DUP2 CALLDATALOAD SWAP1 POP PUSH2 0x721 DUP2 PUSH2 0x6FB JUMP JUMPDEST SWAP3 SWAP2 POP POP JUMP JUMPDEST PUSH1 0x0 PUSH1 0x20 DUP3 DUP5 SUB SLT ISZERO PUSH2 0x73D JUMPI PUSH2 0x73C PUSH2 0x6C4 JUMP JUMPDEST JUMPDEST PUSH1 0x0 PUSH2 0x74B DUP5 DUP3 DUP6 ADD PUSH2 0x712 JUMP JUMPDEST SWAP2 POP POP SWAP3 SWAP2 POP POP JUMP JUMPDEST PUSH1 0x0 DUP2 SWAP1 POP SWAP2 SWAP1 POP JUMP JUMPDEST PUSH2 0x767 DUP2 PUSH2 0x754 JUMP JUMPDEST DUP3 MSTORE POP POP JUMP JUMPDEST PUSH1 0x0 PUSH1 0x20 DUP3 ADD SWAP1 POP PUSH2 0x782 PUSH1 0x0 DUP4 ADD DUP5 PUSH2 0x75E JUMP JUMPDEST SWAP3 SWAP2 POP POP JUMP JUMPDEST PUSH2 0x791 DUP2 PUSH2 0x6E9 JUMP JUMPDEST DUP3 MSTORE POP POP JUMP JUMPDEST PUSH1 0x0 PUSH1 0x20 DUP3 ADD SWAP1 POP PUSH2 0x7AC PUSH1 0x0 DUP4 ADD DUP5 PUSH2 0x788 JUMP JUMPDEST SWAP3 SWAP2 POP POP JUMP JUMPDEST PUSH2 0x7BB DUP2 PUSH2 0x754 JUMP JUMPDEST DUP2 EQ PUSH2 0x7C6 JUMPI PUSH1 0x0 DUP1 REVERT JUMPDEST POP JUMP JUMPDEST PUSH1 0x0 DUP2 CALLDATALOAD SWAP1 POP PUSH2 0x7D8 DUP2 PUSH2 0x7B2 JUMP JUMPDEST SWAP3 SWAP2 POP POP JUMP JUMPDEST PUSH1 0x0 PUSH1 0x20 DUP3 DUP5 SUB SLT ISZERO PUSH2 0x7F4 JUMPI PUSH2 0x7F3 PUSH2 0x6C4 JUMP JUMPDEST JUMPDEST PUSH1 0x0 PUSH2 0x802 DUP5 DUP3 DUP6 ADD PUSH2 0x7C9 JUMP JUMPDEST SWAP2 POP POP SWAP3 SWAP2 POP POP JUMP JUMPDEST PUSH1 0x0 DUP3 DUP3 MSTORE PUSH1 0x20 DUP3 ADD SWAP1 POP SWAP3 SWAP2 POP POP JUMP JUMPDEST PUSH32 0x53656E646572206973206E6F74206F776E65722E20576F707A00000000000000 PUSH1 0x0 DUP3 ADD MSTORE POP JUMP JUMPDEST PUSH1 0x0 PUSH2 0x852 PUSH1 0x19 DUP4 PUSH2 0x80B JUMP JUMPDEST SWAP2 POP PUSH2 0x85D DUP3 PUSH2 0x81C JUMP JUMPDEST PUSH1 0x20 DUP3 ADD SWAP1 POP SWAP2 SWAP1 POP JUMP JUMPDEST PUSH1 0x0 PUSH1 0x20 DUP3 ADD SWAP1 POP DUP2 DUP2 SUB PUSH1 0x0 DUP4 ADD MSTORE PUSH2 0x881 DUP2 PUSH2 0x845 JUMP JUMPDEST SWAP1 POP SWAP2 SWAP1 POP JUMP JUMPDEST PUSH32 0x4E487B7100000000000000000000000000000000000000000000000000000000 PUSH1 0x0 MSTORE PUSH1 0x32 PUSH1 0x4 MSTORE PUSH1 0x24 PUSH1 0x0 REVERT JUMPDEST PUSH32 0x4E487B7100000000000000000000000000000000000000000000000000000000 PUSH1 0x0 MSTORE PUSH1 0x11 PUSH1 0x4 MSTORE PUSH1 0x24 PUSH1 0x0 REVERT JUMPDEST PUSH1 0x0 PUSH2 0x8F1 DUP3 PUSH2 0x754 JUMP JUMPDEST SWAP2 POP PUSH32 0xFFFFFFFFFFFFFFFFFFFFFFFFFFFFFFFFFFFFFFFFFFFFFFFFFFFFFFFFFFFFFFFF DUP3 EQ ISZERO PUSH2 0x924 JUMPI PUSH2 0x923 PUSH2 0x8B7 JUMP JUMPDEST JUMPDEST PUSH1 0x1 DUP3 ADD SWAP1 POP SWAP2 SWAP1 POP JUMP JUMPDEST PUSH32 0x4E487B7100000000000000000000000000000000000000000000000000000000 PUSH1 0x0 MSTORE PUSH1 0x41 PUSH1 0x4 MSTORE PUSH1 0x24 PUSH1 0x0 REVERT JUMPDEST PUSH1 0x0 DUP2 SWAP1 POP SWAP3 SWAP2 POP POP JUMP JUMPDEST POP JUMP JUMPDEST PUSH1 0x0 PUSH2 0x979 PUSH1 0x0 DUP4 PUSH2 0x95E JUMP JUMPDEST SWAP2 POP PUSH2 0x984 DUP3 PUSH2 0x969 JUMP JUMPDEST PUSH1 0x0 DUP3 ADD SWAP1 POP SWAP2 SWAP1 POP JUMP JUMPDEST PUSH1 0x0 PUSH2 0x99A DUP3 PUSH2 0x96C JUMP JUMPDEST SWAP2 POP DUP2 SWAP1 POP SWAP2 SWAP1 POP JUMP JUMPDEST PUSH32 0x43616C6C206661696C6564000000000000000000000000000000000000000000 PUSH1 0x0 DUP3 ADD MSTORE POP JUMP JUMPDEST PUSH1 0x0 PUSH2 0x9DA PUSH1 0xB DUP4 PUSH2 0x80B JUMP JUMPDEST SWAP2 POP PUSH2 0x9E5 DUP3 PUSH2 0x9A4 JUMP JUMPDEST PUSH1 0x20 DUP3 ADD SWAP1 POP SWAP2 SWAP1 POP JUMP JUMPDEST PUSH1 0x0 PUSH1 0x20 DUP3 ADD SWAP1 POP DUP2 DUP2 SUB PUSH1 0x0 DUP4 ADD MSTORE PUSH2 0xA09 DUP2 PUSH2 0x9CD JUMP JUMPDEST SWAP1 POP SWAP2 SWAP1 POP JUMP JUMPDEST PUSH32 0x4469646E27742073656E6420656E6F7567682100000000000000000000000000 PUSH1 0x0 DUP3 ADD MSTORE POP JUMP JUMPDEST PUSH1 0x0 PUSH2 0xA46 PUSH1 0x13 DUP4 PUSH2 0x80B JUMP JUMPDEST SWAP2 POP PUSH2 0xA51 DUP3 PUSH2 0xA10 JUMP JUMPDEST PUSH1 0x20 DUP3 ADD SWAP1 POP SWAP2 SWAP1 POP JUMP JUMPDEST PUSH1 0x0 PUSH1 0x20 DUP3 ADD SWAP1 POP DUP2 DUP2 SUB PUSH1 0x0 DUP4 ADD MSTORE PUSH2 0xA75 DUP2 PUSH2 0xA39 JUMP JUMPDEST SWAP1 POP SWAP2 SWAP1 POP JUMP JUMPDEST PUSH1 0x0 PUSH2 0xA87 DUP3 PUSH2 0x754 JUMP JUMPDEST SWAP2 POP PUSH2 0xA92 DUP4 PUSH2 0x754 JUMP JUMPDEST SWAP3 POP DUP3 PUSH32 0xFFFFFFFFFFFFFFFFFFFFFFFFFFFFFFFFFFFFFFFFFFFFFFFFFFFFFFFFFFFFFFFF SUB DUP3 GT ISZERO PUSH2 0xAC7 JUMPI PUSH2 0xAC6 PUSH2 0x8B7 JUMP JUMPDEST JUMPDEST DUP3 DUP3 ADD SWAP1 POP SWAP3 SWAP2 POP POP JUMP JUMPDEST PUSH1 0x0 PUSH2 0xADD DUP3 PUSH2 0x754 JUMP JUMPDEST SWAP2 POP PUSH2 0xAE8 DUP4 PUSH2 0x754 JUMP JUMPDEST SWAP3 POP DUP2 PUSH32 0xFFFFFFFFFFFFFFFFFFFFFFFFFFFFFFFFFFFFFFFFFFFFFFFFFFFFFFFFFFFFFFFF DIV DUP4 GT DUP3 ISZERO ISZERO AND ISZERO PUSH2 0xB21 JUMPI PUSH2 0xB20 PUSH2 0x8B7 JUMP JUMPDEST JUMPDEST DUP3 DUP3 MUL SWAP1 POP SWAP3 SWAP2 POP POP JUMP JUMPDEST PUSH32 0x4E487B7100000000000000000000000000000000000000000000000000000000 PUSH1 0x0 MSTORE PUSH1 0x12 PUSH1 0x4 MSTORE PUSH1 0x24 PUSH1 0x0 REVERT JUMPDEST PUSH1 0x0 PUSH2 0xB66 DUP3 PUSH2 0x754 JUMP JUMPDEST SWAP2 POP PUSH2 0xB71 DUP4 PUSH2 0x754 JUMP JUMPDEST SWAP3 POP DUP3 PUSH2 0xB81 JUMPI PUSH2 0xB80 PUSH2 0xB2C JUMP JUMPDEST JUMPDEST DUP3 DUP3 DIV SWAP1 POP SWAP3 SWAP2 POP POP JUMP JUMPDEST PUSH1 0x0 PUSH10 0xFFFFFFFFFFFFFFFFFFFF DUP3 AND SWAP1 POP SWAP2 SWAP1 POP JUMP JUMPDEST PUSH2 0xBAB DUP2 PUSH2 0xB8C JUMP JUMPDEST DUP2 EQ PUSH2 0xBB6 JUMPI PUSH1 0x0 DUP1 REVERT JUMPDEST POP JUMP JUMPDEST PUSH1 0x0 DUP2 MLOAD SWAP1 POP PUSH2 0xBC8 DUP2 PUSH2 0xBA2 JUMP JUMPDEST SWAP3 SWAP2 POP POP JUMP JUMPDEST PUSH1 0x0 DUP2 SWAP1 POP SWAP2 SWAP1 POP JUMP JUMPDEST PUSH2 0xBE1 DUP2 PUSH2 0xBCE JUMP JUMPDEST DUP2 EQ PUSH2 0xBEC JUMPI PUSH1 0x0 DUP1 REVERT JUMPDEST POP JUMP JUMPDEST PUSH1 0x0 DUP2 MLOAD SWAP1 POP PUSH2 0xBFE DUP2 PUSH2 0xBD8 JUMP JUMPDEST SWAP3 SWAP2 POP POP JUMP JUMPDEST PUSH1 0x0 DUP2 MLOAD SWAP1 POP PUSH2 0xC13 DUP2 PUSH2 0x7B2 JUMP JUMPDEST SWAP3 SWAP2 POP POP JUMP JUMPDEST PUSH1 0x0 DUP1 PUSH1 0x0 DUP1 PUSH1 0x0 PUSH1 0xA0 DUP7 DUP9 SUB SLT ISZERO PUSH2 0xC35 JUMPI PUSH2 0xC34 PUSH2 0x6C4 JUMP JUMPDEST JUMPDEST PUSH1 0x0 PUSH2 0xC43 DUP9 DUP3 DUP10 ADD PUSH2 0xBB9 JUMP JUMPDEST SWAP6 POP POP PUSH1 0x20 PUSH2 0xC54 DUP9 DUP3 DUP10 ADD PUSH2 0xBEF JUMP JUMPDEST SWAP5 POP POP PUSH1 0x40 PUSH2 0xC65 DUP9 DUP3 DUP10 ADD PUSH2 0xC04 JUMP JUMPDEST SWAP4 POP POP PUSH1 0x60 PUSH2 0xC76 DUP9 DUP3 DUP10 ADD PUSH2 0xC04 JUMP JUMPDEST SWAP3 POP POP PUSH1 0x80 PUSH2 0xC87 DUP9 DUP3 DUP10 ADD PUSH2 0xBB9 JUMP JUMPDEST SWAP2 POP POP SWAP3 SWAP6 POP SWAP3 SWAP6 SWAP1 SWAP4 POP JUMP JUMPDEST PUSH1 0x0 PUSH2 0xC9F DUP3 PUSH2 0xBCE JUMP JUMPDEST SWAP2 POP PUSH2 0xCAA DUP4 PUSH2 0xBCE JUMP JUMPDEST SWAP3 POP DUP3 PUSH32 0x7FFFFFFFFFFFFFFFFFFFFFFFFFFFFFFFFFFFFFFFFFFFFFFFFFFFFFFFFFFFFFFF DIV DUP3 GT PUSH1 0x0 DUP5 SGT PUSH1 0x0 DUP5 SGT AND AND ISZERO PUSH2 0xCE9 JUMPI PUSH2 0xCE8 PUSH2 0x8B7 JUMP JUMPDEST JUMPDEST DUP2 PUSH32 0x8000000000000000000000000000000000000000000000000000000000000000 SDIV DUP4 SLT PUSH1 0x0 DUP5 SLT PUSH1 0x0 DUP5 SGT AND AND ISZERO PUSH2 0xD26 JUMPI PUSH2 0xD25 PUSH2 0x8B7 JUMP JUMPDEST JUMPDEST DUP3 PUSH32 0x8000000000000000000000000000000000000000000000000000000000000000 SDIV DUP3 SLT PUSH1 0x0 DUP5 SGT PUSH1 0x0 DUP5 SLT AND AND ISZERO PUSH2 0xD63 JUMPI PUSH2 0xD62 PUSH2 0x8B7 JUMP JUMPDEST JUMPDEST DUP3 PUSH32 0x7FFFFFFFFFFFFFFFFFFFFFFFFFFFFFFFFFFFFFFFFFFFFFFFFFFFFFFFFFFFFFFF SDIV DUP3 SLT PUSH1 0x0 DUP5 SLT PUSH1 0x0 DUP5 SLT AND AND ISZERO PUSH2 0xDA0 JUMPI PUSH2 0xD9F PUSH2 0x8B7 JUMP JUMPDEST JUMPDEST DUP3 DUP3 MUL SWAP1 POP SWAP3 SWAP2 POP POP JUMP INVALID LOG2 PUSH5 0x6970667358 0x22 SLT KECCAK256 BASEFEE BYTE 0xC6 ISZERO 0xD1 SWAP16 EXP SWAP11 0xEC SWAP9 DUP15 0xB6 PUSH5 0xB5CEC9B69C 0xCF PUSH29 0x1D2A18878AEE48A9B817B1A064736F6C63430008080033000000000000 "
				},
				"gasEstimates": {
					"creation": {
						"codeDepositCost": "710600",
						"executionCost": "infinite",
						"totalCost": "infinite"
					},
					"external": {
						"MINIMUM_USD()": "351",
						"addressToAmountFunded(address)": "2814",
						"fund()": "infinite",
						"funders(uint256)": "5044",
						"i_owner()": "infinite",
						"withdraw()": "infinite"
					}
				},
				"methodIdentifiers": {
					"MINIMUM_USD()": "6b69a592",
					"addressToAmountFunded(address)": "3e47d6f3",
					"fund()": "b60d4288",
					"funders(uint256)": "dc0d3dff",
					"i_owner()": "dba6335f",
					"withdraw()": "3ccfd60b"
				}
			},
			"storageLayout": {
				"storage": [
					{
						"astId": 59,
						"contract": "contracts/FundMe_Upgraded.sol:FundMe",
						"label": "funders",
						"offset": 0,
						"slot": "0",
						"type": "t_array(t_address)dyn_storage"
					},
					{
						"astId": 63,
						"contract": "contracts/FundMe_Upgraded.sol:FundMe",
						"label": "addressToAmountFunded",
						"offset": 0,
						"slot": "1",
						"type": "t_mapping(t_address,t_uint256)"
					}
				],
				"types": {
					"t_address": {
						"encoding": "inplace",
						"label": "address",
						"numberOfBytes": "20"
					},
					"t_array(t_address)dyn_storage": {
						"base": "t_address",
						"encoding": "dynamic_array",
						"label": "address[]",
						"numberOfBytes": "32"
					},
					"t_mapping(t_address,t_uint256)": {
						"encoding": "mapping",
						"key": "t_address",
						"label": "mapping(address => uint256)",
						"numberOfBytes": "32",
						"value": "t_uint256"
					},
					"t_uint256": {
						"encoding": "inplace",
						"label": "uint256",
						"numberOfBytes": "32"
					}
				}
			},
			"userdoc": {
				"kind": "user",
				"methods": {},
				"version": 1
			}
		}
	}
}